{
  "address": "0x05bFb74D59312588480f45713167a3287D3c5268",
  "abi": [
    {
      "anonymous": false,
      "inputs": [
        {
          "indexed": true,
          "internalType": "address",
          "name": "collectionAddress",
          "type": "address"
        },
        {
          "indexed": true,
          "internalType": "address",
          "name": "owner",
          "type": "address"
        }
      ],
      "name": "newCollectionEvent",
      "type": "event"
    },
    {
      "inputs": [
        {
          "internalType": "string",
          "name": "_name",
          "type": "string"
        },
        {
          "internalType": "string",
          "name": "_symbol",
          "type": "string"
        },
        {
          "internalType": "uint256",
          "name": "_royaltiesCutPerMillion",
          "type": "uint256"
        },
        {
          "internalType": "address",
          "name": "_royaltyRecipient",
          "type": "address"
        },
        {
          "internalType": "address",
          "name": "_collateral",
          "type": "address"
        }
      ],
      "name": "createCollection",
      "outputs": [
        {
          "internalType": "address[2]",
          "name": "",
          "type": "address[2]"
        }
      ],
      "stateMutability": "nonpayable",
      "type": "function"
    }
  ],
  "transactionHash": "0x3818cf92fe3b726bf1707d2ffcfe50001b55ba2f7c19e6dede514bf35512f383",
  "args": [],
  "numDeployments": 5,
  "solcInputHash": "54a5c2aee23b47938a107d5bf902108f",
  "bytecode": "0x608060405234801561001057600080fd5b50615c9a806100206000396000f3fe60806040523480156200001157600080fd5b50600436106200002e5760003560e01c8063cbb3ce611462000033575b600080fd5b6200005160048036038101906200004b919062000491565b62000069565b60405162000060919062000612565b60405180910390f35b620000736200023d565b600060405162000083906200025f565b604051809103906000f080158015620000a0573d6000803e3d6000fd5b509050600081635cf3ad3160e01b3387878a8d8d604051602401620000cb96959493929190620006da565b604051602081830303815290604052907bffffffffffffffffffffffffffffffffffffffffffffffffffffffff19166020820180517bffffffffffffffffffffffffffffffffffffffffffffffffffffffff838183161783525050505060405162000136906200026d565b62000143929190620007b2565b604051809103906000f08015801562000160573d6000803e3d6000fd5b50905060008190503373ffffffffffffffffffffffffffffffffffffffff168173ffffffffffffffffffffffffffffffffffffffff167ff59ec64249a367b8002b16800479bbc232553e6b3a132735ac8f9ca67d82cc9a60405160405180910390a360405180604001604052808273ffffffffffffffffffffffffffffffffffffffff1673ffffffffffffffffffffffffffffffffffffffff1681526020013373ffffffffffffffffffffffffffffffffffffffff1673ffffffffffffffffffffffffffffffffffffffff16815250935050505095945050505050565b6040518060400160405280600290602082028036833780820191505090505090565b61482d80620007e783390190565b610c51806200501483390190565b6000604051905090565b600080fd5b600080fd5b600080fd5b600080fd5b6000601f19601f8301169050919050565b7f4e487b7100000000000000000000000000000000000000000000000000000000600052604160045260246000fd5b620002e48262000299565b810181811067ffffffffffffffff82111715620003065762000305620002aa565b5b80604052505050565b60006200031b6200027b565b9050620003298282620002d9565b919050565b600067ffffffffffffffff8211156200034c576200034b620002aa565b5b620003578262000299565b9050602081019050919050565b82818337600083830152505050565b60006200038a62000384846200032e565b6200030f565b905082815260208101848484011115620003a957620003a862000294565b5b620003b684828562000364565b509392505050565b600082601f830112620003d657620003d56200028f565b5b8135620003e884826020860162000373565b91505092915050565b6000819050919050565b6200040681620003f1565b81146200041257600080fd5b50565b6000813590506200042681620003fb565b92915050565b600073ffffffffffffffffffffffffffffffffffffffff82169050919050565b600062000459826200042c565b9050919050565b6200046b816200044c565b81146200047757600080fd5b50565b6000813590506200048b8162000460565b92915050565b600080600080600060a08688031215620004b057620004af62000285565b5b600086013567ffffffffffffffff811115620004d157620004d06200028a565b5b620004df88828901620003be565b955050602086013567ffffffffffffffff8111156200050357620005026200028a565b5b6200051188828901620003be565b9450506040620005248882890162000415565b935050606062000537888289016200047a565b92505060806200054a888289016200047a565b9150509295509295909350565b600060029050919050565b600081905092915050565b6000819050919050565b62000582816200044c565b82525050565b600062000596838362000577565b60208301905092915050565b6000602082019050919050565b620005ba8162000557565b620005c6818462000562565b9250620005d3826200056d565b8060005b838110156200060a578151620005ee878262000588565b9650620005fb83620005a2565b925050600181019050620005d7565b505050505050565b6000604082019050620006296000830184620005af565b92915050565b6200063a816200044c565b82525050565b6200064b81620003f1565b82525050565b600081519050919050565b600082825260208201905092915050565b60005b838110156200068d57808201518184015260208101905062000670565b60008484015250505050565b6000620006a68262000651565b620006b281856200065c565b9350620006c48185602086016200066d565b620006cf8162000299565b840191505092915050565b600060c082019050620006f160008301896200062f565b6200070060208301886200062f565b6200070f60408301876200062f565b6200071e606083018662000640565b818103608083015262000732818562000699565b905081810360a083015262000748818462000699565b9050979650505050505050565b600081519050919050565b600082825260208201905092915050565b60006200077e8262000755565b6200078a818562000760565b93506200079c8185602086016200066d565b620007a78162000299565b840191505092915050565b6000604082019050620007c960008301856200062f565b8181036020830152620007dd818462000771565b9050939250505056fe60a06040523073ffffffffffffffffffffffffffffffffffffffff1660809073ffffffffffffffffffffffffffffffffffffffff16815250681b1ae4d6e2ef500000606e5534801561005057600080fd5b506080516147a561008860003960008181611229015281816112b70152818161155e015281816115ec015261169c01526147a56000f3fe6080604052600436106101f95760003560e01c80634f1ef2861161010d578063aa04295f116100a0578063cef6d3681161006f578063cef6d36814610717578063d147c97a14610755578063d8dfeb451461077e578063e985e9c5146107a9578063f6f315ac146107e6576101f9565b8063aa04295f14610649578063b88d4fde14610686578063c87b56dd146106af578063ce2243b4146106ec576101f9565b80636352211e116100dc5780636352211e1461057b57806370a08231146105b857806395d89b41146105f5578063a22cb46514610620576101f9565b80634f1ef286146104e057806352d1902d146104fc5780635492ed1c146105275780635cf3ad3114610552576101f9565b80630d8e6e2c11610190578063343def021161015f578063343def021461040f5780633659cfe61461043a57806342842e0e1461046357806342966c681461048c578063486f6c3e146104b5576101f9565b80630d8e6e2c14610367578063162094c41461039257806318160ddd146103bb57806323b872dd146103e6576101f9565b806307cd5d9e116101cc57806307cd5d9e146102ba578063081812fc146102d6578063095ea7b3146103135780630bfda73b1461033c576101f9565b806301ffc9a7146101fe57806302d05d3f1461023b578063056b01ce1461026657806306fdde031461028f575b600080fd5b34801561020a57600080fd5b5061022560048036038101906102209190612f18565b61080f565b6040516102329190612f60565b60405180910390f35b34801561024757600080fd5b506102506108a1565b60405161025d9190612fbc565b60405180910390f35b34801561027257600080fd5b5061028d60048036038101906102889190613153565b6108c7565b005b34801561029b57600080fd5b506102a46109c1565b6040516102b1919061322e565b60405180910390f35b6102d460048036038101906102cf9190613250565b610a4f565b005b3480156102e257600080fd5b506102fd60048036038101906102f89190613299565b610b01565b60405161030a9190612fbc565b60405180910390f35b34801561031f57600080fd5b5061033a600480360381019061033591906132f2565b610b34565b005b34801561034857600080fd5b50610351610d1d565b60405161035e9190613341565b60405180910390f35b34801561037357600080fd5b5061037c610d27565b604051610389919061322e565b60405180910390f35b34801561039e57600080fd5b506103b960048036038101906103b4919061335c565b610d64565b005b3480156103c757600080fd5b506103d0610dfc565b6040516103dd9190613341565b60405180910390f35b3480156103f257600080fd5b5061040d600480360381019061040891906133b8565b610e02565b005b34801561041b57600080fd5b50610424611201565b6040516104319190612fbc565b60405180910390f35b34801561044657600080fd5b50610461600480360381019061045c919061340b565b611227565b005b34801561046f57600080fd5b5061048a600480360381019061048591906133b8565b6113af565b005b34801561049857600080fd5b506104b360048036038101906104ae9190613299565b6114e7565b005b3480156104c157600080fd5b506104ca611556565b6040516104d79190613341565b60405180910390f35b6104fa60048036038101906104f591906134d9565b61155c565b005b34801561050857600080fd5b50610511611698565b60405161051e919061354e565b60405180910390f35b34801561053357600080fd5b5061053c611751565b6040516105499190613341565b60405180910390f35b34801561055e57600080fd5b5061057960048036038101906105749190613569565b611757565b005b34801561058757600080fd5b506105a2600480360381019061059d9190613299565b61196f565b6040516105af9190612fbc565b60405180910390f35b3480156105c457600080fd5b506105df60048036038101906105da919061340b565b611a1a565b6040516105ec9190613341565b60405180910390f35b34801561060157600080fd5b5061060a611ad1565b604051610617919061322e565b60405180910390f35b34801561062c57600080fd5b506106476004803603810190610642919061365a565b611b5f565b005b34801561065557600080fd5b50610670600480360381019061066b9190613299565b611c5c565b60405161067d9190613341565b60405180910390f35b34801561069257600080fd5b506106ad60048036038101906106a891906136fa565b611c79565b005b3480156106bb57600080fd5b506106d660048036038101906106d19190613299565b611db7565b6040516106e3919061322e565b60405180910390f35b3480156106f857600080fd5b50610701611e9b565b60405161070e9190613341565b60405180910390f35b34801561072357600080fd5b5061073e60048036038101906107399190613299565b611ea1565b60405161074c929190613782565b60405180910390f35b34801561076157600080fd5b5061077c600480360381019061077791906137ab565b611f03565b005b34801561078a57600080fd5b5061079361205b565b6040516107a09190612fbc565b60405180910390f35b3480156107b557600080fd5b506107d060048036038101906107cb9190613823565b612081565b6040516107dd9190612f60565b60405180910390f35b3480156107f257600080fd5b5061080d60048036038101906108089190613299565b6120b0565b005b60006301ffc9a760e01b827bffffffffffffffffffffffffffffffffffffffffffffffffffffffff1916148061086a57506380ac58cd60e01b827bffffffffffffffffffffffffffffffffffffffffffffffffffffffff1916145b8061089a5750635b5e139f60e01b827bffffffffffffffffffffffffffffffffffffffffffffffffffffffff1916145b9050919050565b607160009054906101000a900473ffffffffffffffffffffffffffffffffffffffff1681565b607160009054906101000a900473ffffffffffffffffffffffffffffffffffffffff1673ffffffffffffffffffffffffffffffffffffffff163373ffffffffffffffffffffffffffffffffffffffff161461094e576040517f62a0fdfa00000000000000000000000000000000000000000000000000000000815260040160405180910390fd5b6000606b54905061095f3382612141565b6109698183612353565b6109738184610d64565b6001606b546109829190613892565b606b819055506001606c600082825461099b9190613892565b925050819055506001606d60008282546109b59190613892565b92505081905550505050565b606580546109ce906138f5565b80601f01602080910402602001604051908101604052809291908181526020018280546109fa906138f5565b8015610a475780601f10610a1c57610100808354040283529160200191610a47565b820191906000526020600020905b815481529060010190602001808311610a2a57829003601f168201915b505050505081565b6000606b549050610a603382612141565b610a6a8183610d64565b600073ffffffffffffffffffffffffffffffffffffffff166108fc606e549081150290604051600060405180830381858888f19350505050158015610ab3573d6000803e3d6000fd5b506001606b54610ac39190613892565b606b819055506001606c6000828254610adc9190613892565b925050819055506001606d6000828254610af69190613892565b925050819055505050565b60696020528060005260406000206000915054906101000a900473ffffffffffffffffffffffffffffffffffffffff1681565b60006067600083815260200190815260200160002060009054906101000a900473ffffffffffffffffffffffffffffffffffffffff1690508073ffffffffffffffffffffffffffffffffffffffff163373ffffffffffffffffffffffffffffffffffffffff161480610c2c5750606a60008273ffffffffffffffffffffffffffffffffffffffff1673ffffffffffffffffffffffffffffffffffffffff16815260200190815260200160002060003373ffffffffffffffffffffffffffffffffffffffff1673ffffffffffffffffffffffffffffffffffffffff16815260200190815260200160002060009054906101000a900460ff165b610c6b576040517f08c379a0000000000000000000000000000000000000000000000000000000008152600401610c6290613972565b60405180910390fd5b826069600084815260200190815260200160002060006101000a81548173ffffffffffffffffffffffffffffffffffffffff021916908373ffffffffffffffffffffffffffffffffffffffff160217905550818373ffffffffffffffffffffffffffffffffffffffff168273ffffffffffffffffffffffffffffffffffffffff167f8c5be1e5ebec7d5bd14f71427d1e84f3dd0314c0f7b2291e5b200ac8c7c3b92560405160405180910390a4505050565b6000606e54905090565b60606040518060400160405280600181526020017f3300000000000000000000000000000000000000000000000000000000000000815250905090565b6000610d6f8361196f565b90508073ffffffffffffffffffffffffffffffffffffffff163373ffffffffffffffffffffffffffffffffffffffff1614610dd6576040517f11e7e2df00000000000000000000000000000000000000000000000000000000815260040160405180910390fd5b81607360008581526020019081526020016000209081610df69190613b3e565b50505050565b606c5481565b6067600082815260200190815260200160002060009054906101000a900473ffffffffffffffffffffffffffffffffffffffff1673ffffffffffffffffffffffffffffffffffffffff168373ffffffffffffffffffffffffffffffffffffffff1614610ea3576040517f08c379a0000000000000000000000000000000000000000000000000000000008152600401610e9a90613c5c565b60405180910390fd5b600073ffffffffffffffffffffffffffffffffffffffff168273ffffffffffffffffffffffffffffffffffffffff1603610f12576040517f08c379a0000000000000000000000000000000000000000000000000000000008152600401610f0990613cc8565b60405180910390fd5b8273ffffffffffffffffffffffffffffffffffffffff163373ffffffffffffffffffffffffffffffffffffffff161480610fd25750606a60008473ffffffffffffffffffffffffffffffffffffffff1673ffffffffffffffffffffffffffffffffffffffff16815260200190815260200160002060003373ffffffffffffffffffffffffffffffffffffffff1673ffffffffffffffffffffffffffffffffffffffff16815260200190815260200160002060009054906101000a900460ff165b8061103b57506069600082815260200190815260200160002060009054906101000a900473ffffffffffffffffffffffffffffffffffffffff1673ffffffffffffffffffffffffffffffffffffffff163373ffffffffffffffffffffffffffffffffffffffff16145b61107a576040517f08c379a000000000000000000000000000000000000000000000000000000000815260040161107190613972565b60405180910390fd5b606860008473ffffffffffffffffffffffffffffffffffffffff1673ffffffffffffffffffffffffffffffffffffffff1681526020019081526020016000206000815480929190600190039190505550606860008373ffffffffffffffffffffffffffffffffffffffff1673ffffffffffffffffffffffffffffffffffffffff16815260200190815260200160002060008154809291906001019190505550816067600083815260200190815260200160002060006101000a81548173ffffffffffffffffffffffffffffffffffffffff021916908373ffffffffffffffffffffffffffffffffffffffff1602179055506069600082815260200190815260200160002060006101000a81549073ffffffffffffffffffffffffffffffffffffffff0219169055808273ffffffffffffffffffffffffffffffffffffffff168473ffffffffffffffffffffffffffffffffffffffff167fddf252ad1be2c89b69c2b068fc378daa952ba7f163c4a11628f55a4df523b3ef60405160405180910390a4505050565b607060009054906101000a900473ffffffffffffffffffffffffffffffffffffffff1681565b7f000000000000000000000000000000000000000000000000000000000000000073ffffffffffffffffffffffffffffffffffffffff163073ffffffffffffffffffffffffffffffffffffffff16036112b5576040517f08c379a00000000000000000000000000000000000000000000000000000000081526004016112ac90613d5a565b60405180910390fd5b7f000000000000000000000000000000000000000000000000000000000000000073ffffffffffffffffffffffffffffffffffffffff166112f4612384565b73ffffffffffffffffffffffffffffffffffffffff161461134a576040517f08c379a000000000000000000000000000000000000000000000000000000000815260040161134190613dec565b60405180910390fd5b611353816123db565b6113ac81600067ffffffffffffffff81111561137257611371612ff2565b5b6040519080825280601f01601f1916602001820160405280156113a45781602001600182028036833780820191505090505b5060006123de565b50565b6113ba838383610e02565b60008273ffffffffffffffffffffffffffffffffffffffff163b14806114a3575063150b7a0260e01b7bffffffffffffffffffffffffffffffffffffffffffffffffffffffff19168273ffffffffffffffffffffffffffffffffffffffff1663150b7a023386856040518463ffffffff1660e01b815260040161143f93929190613e43565b6020604051808303816000875af115801561145e573d6000803e3d6000fd5b505050506040513d601f19601f820116820180604052508101906114829190613ea2565b7bffffffffffffffffffffffffffffffffffffffffffffffffffffffff1916145b6114e2576040517f08c379a00000000000000000000000000000000000000000000000000000000081526004016114d990613f1b565b60405180910390fd5b505050565b6114f1338261254c565b611527576040517ff11def0100000000000000000000000000000000000000000000000000000000815260040160405180910390fd5b6115308161268c565b6115398161284f565b6001606d600082825461154c9190613f3b565b9250508190555050565b606d5481565b7f000000000000000000000000000000000000000000000000000000000000000073ffffffffffffffffffffffffffffffffffffffff163073ffffffffffffffffffffffffffffffffffffffff16036115ea576040517f08c379a00000000000000000000000000000000000000000000000000000000081526004016115e190613d5a565b60405180910390fd5b7f000000000000000000000000000000000000000000000000000000000000000073ffffffffffffffffffffffffffffffffffffffff16611629612384565b73ffffffffffffffffffffffffffffffffffffffff161461167f576040517f08c379a000000000000000000000000000000000000000000000000000000000815260040161167690613dec565b60405180910390fd5b611688826123db565b611694828260016123de565b5050565b60007f000000000000000000000000000000000000000000000000000000000000000073ffffffffffffffffffffffffffffffffffffffff163073ffffffffffffffffffffffffffffffffffffffff1614611728576040517f08c379a000000000000000000000000000000000000000000000000000000000815260040161171f90613fe1565b60405180910390fd5b7f360894a13ba1a3210667c828492db98dca3e2076cc3735a920a3ca505d382bbc60001b905090565b606e5481565b60008060019054906101000a900460ff161590508080156117885750600160008054906101000a900460ff1660ff16105b806117b5575061179730612888565b1580156117b45750600160008054906101000a900460ff1660ff16145b5b6117f4576040517f08c379a00000000000000000000000000000000000000000000000000000000081526004016117eb90614073565b60405180910390fd5b60016000806101000a81548160ff021916908360ff1602179055508015611831576001600060016101000a81548160ff0219169083151502179055505b83606f8190555085607060006101000a81548173ffffffffffffffffffffffffffffffffffffffff021916908373ffffffffffffffffffffffffffffffffffffffff16021790555086607160006101000a81548173ffffffffffffffffffffffffffffffffffffffff021916908373ffffffffffffffffffffffffffffffffffffffff16021790555084607260006101000a81548173ffffffffffffffffffffffffffffffffffffffff021916908373ffffffffffffffffffffffffffffffffffffffff1602179055506119058383611f03565b61190d6128ab565b80156119665760008060016101000a81548160ff0219169083151502179055507f7f26b83ff96e1f2b6a682f133852f6798a09c465da95921460cefb3847402498600160405161195d91906140db565b60405180910390a15b50505050505050565b60008073ffffffffffffffffffffffffffffffffffffffff166067600084815260200190815260200160002060009054906101000a900473ffffffffffffffffffffffffffffffffffffffff1691508173ffffffffffffffffffffffffffffffffffffffff1603611a15576040517f08c379a0000000000000000000000000000000000000000000000000000000008152600401611a0c90614142565b60405180910390fd5b919050565b60008073ffffffffffffffffffffffffffffffffffffffff168273ffffffffffffffffffffffffffffffffffffffff1603611a8a576040517f08c379a0000000000000000000000000000000000000000000000000000000008152600401611a81906141ae565b60405180910390fd5b606860008373ffffffffffffffffffffffffffffffffffffffff1673ffffffffffffffffffffffffffffffffffffffff168152602001908152602001600020549050919050565b60668054611ade906138f5565b80601f0160208091040260200160405190810160405280929190818152602001828054611b0a906138f5565b8015611b575780601f10611b2c57610100808354040283529160200191611b57565b820191906000526020600020905b815481529060010190602001808311611b3a57829003601f168201915b505050505081565b80606a60003373ffffffffffffffffffffffffffffffffffffffff1673ffffffffffffffffffffffffffffffffffffffff16815260200190815260200160002060008473ffffffffffffffffffffffffffffffffffffffff1673ffffffffffffffffffffffffffffffffffffffff16815260200190815260200160002060006101000a81548160ff0219169083151502179055508173ffffffffffffffffffffffffffffffffffffffff163373ffffffffffffffffffffffffffffffffffffffff167f17307eab39ab6107e8899845ad3d59bd9653f200f220920489ca2b5937696c3183604051611c509190612f60565b60405180910390a35050565b600060746000838152602001908152602001600020549050919050565b611c84858585610e02565b60008473ffffffffffffffffffffffffffffffffffffffff163b1480611d71575063150b7a0260e01b7bffffffffffffffffffffffffffffffffffffffffffffffffffffffff19168473ffffffffffffffffffffffffffffffffffffffff1663150b7a0233888787876040518663ffffffff1660e01b8152600401611d0d9594939291906141fb565b6020604051808303816000875af1158015611d2c573d6000803e3d6000fd5b505050506040513d601f19601f82011682018060405250810190611d509190613ea2565b7bffffffffffffffffffffffffffffffffffffffffffffffffffffffff1916145b611db0576040517f08c379a0000000000000000000000000000000000000000000000000000000008152600401611da790613f1b565b60405180910390fd5b5050505050565b6060611dc2826128fc565b611df8576040517f661a032000000000000000000000000000000000000000000000000000000000815260040160405180910390fd5b607360008381526020019081526020016000208054611e16906138f5565b80601f0160208091040260200160405190810160405280929190818152602001828054611e42906138f5565b8015611e8f5780601f10611e6457610100808354040283529160200191611e8f565b820191906000526020600020905b815481529060010190602001808311611e7257829003601f168201915b50505050509050919050565b606f5481565b6000806000606f541115611ef657612710606f5484611ec09190614249565b611eca91906142ba565b607060009054906101000a900473ffffffffffffffffffffffffffffffffffffffff1691509150611efe565b600080915091505b915091565b60008060019054906101000a900460ff16159050808015611f345750600160008054906101000a900460ff1660ff16105b80611f615750611f4330612888565b158015611f605750600160008054906101000a900460ff1660ff16145b5b611fa0576040517f08c379a0000000000000000000000000000000000000000000000000000000008152600401611f9790614073565b60405180910390fd5b60016000806101000a81548160ff021916908360ff1602179055508015611fdd576001600060016101000a81548160ff0219169083151502179055505b8260659081611fec9190613b3e565b508160669081611ffc9190613b3e565b5080156120565760008060016101000a81548160ff0219169083151502179055507f7f26b83ff96e1f2b6a682f133852f6798a09c465da95921460cefb3847402498600160405161204d91906140db565b60405180910390a15b505050565b607260009054906101000a900473ffffffffffffffffffffffffffffffffffffffff1681565b606a6020528160005260406000206020528060005260406000206000915091509054906101000a900460ff1681565b607160009054906101000a900473ffffffffffffffffffffffffffffffffffffffff1673ffffffffffffffffffffffffffffffffffffffff163373ffffffffffffffffffffffffffffffffffffffff1614612137576040517f62a0fdfa00000000000000000000000000000000000000000000000000000000815260040160405180910390fd5b80606e8190555050565b600073ffffffffffffffffffffffffffffffffffffffff168273ffffffffffffffffffffffffffffffffffffffff16036121b0576040517f08c379a00000000000000000000000000000000000000000000000000000000081526004016121a790613cc8565b60405180910390fd5b600073ffffffffffffffffffffffffffffffffffffffff166067600083815260200190815260200160002060009054906101000a900473ffffffffffffffffffffffffffffffffffffffff1673ffffffffffffffffffffffffffffffffffffffff1614612252576040517f08c379a000000000000000000000000000000000000000000000000000000000815260040161224990614337565b60405180910390fd5b606860008373ffffffffffffffffffffffffffffffffffffffff1673ffffffffffffffffffffffffffffffffffffffff16815260200190815260200160002060008154809291906001019190505550816067600083815260200190815260200160002060006101000a81548173ffffffffffffffffffffffffffffffffffffffff021916908373ffffffffffffffffffffffffffffffffffffffff160217905550808273ffffffffffffffffffffffffffffffffffffffff16600073ffffffffffffffffffffffffffffffffffffffff167fddf252ad1be2c89b69c2b068fc378daa952ba7f163c4a11628f55a4df523b3ef60405160405180910390a45050565b60008111156123685761236733308361293d565b5b8060746000848152602001908152602001600020819055505050565b60006123b27f360894a13ba1a3210667c828492db98dca3e2076cc3735a920a3ca505d382bbc60001b612aa7565b60000160009054906101000a900473ffffffffffffffffffffffffffffffffffffffff16905090565b50565b61240a7f4910fdfa16fed3260ed0e7147f7cc6da11a60208b5b9406d12a635614ffd914360001b612ab1565b60000160009054906101000a900460ff161561242e5761242983612abb565b612547565b8273ffffffffffffffffffffffffffffffffffffffff166352d1902d6040518163ffffffff1660e01b8152600401602060405180830381865afa92505050801561249657506040513d601f19601f820116820180604052508101906124939190614383565b60015b6124d5576040517f08c379a00000000000000000000000000000000000000000000000000000000081526004016124cc90614422565b60405180910390fd5b7f360894a13ba1a3210667c828492db98dca3e2076cc3735a920a3ca505d382bbc60001b811461253a576040517f08c379a0000000000000000000000000000000000000000000000000000000008152600401612531906144b4565b60405180910390fd5b50612546838383612b74565b5b505050565b6000806125588361196f565b90508073ffffffffffffffffffffffffffffffffffffffff168473ffffffffffffffffffffffffffffffffffffffff16148061261a5750606a60008273ffffffffffffffffffffffffffffffffffffffff1673ffffffffffffffffffffffffffffffffffffffff16815260200190815260200160002060008573ffffffffffffffffffffffffffffffffffffffff1673ffffffffffffffffffffffffffffffffffffffff16815260200190815260200160002060009054906101000a900460ff165b8061268357508373ffffffffffffffffffffffffffffffffffffffff166069600085815260200190815260200160002060009054906101000a900473ffffffffffffffffffffffffffffffffffffffff1673ffffffffffffffffffffffffffffffffffffffff16145b91505092915050565b60006067600083815260200190815260200160002060009054906101000a900473ffffffffffffffffffffffffffffffffffffffff169050600073ffffffffffffffffffffffffffffffffffffffff168173ffffffffffffffffffffffffffffffffffffffff1603612733576040517f08c379a000000000000000000000000000000000000000000000000000000000815260040161272a90614142565b60405180910390fd5b606860008273ffffffffffffffffffffffffffffffffffffffff1673ffffffffffffffffffffffffffffffffffffffff16815260200190815260200160002060008154809291906001900391905055506067600083815260200190815260200160002060006101000a81549073ffffffffffffffffffffffffffffffffffffffff02191690556069600083815260200190815260200160002060006101000a81549073ffffffffffffffffffffffffffffffffffffffff021916905581600073ffffffffffffffffffffffffffffffffffffffff168273ffffffffffffffffffffffffffffffffffffffff167fddf252ad1be2c89b69c2b068fc378daa952ba7f163c4a11628f55a4df523b3ef60405160405180910390a45050565b61286c336074600084815260200190815260200160002054612ba0565b6000607460008381526020019081526020016000208190555050565b6000808273ffffffffffffffffffffffffffffffffffffffff163b119050919050565b600060019054906101000a900460ff166128fa576040517f08c379a00000000000000000000000000000000000000000000000000000000081526004016128f190614546565b60405180910390fd5b565b60008073ffffffffffffffffffffffffffffffffffffffff1661291e8361196f565b73ffffffffffffffffffffffffffffffffffffffff1614159050919050565b60007f23b872dd7302113369cda2901243429419bec145408fa8b352b3dd92b66c680b905060008185858560405160240161297a93929190614566565b604051602081830303815290604052907bffffffffffffffffffffffffffffffffffffffffffffffffffffffff19166020820180517bffffffffffffffffffffffffffffffffffffffffffffffffffffffff838183161783525050505090506000607260009054906101000a900473ffffffffffffffffffffffffffffffffffffffff1673ffffffffffffffffffffffffffffffffffffffff1682604051612a2291906145e4565b6000604051808303816000865af19150503d8060008114612a5f576040519150601f19603f3d011682016040523d82523d6000602084013e612a64565b606091505b5050905080612a9f576040517f830ab5f900000000000000000000000000000000000000000000000000000000815260040160405180910390fd5b505050505050565b6000819050919050565b6000819050919050565b612ac481612888565b612b03576040517f08c379a0000000000000000000000000000000000000000000000000000000008152600401612afa9061466d565b60405180910390fd5b80612b307f360894a13ba1a3210667c828492db98dca3e2076cc3735a920a3ca505d382bbc60001b612aa7565b60000160006101000a81548173ffffffffffffffffffffffffffffffffffffffff021916908373ffffffffffffffffffffffffffffffffffffffff16021790555050565b612b7d83612d07565b600082511180612b8a5750805b15612b9b57612b998383612d56565b505b505050565b60007fa9059cbb2ab09eb219583f4a59a5d0623ade346d962bcd4e46b11da047c9049b90506000818484604051602401612bdb92919061468d565b604051602081830303815290604052907bffffffffffffffffffffffffffffffffffffffffffffffffffffffff19166020820180517bffffffffffffffffffffffffffffffffffffffffffffffffffffffff838183161783525050505090506000607260009054906101000a900473ffffffffffffffffffffffffffffffffffffffff1673ffffffffffffffffffffffffffffffffffffffff1682604051612c8391906145e4565b6000604051808303816000865af19150503d8060008114612cc0576040519150601f19603f3d011682016040523d82523d6000602084013e612cc5565b606091505b5050905080612d00576040517f830ab5f900000000000000000000000000000000000000000000000000000000815260040160405180910390fd5b5050505050565b612d1081612abb565b8073ffffffffffffffffffffffffffffffffffffffff167fbc7cd75a20ee27fd9adebab32041f755214dbc6bffa90cc0225b39da2e5c2d3b60405160405180910390a250565b6060612d6183612888565b612da0576040517f08c379a0000000000000000000000000000000000000000000000000000000008152600401612d9790614728565b60405180910390fd5b6000808473ffffffffffffffffffffffffffffffffffffffff1684604051612dc891906145e4565b600060405180830381855af49150503d8060008114612e03576040519150601f19603f3d011682016040523d82523d6000602084013e612e08565b606091505b5091509150612e30828260405180606001604052806027815260200161474960279139612e3a565b9250505092915050565b60608315612e4a57829050612e55565b612e548383612e5c565b5b9392505050565b600082511115612e6f5781518083602001fd5b806040517f08c379a0000000000000000000000000000000000000000000000000000000008152600401612ea3919061322e565b60405180910390fd5b6000604051905090565b600080fd5b600080fd5b60007fffffffff0000000000000000000000000000000000000000000000000000000082169050919050565b612ef581612ec0565b8114612f0057600080fd5b50565b600081359050612f1281612eec565b92915050565b600060208284031215612f2e57612f2d612eb6565b5b6000612f3c84828501612f03565b91505092915050565b60008115159050919050565b612f5a81612f45565b82525050565b6000602082019050612f756000830184612f51565b92915050565b600073ffffffffffffffffffffffffffffffffffffffff82169050919050565b6000612fa682612f7b565b9050919050565b612fb681612f9b565b82525050565b6000602082019050612fd16000830184612fad565b92915050565b600080fd5b600080fd5b6000601f19601f8301169050919050565b7f4e487b7100000000000000000000000000000000000000000000000000000000600052604160045260246000fd5b61302a82612fe1565b810181811067ffffffffffffffff8211171561304957613048612ff2565b5b80604052505050565b600061305c612eac565b90506130688282613021565b919050565b600067ffffffffffffffff82111561308857613087612ff2565b5b61309182612fe1565b9050602081019050919050565b82818337600083830152505050565b60006130c06130bb8461306d565b613052565b9050828152602081018484840111156130dc576130db612fdc565b5b6130e784828561309e565b509392505050565b600082601f83011261310457613103612fd7565b5b81356131148482602086016130ad565b91505092915050565b6000819050919050565b6131308161311d565b811461313b57600080fd5b50565b60008135905061314d81613127565b92915050565b6000806040838503121561316a57613169612eb6565b5b600083013567ffffffffffffffff81111561318857613187612ebb565b5b613194858286016130ef565b92505060206131a58582860161313e565b9150509250929050565b600081519050919050565b600082825260208201905092915050565b60005b838110156131e95780820151818401526020810190506131ce565b60008484015250505050565b6000613200826131af565b61320a81856131ba565b935061321a8185602086016131cb565b61322381612fe1565b840191505092915050565b6000602082019050818103600083015261324881846131f5565b905092915050565b60006020828403121561326657613265612eb6565b5b600082013567ffffffffffffffff81111561328457613283612ebb565b5b613290848285016130ef565b91505092915050565b6000602082840312156132af576132ae612eb6565b5b60006132bd8482850161313e565b91505092915050565b6132cf81612f9b565b81146132da57600080fd5b50565b6000813590506132ec816132c6565b92915050565b6000806040838503121561330957613308612eb6565b5b6000613317858286016132dd565b92505060206133288582860161313e565b9150509250929050565b61333b8161311d565b82525050565b60006020820190506133566000830184613332565b92915050565b6000806040838503121561337357613372612eb6565b5b60006133818582860161313e565b925050602083013567ffffffffffffffff8111156133a2576133a1612ebb565b5b6133ae858286016130ef565b9150509250929050565b6000806000606084860312156133d1576133d0612eb6565b5b60006133df868287016132dd565b93505060206133f0868287016132dd565b92505060406134018682870161313e565b9150509250925092565b60006020828403121561342157613420612eb6565b5b600061342f848285016132dd565b91505092915050565b600067ffffffffffffffff82111561345357613452612ff2565b5b61345c82612fe1565b9050602081019050919050565b600061347c61347784613438565b613052565b90508281526020810184848401111561349857613497612fdc565b5b6134a384828561309e565b509392505050565b600082601f8301126134c0576134bf612fd7565b5b81356134d0848260208601613469565b91505092915050565b600080604083850312156134f0576134ef612eb6565b5b60006134fe858286016132dd565b925050602083013567ffffffffffffffff81111561351f5761351e612ebb565b5b61352b858286016134ab565b9150509250929050565b6000819050919050565b61354881613535565b82525050565b6000602082019050613563600083018461353f565b92915050565b60008060008060008060c0878903121561358657613585612eb6565b5b600061359489828a016132dd565b96505060206135a589828a016132dd565b95505060406135b689828a016132dd565b94505060606135c789828a0161313e565b935050608087013567ffffffffffffffff8111156135e8576135e7612ebb565b5b6135f489828a016130ef565b92505060a087013567ffffffffffffffff81111561361557613614612ebb565b5b61362189828a016130ef565b9150509295509295509295565b61363781612f45565b811461364257600080fd5b50565b6000813590506136548161362e565b92915050565b6000806040838503121561367157613670612eb6565b5b600061367f858286016132dd565b925050602061369085828601613645565b9150509250929050565b600080fd5b600080fd5b60008083601f8401126136ba576136b9612fd7565b5b8235905067ffffffffffffffff8111156136d7576136d661369a565b5b6020830191508360018202830111156136f3576136f261369f565b5b9250929050565b60008060008060006080868803121561371657613715612eb6565b5b6000613724888289016132dd565b9550506020613735888289016132dd565b94505060406137468882890161313e565b935050606086013567ffffffffffffffff81111561376757613766612ebb565b5b613773888289016136a4565b92509250509295509295909350565b60006040820190506137976000830185613332565b6137a46020830184612fad565b9392505050565b600080604083850312156137c2576137c1612eb6565b5b600083013567ffffffffffffffff8111156137e0576137df612ebb565b5b6137ec858286016130ef565b925050602083013567ffffffffffffffff81111561380d5761380c612ebb565b5b613819858286016130ef565b9150509250929050565b6000806040838503121561383a57613839612eb6565b5b6000613848858286016132dd565b9250506020613859858286016132dd565b9150509250929050565b7f4e487b7100000000000000000000000000000000000000000000000000000000600052601160045260246000fd5b600061389d8261311d565b91506138a88361311d565b92508282019050808211156138c0576138bf613863565b5b92915050565b7f4e487b7100000000000000000000000000000000000000000000000000000000600052602260045260246000fd5b6000600282049050600182168061390d57607f821691505b6020821081036139205761391f6138c6565b5b50919050565b7f4e4f545f415554484f52495a4544000000000000000000000000000000000000600082015250565b600061395c600e836131ba565b915061396782613926565b602082019050919050565b6000602082019050818103600083015261398b8161394f565b9050919050565b60008190508160005260206000209050919050565b60006020601f8301049050919050565b600082821b905092915050565b6000600883026139f47fffffffffffffffffffffffffffffffffffffffffffffffffffffffffffffffff826139b7565b6139fe86836139b7565b95508019841693508086168417925050509392505050565b6000819050919050565b6000613a3b613a36613a318461311d565b613a16565b61311d565b9050919050565b6000819050919050565b613a5583613a20565b613a69613a6182613a42565b8484546139c4565b825550505050565b600090565b613a7e613a71565b613a89818484613a4c565b505050565b5b81811015613aad57613aa2600082613a76565b600181019050613a8f565b5050565b601f821115613af257613ac381613992565b613acc846139a7565b81016020851015613adb578190505b613aef613ae7856139a7565b830182613a8e565b50505b505050565b600082821c905092915050565b6000613b1560001984600802613af7565b1980831691505092915050565b6000613b2e8383613b04565b9150826002028217905092915050565b613b47826131af565b67ffffffffffffffff811115613b6057613b5f612ff2565b5b613b6a82546138f5565b613b75828285613ab1565b600060209050601f831160018114613ba85760008415613b96578287015190505b613ba08582613b22565b865550613c08565b601f198416613bb686613992565b60005b82811015613bde57848901518255600182019150602085019450602081019050613bb9565b86831015613bfb5784890151613bf7601f891682613b04565b8355505b6001600288020188555050505b505050505050565b7f57524f4e475f46524f4d00000000000000000000000000000000000000000000600082015250565b6000613c46600a836131ba565b9150613c5182613c10565b602082019050919050565b60006020820190508181036000830152613c7581613c39565b9050919050565b7f494e56414c49445f524543495049454e54000000000000000000000000000000600082015250565b6000613cb26011836131ba565b9150613cbd82613c7c565b602082019050919050565b60006020820190508181036000830152613ce181613ca5565b9050919050565b7f46756e6374696f6e206d7573742062652063616c6c6564207468726f7567682060008201527f64656c656761746563616c6c0000000000000000000000000000000000000000602082015250565b6000613d44602c836131ba565b9150613d4f82613ce8565b604082019050919050565b60006020820190508181036000830152613d7381613d37565b9050919050565b7f46756e6374696f6e206d7573742062652063616c6c6564207468726f7567682060008201527f6163746976652070726f78790000000000000000000000000000000000000000602082015250565b6000613dd6602c836131ba565b9150613de182613d7a565b604082019050919050565b60006020820190508181036000830152613e0581613dc9565b9050919050565b600082825260208201905092915050565b50565b6000613e2d600083613e0c565b9150613e3882613e1d565b600082019050919050565b6000608082019050613e586000830186612fad565b613e656020830185612fad565b613e726040830184613332565b8181036060830152613e8381613e20565b9050949350505050565b600081519050613e9c81612eec565b92915050565b600060208284031215613eb857613eb7612eb6565b5b6000613ec684828501613e8d565b91505092915050565b7f554e534146455f524543495049454e5400000000000000000000000000000000600082015250565b6000613f056010836131ba565b9150613f1082613ecf565b602082019050919050565b60006020820190508181036000830152613f3481613ef8565b9050919050565b6000613f468261311d565b9150613f518361311d565b9250828203905081811115613f6957613f68613863565b5b92915050565b7f555550535570677261646561626c653a206d757374206e6f742062652063616c60008201527f6c6564207468726f7567682064656c656761746563616c6c0000000000000000602082015250565b6000613fcb6038836131ba565b9150613fd682613f6f565b604082019050919050565b60006020820190508181036000830152613ffa81613fbe565b9050919050565b7f496e697469616c697a61626c653a20636f6e747261637420697320616c72656160008201527f647920696e697469616c697a6564000000000000000000000000000000000000602082015250565b600061405d602e836131ba565b915061406882614001565b604082019050919050565b6000602082019050818103600083015261408c81614050565b9050919050565b6000819050919050565b600060ff82169050919050565b60006140c56140c06140bb84614093565b613a16565b61409d565b9050919050565b6140d5816140aa565b82525050565b60006020820190506140f060008301846140cc565b92915050565b7f4e4f545f4d494e54454400000000000000000000000000000000000000000000600082015250565b600061412c600a836131ba565b9150614137826140f6565b602082019050919050565b6000602082019050818103600083015261415b8161411f565b9050919050565b7f5a45524f5f414444524553530000000000000000000000000000000000000000600082015250565b6000614198600c836131ba565b91506141a382614162565b602082019050919050565b600060208201905081810360008301526141c78161418b565b9050919050565b60006141da8385613e0c565b93506141e783858461309e565b6141f083612fe1565b840190509392505050565b60006080820190506142106000830188612fad565b61421d6020830187612fad565b61422a6040830186613332565b818103606083015261423d8184866141ce565b90509695505050505050565b60006142548261311d565b915061425f8361311d565b925082820261426d8161311d565b9150828204841483151761428457614283613863565b5b5092915050565b7f4e487b7100000000000000000000000000000000000000000000000000000000600052601260045260246000fd5b60006142c58261311d565b91506142d08361311d565b9250826142e0576142df61428b565b5b828204905092915050565b7f414c52454144595f4d494e544544000000000000000000000000000000000000600082015250565b6000614321600e836131ba565b915061432c826142eb565b602082019050919050565b6000602082019050818103600083015261435081614314565b9050919050565b61436081613535565b811461436b57600080fd5b50565b60008151905061437d81614357565b92915050565b60006020828403121561439957614398612eb6565b5b60006143a78482850161436e565b91505092915050565b7f45524331393637557067726164653a206e657720696d706c656d656e7461746960008201527f6f6e206973206e6f742055555053000000000000000000000000000000000000602082015250565b600061440c602e836131ba565b9150614417826143b0565b604082019050919050565b6000602082019050818103600083015261443b816143ff565b9050919050565b7f45524331393637557067726164653a20756e737570706f727465642070726f7860008201527f6961626c65555549440000000000000000000000000000000000000000000000602082015250565b600061449e6029836131ba565b91506144a982614442565b604082019050919050565b600060208201905081810360008301526144cd81614491565b9050919050565b7f496e697469616c697a61626c653a20636f6e7472616374206973206e6f74206960008201527f6e697469616c697a696e67000000000000000000000000000000000000000000602082015250565b6000614530602b836131ba565b915061453b826144d4565b604082019050919050565b6000602082019050818103600083015261455f81614523565b9050919050565b600060608201905061457b6000830186612fad565b6145886020830185612fad565b6145956040830184613332565b949350505050565b600081519050919050565b600081905092915050565b60006145be8261459d565b6145c881856145a8565b93506145d88185602086016131cb565b80840191505092915050565b60006145f082846145b3565b915081905092915050565b7f455243313936373a206e657720696d706c656d656e746174696f6e206973206e60008201527f6f74206120636f6e747261637400000000000000000000000000000000000000602082015250565b6000614657602d836131ba565b9150614662826145fb565b604082019050919050565b600060208201905081810360008301526146868161464a565b9050919050565b60006040820190506146a26000830185612fad565b6146af6020830184613332565b9392505050565b7f416464726573733a2064656c65676174652063616c6c20746f206e6f6e2d636f60008201527f6e74726163740000000000000000000000000000000000000000000000000000602082015250565b60006147126026836131ba565b915061471d826146b6565b604082019050919050565b6000602082019050818103600083015261474181614705565b905091905056fe416464726573733a206c6f772d6c6576656c2064656c65676174652063616c6c206661696c6564a264697066735822122029f8bf50cfb6a366971f9905cafde3207c76c1b87eba3ebfb275fdf4a75f0dc864736f6c63430008120033608060405260405162000c5138038062000c51833981810160405281019062000029919062000580565b6200003d828260006200004560201b60201c565b5050620007d7565b62000056836200008860201b60201c565b600082511180620000645750805b156200008357620000818383620000df60201b620000371760201c565b505b505050565b62000099816200011560201b60201c565b8073ffffffffffffffffffffffffffffffffffffffff167fbc7cd75a20ee27fd9adebab32041f755214dbc6bffa90cc0225b39da2e5c2d3b60405160405180910390a250565b60606200010d838360405180606001604052806027815260200162000c2a60279139620001eb60201b60201c565b905092915050565b6200012b816200027d60201b620000641760201c565b6200016d576040517f08c379a000000000000000000000000000000000000000000000000000000000815260040162000164906200066d565b60405180910390fd5b80620001a77f360894a13ba1a3210667c828492db98dca3e2076cc3735a920a3ca505d382bbc60001b620002a060201b620000871760201c565b60000160006101000a81548173ffffffffffffffffffffffffffffffffffffffff021916908373ffffffffffffffffffffffffffffffffffffffff16021790555050565b60606000808573ffffffffffffffffffffffffffffffffffffffff1685604051620002179190620006dc565b600060405180830381855af49150503d806000811462000254576040519150601f19603f3d011682016040523d82523d6000602084013e62000259565b606091505b50915091506200027286838387620002aa60201b60201c565b925050509392505050565b6000808273ffffffffffffffffffffffffffffffffffffffff163b119050919050565b6000819050919050565b606083156200031a5760008351036200031157620002ce856200027d60201b60201c565b62000310576040517f08c379a0000000000000000000000000000000000000000000000000000000008152600401620003079062000745565b60405180910390fd5b5b8290506200032d565b6200032c83836200033560201b60201c565b5b949350505050565b600082511115620003495781518083602001fd5b806040517f08c379a00000000000000000000000000000000000000000000000000000000081526004016200037f9190620007b3565b60405180910390fd5b6000604051905090565b600080fd5b600080fd5b600073ffffffffffffffffffffffffffffffffffffffff82169050919050565b6000620003c9826200039c565b9050919050565b620003db81620003bc565b8114620003e757600080fd5b50565b600081519050620003fb81620003d0565b92915050565b600080fd5b600080fd5b6000601f19601f8301169050919050565b7f4e487b7100000000000000000000000000000000000000000000000000000000600052604160045260246000fd5b62000456826200040b565b810181811067ffffffffffffffff821117156200047857620004776200041c565b5b80604052505050565b60006200048d62000388565b90506200049b82826200044b565b919050565b600067ffffffffffffffff821115620004be57620004bd6200041c565b5b620004c9826200040b565b9050602081019050919050565b60005b83811015620004f6578082015181840152602081019050620004d9565b60008484015250505050565b6000620005196200051384620004a0565b62000481565b90508281526020810184848401111562000538576200053762000406565b5b62000545848285620004d6565b509392505050565b600082601f83011262000565576200056462000401565b5b81516200057784826020860162000502565b91505092915050565b600080604083850312156200059a576200059962000392565b5b6000620005aa85828601620003ea565b925050602083015167ffffffffffffffff811115620005ce57620005cd62000397565b5b620005dc858286016200054d565b9150509250929050565b600082825260208201905092915050565b7f455243313936373a206e657720696d706c656d656e746174696f6e206973206e60008201527f6f74206120636f6e747261637400000000000000000000000000000000000000602082015250565b600062000655602d83620005e6565b91506200066282620005f7565b604082019050919050565b60006020820190508181036000830152620006888162000646565b9050919050565b600081519050919050565b600081905092915050565b6000620006b2826200068f565b620006be81856200069a565b9350620006d0818560208601620004d6565b80840191505092915050565b6000620006ea8284620006a5565b915081905092915050565b7f416464726573733a2063616c6c20746f206e6f6e2d636f6e7472616374000000600082015250565b60006200072d601d83620005e6565b91506200073a82620006f5565b602082019050919050565b6000602082019050818103600083015262000760816200071e565b9050919050565b600081519050919050565b60006200077f8262000767565b6200078b8185620005e6565b93506200079d818560208601620004d6565b620007a8816200040b565b840191505092915050565b60006020820190508181036000830152620007cf818462000772565b905092915050565b61044380620007e76000396000f3fe6080604052366100135761001161001d565b005b61001b61001d565b005b610025610091565b610035610030610093565b6100a2565b565b606061005c83836040518060600160405280602781526020016103e7602791396100c8565b905092915050565b6000808273ffffffffffffffffffffffffffffffffffffffff163b119050919050565b6000819050919050565b565b600061009d61014e565b905090565b3660008037600080366000845af43d6000803e80600081146100c3573d6000f35b3d6000fd5b60606000808573ffffffffffffffffffffffffffffffffffffffff16856040516100f291906102db565b600060405180830381855af49150503d806000811461012d576040519150601f19603f3d011682016040523d82523d6000602084013e610132565b606091505b5091509150610143868383876101a5565b925050509392505050565b600061017c7f360894a13ba1a3210667c828492db98dca3e2076cc3735a920a3ca505d382bbc60001b610087565b60000160009054906101000a900473ffffffffffffffffffffffffffffffffffffffff16905090565b606083156102075760008351036101ff576101bf85610064565b6101fe576040517f08c379a00000000000000000000000000000000000000000000000000000000081526004016101f59061034f565b60405180910390fd5b5b829050610212565b610211838361021a565b5b949350505050565b60008251111561022d5781518083602001fd5b806040517f08c379a000000000000000000000000000000000000000000000000000000000815260040161026191906103c4565b60405180910390fd5b600081519050919050565b600081905092915050565b60005b8381101561029e578082015181840152602081019050610283565b60008484015250505050565b60006102b58261026a565b6102bf8185610275565b93506102cf818560208601610280565b80840191505092915050565b60006102e782846102aa565b915081905092915050565b600082825260208201905092915050565b7f416464726573733a2063616c6c20746f206e6f6e2d636f6e7472616374000000600082015250565b6000610339601d836102f2565b915061034482610303565b602082019050919050565b600060208201905081810360008301526103688161032c565b9050919050565b600081519050919050565b6000601f19601f8301169050919050565b60006103968261036f565b6103a081856102f2565b93506103b0818560208601610280565b6103b98161037a565b840191505092915050565b600060208201905081810360008301526103de818461038b565b90509291505056fe416464726573733a206c6f772d6c6576656c2064656c65676174652063616c6c206661696c6564a26469706673582212202321a362273fbe14eb135551ea4a6b9d941fd4e2086c344c380c35622a53412364736f6c63430008120033416464726573733a206c6f772d6c6576656c2064656c65676174652063616c6c206661696c6564a2646970667358221220e907b389ed1809b9d3f126d4ace9c50e87ed44e5c67c15d23994d7c38e03bef664736f6c63430008120033",
  "devdoc": {
    "kind": "dev",
    "methods": {},
    "version": 1
  },
  "userdoc": {
    "kind": "user",
    "methods": {},
    "version": 1
  },
  "storageLayout": {
    "storage": [],
    "types": null
  }
}