{
  "address": "0x85e35a884774757B252B83EB1e33AbA625A8B71b",
  "abi": [
    {
      "inputs": [
        {
          "internalType": "address",
          "name": "_admin",
          "type": "address"
        }
      ],
      "stateMutability": "nonpayable",
      "type": "constructor"
    },
    {
      "inputs": [],
      "name": "MXCCollectionFactory__NotAdmin",
      "type": "error"
    },
    {
      "inputs": [],
      "name": "MXCCollectionFactory__NotFound",
      "type": "error"
    },
    {
      "inputs": [],
      "name": "MXCCollectionFactory__NotOwner",
      "type": "error"
    },
    {
      "anonymous": false,
      "inputs": [
        {
          "indexed": true,
          "internalType": "address",
          "name": "collectionAddress",
          "type": "address"
        },
        {
          "indexed": true,
          "internalType": "address",
          "name": "owner",
          "type": "address"
        }
      ],
      "name": "delCollectionEvent",
      "type": "event"
    },
    {
      "anonymous": false,
      "inputs": [
        {
          "indexed": true,
          "internalType": "address",
          "name": "collectionAddress",
          "type": "address"
        },
        {
          "indexed": true,
          "internalType": "address",
          "name": "owner",
          "type": "address"
        }
      ],
      "name": "editCollectionEvent",
      "type": "event"
    },
    {
      "anonymous": false,
      "inputs": [
        {
          "indexed": true,
          "internalType": "address",
          "name": "collectionAddress",
          "type": "address"
        },
        {
          "indexed": true,
          "internalType": "address",
          "name": "owner",
          "type": "address"
        }
      ],
      "name": "newCollectionEvent",
      "type": "event"
    },
    {
      "inputs": [],
      "name": "admin",
      "outputs": [
        {
          "internalType": "address",
          "name": "",
          "type": "address"
        }
      ],
      "stateMutability": "view",
      "type": "function"
    },
    {
      "inputs": [
        {
          "internalType": "uint256",
          "name": "",
          "type": "uint256"
        }
      ],
      "name": "collections",
      "outputs": [
        {
          "internalType": "string",
          "name": "ipfs",
          "type": "string"
        },
        {
          "internalType": "address",
          "name": "owner",
          "type": "address"
        },
        {
          "internalType": "address",
          "name": "collection",
          "type": "address"
        },
        {
          "internalType": "bool",
          "name": "isCert",
          "type": "bool"
        }
      ],
      "stateMutability": "view",
      "type": "function"
    },
    {
      "inputs": [
        {
          "internalType": "string",
          "name": "_name",
          "type": "string"
        },
        {
          "internalType": "string",
          "name": "_symbol",
          "type": "string"
        },
        {
          "internalType": "uint256",
          "name": "_royaltiesCutPerMillion",
          "type": "uint256"
        },
        {
          "internalType": "address",
          "name": "_royaltyRecipient",
          "type": "address"
        },
        {
          "internalType": "string",
          "name": "_ipfs",
          "type": "string"
        }
      ],
      "name": "createCollection",
      "outputs": [
        {
          "internalType": "address",
          "name": "",
          "type": "address"
        }
      ],
      "stateMutability": "nonpayable",
      "type": "function"
    },
    {
      "inputs": [
        {
          "internalType": "address",
          "name": "_collection",
          "type": "address"
        }
      ],
      "name": "delCollection",
      "outputs": [
        {
          "internalType": "address",
          "name": "",
          "type": "address"
        }
      ],
      "stateMutability": "nonpayable",
      "type": "function"
    },
    {
      "inputs": [
        {
          "internalType": "address",
          "name": "_collection",
          "type": "address"
        },
        {
          "internalType": "string",
          "name": "_ipfs",
          "type": "string"
        }
      ],
      "name": "editCollection",
      "outputs": [],
      "stateMutability": "nonpayable",
      "type": "function"
    },
    {
      "inputs": [
        {
          "internalType": "address",
          "name": "_collection",
          "type": "address"
        }
      ],
      "name": "fetchCollection",
      "outputs": [
        {
          "components": [
            {
              "internalType": "string",
              "name": "ipfs",
              "type": "string"
            },
            {
              "internalType": "address",
              "name": "owner",
              "type": "address"
            },
            {
              "internalType": "address",
              "name": "collection",
              "type": "address"
            },
            {
              "internalType": "bool",
              "name": "isCert",
              "type": "bool"
            }
          ],
          "internalType": "struct MXCCollectionFactory.MXCCollectionData",
          "name": "",
          "type": "tuple"
        }
      ],
      "stateMutability": "view",
      "type": "function"
    },
    {
      "inputs": [],
      "name": "fetchCollections",
      "outputs": [
        {
          "components": [
            {
              "internalType": "string",
              "name": "ipfs",
              "type": "string"
            },
            {
              "internalType": "address",
              "name": "owner",
              "type": "address"
            },
            {
              "internalType": "address",
              "name": "collection",
              "type": "address"
            },
            {
              "internalType": "bool",
              "name": "isCert",
              "type": "bool"
            }
          ],
          "internalType": "struct MXCCollectionFactory.MXCCollectionData[]",
          "name": "",
          "type": "tuple[]"
        }
      ],
      "stateMutability": "view",
      "type": "function"
    },
    {
      "inputs": [],
      "name": "fetchCollectionsLength",
      "outputs": [
        {
          "internalType": "uint256",
          "name": "",
          "type": "uint256"
        }
      ],
      "stateMutability": "view",
      "type": "function"
    },
    {
      "inputs": [
        {
          "internalType": "address",
          "name": "_user",
          "type": "address"
        }
      ],
      "name": "fetchUserCollections",
      "outputs": [
        {
          "components": [
            {
              "internalType": "string",
              "name": "ipfs",
              "type": "string"
            },
            {
              "internalType": "address",
              "name": "owner",
              "type": "address"
            },
            {
              "internalType": "address",
              "name": "collection",
              "type": "address"
            },
            {
              "internalType": "bool",
              "name": "isCert",
              "type": "bool"
            }
          ],
          "internalType": "struct MXCCollectionFactory.MXCCollectionData[]",
          "name": "",
          "type": "tuple[]"
        }
      ],
      "stateMutability": "view",
      "type": "function"
    },
    {
      "inputs": [
        {
          "internalType": "address",
          "name": "_collection",
          "type": "address"
        },
        {
          "internalType": "bool",
          "name": "_isCert",
          "type": "bool"
        }
      ],
      "name": "setCertification",
      "outputs": [],
      "stateMutability": "nonpayable",
      "type": "function"
    }
  ],
  "transactionHash": "0xfddeeab8b510369d89d314298dba896f5d0a7b46846b6c9d0dddee2630dcdf2e",
  "args": [
    "0x45A83F015D0265800CBC0dACe1c430E724D49cAc"
  ],
  "numDeployments": 1,
  "solcInputHash": "b2afc45876227a79cb4140755a67c68c",
  "bytecode": "0x60806040523480156200001157600080fd5b506040516200510e3803806200510e8339818101604052810190620000379190620000e8565b806000806101000a81548173ffffffffffffffffffffffffffffffffffffffff021916908373ffffffffffffffffffffffffffffffffffffffff160217905550506200011a565b600080fd5b600073ffffffffffffffffffffffffffffffffffffffff82169050919050565b6000620000b08262000083565b9050919050565b620000c281620000a3565b8114620000ce57600080fd5b50565b600081519050620000e281620000b7565b92915050565b6000602082840312156200010157620001006200007e565b5b60006200011184828501620000d1565b91505092915050565b614fe4806200012a6000396000f3fe60806040523480156200001157600080fd5b5060043610620000ac5760003560e01c8063d2ead4cb116200006f578063d2ead4cb1462000193578063e095650f14620001b5578063e469d81114620001eb578063f851a440146200020d578063fdbda0ec146200022f57620000ac565b80632ac9a80214620000b15780633ea321a414620000e7578063436befb21462000107578063841189ae14620001275780638d716145146200015d575b600080fd5b620000cf6004803603810190620000c99190620015fb565b62000268565b604051620000de919062001830565b60405180910390f35b620001056004803603810190620000ff9190620019a5565b62000513565b005b6200012560048036038101906200011f919062001a3c565b62000702565b005b6200014560048036038101906200013f9190620015fb565b62000877565b60405162000154919062001a94565b60405180910390f35b6200017b6004803603810190620001759190620015fb565b62000c82565b6040516200018a919062001b1c565b60405180910390f35b6200019d62000f3a565b604051620001ac919062001830565b60405180910390f35b620001d36004803603810190620001cd919062001b7b565b620010fc565b604051620001e2919062001a94565b60405180910390f35b620001f56200136a565b60405162000204919062001c71565b60405180910390f35b6200021762001377565b60405162000226919062001a94565b60405180910390f35b6200024d600480360381019062000247919062001c8e565b6200139b565b6040516200025f949392919062001d23565b60405180910390f35b60606000600260008473ffffffffffffffffffffffffffffffffffffffff1673ffffffffffffffffffffffffffffffffffffffff16815260200190815260200160002090506000818054905067ffffffffffffffff811115620002d057620002cf6200185e565b5b6040519080825280602002602001820160405280156200030d57816020015b620002f9620014b9565b815260200190600190039081620002ef5790505b50905060005b82805490508110156200050857600183828154811062000338576200033762001d77565b5b90600052602060002001548154811062000357576200035662001d77565b5b9060005260206000209060030201604051806080016040529081600082018054620003829062001dd5565b80601f0160208091040260200160405190810160405280929190818152602001828054620003b09062001dd5565b8015620004015780601f10620003d55761010080835404028352916020019162000401565b820191906000526020600020905b815481529060010190602001808311620003e357829003601f168201915b505050505081526020016001820160009054906101000a900473ffffffffffffffffffffffffffffffffffffffff1673ffffffffffffffffffffffffffffffffffffffff1673ffffffffffffffffffffffffffffffffffffffff1681526020016002820160009054906101000a900473ffffffffffffffffffffffffffffffffffffffff1673ffffffffffffffffffffffffffffffffffffffff1673ffffffffffffffffffffffffffffffffffffffff1681526020016002820160149054906101000a900460ff161515151581525050828281518110620004e757620004e662001d77565b5b60200260200101819052508080620004ff9062001e39565b91505062000313565b508092505050919050565b60005b600180549050811015620006fd578273ffffffffffffffffffffffffffffffffffffffff166001828154811062000552576200055162001d77565b5b906000526020600020906003020160020160009054906101000a900473ffffffffffffffffffffffffffffffffffffffff1673ffffffffffffffffffffffffffffffffffffffff1603620006e7573373ffffffffffffffffffffffffffffffffffffffff1660018281548110620005ce57620005cd62001d77565b5b906000526020600020906003020160010160009054906101000a900473ffffffffffffffffffffffffffffffffffffffff1673ffffffffffffffffffffffffffffffffffffffff16146200064e576040517f3cb2ab8b00000000000000000000000000000000000000000000000000000000815260040160405180910390fd5b60006001828154811062000667576200066662001d77565b5b90600052602060002090600302019050828160000190816200068a919062002058565b503373ffffffffffffffffffffffffffffffffffffffff168473ffffffffffffffffffffffffffffffffffffffff167fc3192244edff9585106fa1032d387b4f8ace7c7fb7ce8f1e8291900505e2c2fc60405160405180910390a3505b8080620006f49062001e39565b91505062000516565b505050565b60008054906101000a900473ffffffffffffffffffffffffffffffffffffffff1673ffffffffffffffffffffffffffffffffffffffff163373ffffffffffffffffffffffffffffffffffffffff161462000788576040517fa329e24000000000000000000000000000000000000000000000000000000000815260040160405180910390fd5b60005b60018054905081101562000872578273ffffffffffffffffffffffffffffffffffffffff1660018281548110620007c757620007c662001d77565b5b906000526020600020906003020160020160009054906101000a900473ffffffffffffffffffffffffffffffffffffffff1673ffffffffffffffffffffffffffffffffffffffff16036200085c576000600182815481106200082e576200082d62001d77565b5b90600052602060002090600302019050828160020160146101000a81548160ff021916908315150217905550505b8080620008699062001e39565b9150506200078b565b505050565b600080600090505b60018054905081101562000c4a57600060018281548110620008a657620008a562001d77565b5b906000526020600020906003020160020160009054906101000a900473ffffffffffffffffffffffffffffffffffffffff1690508373ffffffffffffffffffffffffffffffffffffffff168173ffffffffffffffffffffffffffffffffffffffff160362000c33573373ffffffffffffffffffffffffffffffffffffffff16600183815481106200093c576200093b62001d77565b5b906000526020600020906003020160010160009054906101000a900473ffffffffffffffffffffffffffffffffffffffff1673ffffffffffffffffffffffffffffffffffffffff1614620009bc576040517f3cb2ab8b00000000000000000000000000000000000000000000000000000000815260040160405180910390fd5b6001808080549050620009d091906200213f565b81548110620009e457620009e362001d77565b5b90600052602060002090600302016001838154811062000a095762000a0862001d77565b5b90600052602060002090600302016000820181600001908162000a2d919062002192565b506001820160009054906101000a900473ffffffffffffffffffffffffffffffffffffffff168160010160006101000a81548173ffffffffffffffffffffffffffffffffffffffff021916908373ffffffffffffffffffffffffffffffffffffffff1602179055506002820160009054906101000a900473ffffffffffffffffffffffffffffffffffffffff168160020160006101000a81548173ffffffffffffffffffffffffffffffffffffffff021916908373ffffffffffffffffffffffffffffffffffffffff1602179055506002820160149054906101000a900460ff168160020160146101000a81548160ff021916908315150217905550905050600180548062000b415762000b4062002293565b5b60019003818190600052602060002090600302016000808201600062000b6891906200150f565b6001820160006101000a81549073ffffffffffffffffffffffffffffffffffffffff02191690556002820160006101000a81549073ffffffffffffffffffffffffffffffffffffffff02191690556002820160146101000a81549060ff0219169055505090553373ffffffffffffffffffffffffffffffffffffffff168173ffffffffffffffffffffffffffffffffffffffff167fd4d21ee9d917784b20633b4343362644455a540ddd4ba537b68cca374cf3630760405160405180910390a3809250505062000c7d565b50808062000c419062001e39565b9150506200087f565b506040517f54889a3400000000000000000000000000000000000000000000000000000000815260040160405180910390fd5b919050565b62000c8c620014b9565b60005b60018054905081101562000ed05760006001828154811062000cb65762000cb562001d77565b5b906000526020600020906003020160020160009054906101000a900473ffffffffffffffffffffffffffffffffffffffff1690508373ffffffffffffffffffffffffffffffffffffffff168173ffffffffffffffffffffffffffffffffffffffff160362000eb9576001828154811062000d355762000d3462001d77565b5b906000526020600020906003020160405180608001604052908160008201805462000d609062001dd5565b80601f016020809104026020016040519081016040528092919081815260200182805462000d8e9062001dd5565b801562000ddf5780601f1062000db35761010080835404028352916020019162000ddf565b820191906000526020600020905b81548152906001019060200180831162000dc157829003601f168201915b505050505081526020016001820160009054906101000a900473ffffffffffffffffffffffffffffffffffffffff1673ffffffffffffffffffffffffffffffffffffffff1673ffffffffffffffffffffffffffffffffffffffff1681526020016002820160009054906101000a900473ffffffffffffffffffffffffffffffffffffffff1673ffffffffffffffffffffffffffffffffffffffff1673ffffffffffffffffffffffffffffffffffffffff1681526020016002820160149054906101000a900460ff1615151515815250509250505062000f35565b50808062000ec79062001e39565b91505062000c8f565b506040518060800160405280604051806020016040528060008152508152602001600073ffffffffffffffffffffffffffffffffffffffff168152602001600073ffffffffffffffffffffffffffffffffffffffff1681526020016000151581525090505b919050565b60606001805480602002602001604051908101604052809291908181526020016000905b82821015620010f3578382906000526020600020906003020160405180608001604052908160008201805462000f949062001dd5565b80601f016020809104026020016040519081016040528092919081815260200182805462000fc29062001dd5565b8015620010135780601f1062000fe75761010080835404028352916020019162001013565b820191906000526020600020905b81548152906001019060200180831162000ff557829003601f168201915b505050505081526020016001820160009054906101000a900473ffffffffffffffffffffffffffffffffffffffff1673ffffffffffffffffffffffffffffffffffffffff1673ffffffffffffffffffffffffffffffffffffffff1681526020016002820160009054906101000a900473ffffffffffffffffffffffffffffffffffffffff1673ffffffffffffffffffffffffffffffffffffffff1673ffffffffffffffffffffffffffffffffffffffff1681526020016002820160149054906101000a900460ff1615151515815250508152602001906001019062000f5e565b50505050905090565b6000803384868989604051620011129062001555565b62001122959493929190620022c2565b604051809103906000f0801580156200113f573d6000803e3d6000fd5b509050600160405180608001604052808581526020013373ffffffffffffffffffffffffffffffffffffffff1681526020018373ffffffffffffffffffffffffffffffffffffffff1681526020016000151581525090806001815401808255809150506001900390600052602060002090600302016000909190919091506000820151816000019081620011d4919062002058565b5060208201518160010160006101000a81548173ffffffffffffffffffffffffffffffffffffffff021916908373ffffffffffffffffffffffffffffffffffffffff16021790555060408201518160020160006101000a81548173ffffffffffffffffffffffffffffffffffffffff021916908373ffffffffffffffffffffffffffffffffffffffff16021790555060608201518160020160146101000a81548160ff02191690831515021790555050506000600180805490506200129a91906200213f565b9050600260003373ffffffffffffffffffffffffffffffffffffffff1673ffffffffffffffffffffffffffffffffffffffff1681526020019081526020016000208190806001815401808255809150506001900390600052602060002001600090919091909150553373ffffffffffffffffffffffffffffffffffffffff168273ffffffffffffffffffffffffffffffffffffffff167ff59ec64249a367b8002b16800479bbc232553e6b3a132735ac8f9ca67d82cc9a60405160405180910390a3819250505095945050505050565b6000600180549050905090565b60008054906101000a900473ffffffffffffffffffffffffffffffffffffffff1681565b60018181548110620013ac57600080fd5b9060005260206000209060030201600091509050806000018054620013d19062001dd5565b80601f0160208091040260200160405190810160405280929190818152602001828054620013ff9062001dd5565b8015620014505780601f10620014245761010080835404028352916020019162001450565b820191906000526020600020905b8154815290600101906020018083116200143257829003601f168201915b5050505050908060010160009054906101000a900473ffffffffffffffffffffffffffffffffffffffff16908060020160009054906101000a900473ffffffffffffffffffffffffffffffffffffffff16908060020160149054906101000a900460ff16905084565b604051806080016040528060608152602001600073ffffffffffffffffffffffffffffffffffffffff168152602001600073ffffffffffffffffffffffffffffffffffffffff1681526020016000151581525090565b5080546200151d9062001dd5565b6000825580601f1062001531575062001552565b601f01602090049060005260206000209081019062001551919062001563565b5b50565b612c81806200232e83390190565b5b808211156200157e57600081600090555060010162001564565b5090565b6000604051905090565b600080fd5b600080fd5b600073ffffffffffffffffffffffffffffffffffffffff82169050919050565b6000620015c38262001596565b9050919050565b620015d581620015b6565b8114620015e157600080fd5b50565b600081359050620015f581620015ca565b92915050565b6000602082840312156200161457620016136200158c565b5b60006200162484828501620015e4565b91505092915050565b600081519050919050565b600082825260208201905092915050565b6000819050602082019050919050565b600081519050919050565b600082825260208201905092915050565b60005b838110156200169557808201518184015260208101905062001678565b60008484015250505050565b6000601f19601f8301169050919050565b6000620016bf8262001659565b620016cb818562001664565b9350620016dd81856020860162001675565b620016e881620016a1565b840191505092915050565b620016fe81620015b6565b82525050565b60008115159050919050565b6200171b8162001704565b82525050565b60006080830160008301518482036000860152620017408282620016b2565b9150506020830151620017576020860182620016f3565b5060408301516200176c6040860182620016f3565b50606083015162001781606086018262001710565b508091505092915050565b60006200179a838362001721565b905092915050565b6000602082019050919050565b6000620017bc826200162d565b620017c8818562001638565b935083602082028501620017dc8562001649565b8060005b858110156200181e5784840389528151620017fc85826200178c565b94506200180983620017a2565b925060208a01995050600181019050620017e0565b50829750879550505050505092915050565b600060208201905081810360008301526200184c8184620017af565b905092915050565b600080fd5b600080fd5b7f4e487b7100000000000000000000000000000000000000000000000000000000600052604160045260246000fd5b6200189882620016a1565b810181811067ffffffffffffffff82111715620018ba57620018b96200185e565b5b80604052505050565b6000620018cf62001582565b9050620018dd82826200188d565b919050565b600067ffffffffffffffff8211156200190057620018ff6200185e565b5b6200190b82620016a1565b9050602081019050919050565b82818337600083830152505050565b60006200193e6200193884620018e2565b620018c3565b9050828152602081018484840111156200195d576200195c62001859565b5b6200196a84828562001918565b509392505050565b600082601f8301126200198a576200198962001854565b5b81356200199c84826020860162001927565b91505092915050565b60008060408385031215620019bf57620019be6200158c565b5b6000620019cf85828601620015e4565b925050602083013567ffffffffffffffff811115620019f357620019f262001591565b5b62001a018582860162001972565b9150509250929050565b62001a168162001704565b811462001a2257600080fd5b50565b60008135905062001a368162001a0b565b92915050565b6000806040838503121562001a565762001a556200158c565b5b600062001a6685828601620015e4565b925050602062001a798582860162001a25565b9150509250929050565b62001a8e81620015b6565b82525050565b600060208201905062001aab600083018462001a83565b92915050565b6000608083016000830151848203600086015262001ad08282620016b2565b915050602083015162001ae76020860182620016f3565b50604083015162001afc6040860182620016f3565b50606083015162001b11606086018262001710565b508091505092915050565b6000602082019050818103600083015262001b38818462001ab1565b905092915050565b6000819050919050565b62001b558162001b40565b811462001b6157600080fd5b50565b60008135905062001b758162001b4a565b92915050565b600080600080600060a0868803121562001b9a5762001b996200158c565b5b600086013567ffffffffffffffff81111562001bbb5762001bba62001591565b5b62001bc98882890162001972565b955050602086013567ffffffffffffffff81111562001bed5762001bec62001591565b5b62001bfb8882890162001972565b945050604062001c0e8882890162001b64565b935050606062001c2188828901620015e4565b925050608086013567ffffffffffffffff81111562001c455762001c4462001591565b5b62001c538882890162001972565b9150509295509295909350565b62001c6b8162001b40565b82525050565b600060208201905062001c88600083018462001c60565b92915050565b60006020828403121562001ca75762001ca66200158c565b5b600062001cb78482850162001b64565b91505092915050565b600082825260208201905092915050565b600062001cde8262001659565b62001cea818562001cc0565b935062001cfc81856020860162001675565b62001d0781620016a1565b840191505092915050565b62001d1d8162001704565b82525050565b6000608082019050818103600083015262001d3f818762001cd1565b905062001d50602083018662001a83565b62001d5f604083018562001a83565b62001d6e606083018462001d12565b95945050505050565b7f4e487b7100000000000000000000000000000000000000000000000000000000600052603260045260246000fd5b7f4e487b7100000000000000000000000000000000000000000000000000000000600052602260045260246000fd5b6000600282049050600182168062001dee57607f821691505b60208210810362001e045762001e0362001da6565b5b50919050565b7f4e487b7100000000000000000000000000000000000000000000000000000000600052601160045260246000fd5b600062001e468262001b40565b91507fffffffffffffffffffffffffffffffffffffffffffffffffffffffffffffffff820362001e7b5762001e7a62001e0a565b5b600182019050919050565b60008190508160005260206000209050919050565b60006020601f8301049050919050565b600082821b905092915050565b60006008830262001eea7fffffffffffffffffffffffffffffffffffffffffffffffffffffffffffffffff8262001eab565b62001ef6868362001eab565b95508019841693508086168417925050509392505050565b6000819050919050565b600062001f3962001f3362001f2d8462001b40565b62001f0e565b62001b40565b9050919050565b6000819050919050565b62001f558362001f18565b62001f6d62001f648262001f40565b84845462001eb8565b825550505050565b600090565b62001f8462001f75565b62001f9181848462001f4a565b505050565b5b8181101562001fb95762001fad60008262001f7a565b60018101905062001f97565b5050565b601f821115620020085762001fd28162001e86565b62001fdd8462001e9b565b8101602085101562001fed578190505b6200200562001ffc8562001e9b565b83018262001f96565b50505b505050565b600082821c905092915050565b60006200202d600019846008026200200d565b1980831691505092915050565b60006200204883836200201a565b9150826002028217905092915050565b620020638262001659565b67ffffffffffffffff8111156200207f576200207e6200185e565b5b6200208b825462001dd5565b6200209882828562001fbd565b600060209050601f831160018114620020d05760008415620020bb578287015190505b620020c785826200203a565b86555062002137565b601f198416620020e08662001e86565b60005b828110156200210a57848901518255600182019150602085019450602081019050620020e3565b868310156200212a578489015162002126601f8916826200201a565b8355505b6001600288020188555050505b505050505050565b60006200214c8262001b40565b9150620021598362001b40565b925082820390508181111562002174576200217362001e0a565b5b92915050565b6000815490506200218b8162001dd5565b9050919050565b818103620021a257505062002291565b620021ad826200217a565b67ffffffffffffffff811115620021c957620021c86200185e565b5b620021d5825462001dd5565b620021e282828562001fbd565b6000601f83116001811462002216576000841562002201578287015490505b6200220d85826200203a565b8655506200228a565b601f198416620022268762001e86565b9650620022338662001e86565b60005b828110156200225d5784890154825560018201915060018501945060208101905062002236565b868310156200227d578489015462002279601f8916826200201a565b8355505b6001600288020188555050505b5050505050505b565b7f4e487b7100000000000000000000000000000000000000000000000000000000600052603160045260246000fd5b600060a082019050620022d9600083018862001a83565b620022e8602083018762001a83565b620022f7604083018662001c60565b81810360608301526200230b818562001cd1565b9050818103608083015262002321818462001cd1565b9050969550505050505056fe60806040523480156200001157600080fd5b5060405162002c8138038062002c81833981810160405281019062000037919062000326565b818181600090816200004a91906200062d565b5080600190816200005c91906200062d565b5050508260098190555083600a60006101000a81548173ffffffffffffffffffffffffffffffffffffffff021916908373ffffffffffffffffffffffffffffffffffffffff16021790555084600b60006101000a81548173ffffffffffffffffffffffffffffffffffffffff021916908373ffffffffffffffffffffffffffffffffffffffff160217905550505050505062000714565b6000604051905090565b600080fd5b600080fd5b600073ffffffffffffffffffffffffffffffffffffffff82169050919050565b6000620001348262000107565b9050919050565b620001468162000127565b81146200015257600080fd5b50565b60008151905062000166816200013b565b92915050565b6000819050919050565b62000181816200016c565b81146200018d57600080fd5b50565b600081519050620001a18162000176565b92915050565b600080fd5b600080fd5b6000601f19601f8301169050919050565b7f4e487b7100000000000000000000000000000000000000000000000000000000600052604160045260246000fd5b620001fc82620001b1565b810181811067ffffffffffffffff821117156200021e576200021d620001c2565b5b80604052505050565b600062000233620000f3565b9050620002418282620001f1565b919050565b600067ffffffffffffffff821115620002645762000263620001c2565b5b6200026f82620001b1565b9050602081019050919050565b60005b838110156200029c5780820151818401526020810190506200027f565b60008484015250505050565b6000620002bf620002b98462000246565b62000227565b905082815260208101848484011115620002de57620002dd620001ac565b5b620002eb8482856200027c565b509392505050565b600082601f8301126200030b576200030a620001a7565b5b81516200031d848260208601620002a8565b91505092915050565b600080600080600060a08688031215620003455762000344620000fd565b5b6000620003558882890162000155565b9550506020620003688882890162000155565b94505060406200037b8882890162000190565b935050606086015167ffffffffffffffff8111156200039f576200039e62000102565b5b620003ad88828901620002f3565b925050608086015167ffffffffffffffff811115620003d157620003d062000102565b5b620003df88828901620002f3565b9150509295509295909350565b600081519050919050565b7f4e487b7100000000000000000000000000000000000000000000000000000000600052602260045260246000fd5b600060028204905060018216806200043f57607f821691505b602082108103620004555762000454620003f7565b5b50919050565b60008190508160005260206000209050919050565b60006020601f8301049050919050565b600082821b905092915050565b600060088302620004bf7fffffffffffffffffffffffffffffffffffffffffffffffffffffffffffffffff8262000480565b620004cb868362000480565b95508019841693508086168417925050509392505050565b6000819050919050565b60006200050e6200050862000502846200016c565b620004e3565b6200016c565b9050919050565b6000819050919050565b6200052a83620004ed565b62000542620005398262000515565b8484546200048d565b825550505050565b600090565b620005596200054a565b620005668184846200051f565b505050565b5b818110156200058e57620005826000826200054f565b6001810190506200056c565b5050565b601f821115620005dd57620005a7816200045b565b620005b28462000470565b81016020851015620005c2578190505b620005da620005d18562000470565b8301826200056b565b50505b505050565b600082821c905092915050565b60006200060260001984600802620005e2565b1980831691505092915050565b60006200061d8383620005ef565b9150826002028217905092915050565b6200063882620003ec565b67ffffffffffffffff811115620006545762000653620001c2565b5b62000660825462000426565b6200066d82828562000592565b600060209050601f831160018114620006a5576000841562000690578287015190505b6200069c85826200060f565b8655506200070c565b601f198416620006b5866200045b565b60005b82811015620006df57848901518255600182019150602085019450602081019050620006b8565b86831015620006ff5784890151620006fb601f891682620005ef565b8355505b6001600288020188555050505b505050505050565b61255d80620007246000396000f3fe608060405234801561001057600080fd5b506004361061012c5760003560e01c80636352211e116100ad578063c87b56dd11610071578063c87b56dd1461032f578063ce2243b41461035f578063cef6d3681461037d578063d85d3d27146103ae578063e985e9c5146103ca5761012c565b80636352211e1461027957806370a08231146102a957806395d89b41146102d9578063a22cb465146102f7578063b88d4fde146103135761012c565b8063162094c4116100f4578063162094c4146101e957806318160ddd1461020557806323b872dd14610223578063343def021461023f57806342842e0e1461025d5761012c565b806301ffc9a71461013157806302d05d3f1461016157806306fdde031461017f578063081812fc1461019d578063095ea7b3146101cd575b600080fd5b61014b60048036038101906101469190611691565b6103fa565b60405161015891906116d9565b60405180910390f35b61016961048c565b6040516101769190611735565b60405180910390f35b6101876104b2565b60405161019491906117e0565b60405180910390f35b6101b760048036038101906101b29190611838565b610540565b6040516101c49190611735565b60405180910390f35b6101e760048036038101906101e29190611891565b610573565b005b61020360048036038101906101fe9190611a06565b61075c565b005b61020d6107f4565b60405161021a9190611a71565b60405180910390f35b61023d60048036038101906102389190611a8c565b6107fa565b005b610247610bf9565b6040516102549190611735565b60405180910390f35b61027760048036038101906102729190611a8c565b610c1f565b005b610293600480360381019061028e9190611838565b610d57565b6040516102a09190611735565b60405180910390f35b6102c360048036038101906102be9190611adf565b610e02565b6040516102d09190611a71565b60405180910390f35b6102e1610eb9565b6040516102ee91906117e0565b60405180910390f35b610311600480360381019061030c9190611b38565b610f47565b005b61032d60048036038101906103289190611bd8565b611044565b005b61034960048036038101906103449190611838565b611182565b60405161035691906117e0565b60405180910390f35b610367611266565b6040516103749190611a71565b60405180910390f35b61039760048036038101906103929190611838565b61126c565b6040516103a5929190611c60565b60405180910390f35b6103c860048036038101906103c39190611c89565b6112ce565b005b6103e460048036038101906103df9190611cd2565b6113a3565b6040516103f191906116d9565b60405180910390f35b60006301ffc9a760e01b827bffffffffffffffffffffffffffffffffffffffffffffffffffffffff1916148061045557506380ac58cd60e01b827bffffffffffffffffffffffffffffffffffffffffffffffffffffffff1916145b806104855750635b5e139f60e01b827bffffffffffffffffffffffffffffffffffffffffffffffffffffffff1916145b9050919050565b600b60009054906101000a900473ffffffffffffffffffffffffffffffffffffffff1681565b600080546104bf90611d41565b80601f01602080910402602001604051908101604052809291908181526020018280546104eb90611d41565b80156105385780601f1061050d57610100808354040283529160200191610538565b820191906000526020600020905b81548152906001019060200180831161051b57829003601f168201915b505050505081565b60046020528060005260406000206000915054906101000a900473ffffffffffffffffffffffffffffffffffffffff1681565b60006002600083815260200190815260200160002060009054906101000a900473ffffffffffffffffffffffffffffffffffffffff1690508073ffffffffffffffffffffffffffffffffffffffff163373ffffffffffffffffffffffffffffffffffffffff16148061066b5750600560008273ffffffffffffffffffffffffffffffffffffffff1673ffffffffffffffffffffffffffffffffffffffff16815260200190815260200160002060003373ffffffffffffffffffffffffffffffffffffffff1673ffffffffffffffffffffffffffffffffffffffff16815260200190815260200160002060009054906101000a900460ff165b6106aa576040517f08c379a00000000000000000000000000000000000000000000000000000000081526004016106a190611dbe565b60405180910390fd5b826004600084815260200190815260200160002060006101000a81548173ffffffffffffffffffffffffffffffffffffffff021916908373ffffffffffffffffffffffffffffffffffffffff160217905550818373ffffffffffffffffffffffffffffffffffffffff168273ffffffffffffffffffffffffffffffffffffffff167f8c5be1e5ebec7d5bd14f71427d1e84f3dd0314c0f7b2291e5b200ac8c7c3b92560405160405180910390a4505050565b600061076783610d57565b90508073ffffffffffffffffffffffffffffffffffffffff163373ffffffffffffffffffffffffffffffffffffffff16146107ce576040517f11e7e2df00000000000000000000000000000000000000000000000000000000815260040160405180910390fd5b816006600085815260200190815260200160002090816107ee9190611f8a565b50505050565b60085481565b6002600082815260200190815260200160002060009054906101000a900473ffffffffffffffffffffffffffffffffffffffff1673ffffffffffffffffffffffffffffffffffffffff168373ffffffffffffffffffffffffffffffffffffffff161461089b576040517f08c379a0000000000000000000000000000000000000000000000000000000008152600401610892906120a8565b60405180910390fd5b600073ffffffffffffffffffffffffffffffffffffffff168273ffffffffffffffffffffffffffffffffffffffff160361090a576040517f08c379a000000000000000000000000000000000000000000000000000000000815260040161090190612114565b60405180910390fd5b8273ffffffffffffffffffffffffffffffffffffffff163373ffffffffffffffffffffffffffffffffffffffff1614806109ca5750600560008473ffffffffffffffffffffffffffffffffffffffff1673ffffffffffffffffffffffffffffffffffffffff16815260200190815260200160002060003373ffffffffffffffffffffffffffffffffffffffff1673ffffffffffffffffffffffffffffffffffffffff16815260200190815260200160002060009054906101000a900460ff165b80610a3357506004600082815260200190815260200160002060009054906101000a900473ffffffffffffffffffffffffffffffffffffffff1673ffffffffffffffffffffffffffffffffffffffff163373ffffffffffffffffffffffffffffffffffffffff16145b610a72576040517f08c379a0000000000000000000000000000000000000000000000000000000008152600401610a6990611dbe565b60405180910390fd5b600360008473ffffffffffffffffffffffffffffffffffffffff1673ffffffffffffffffffffffffffffffffffffffff1681526020019081526020016000206000815480929190600190039190505550600360008373ffffffffffffffffffffffffffffffffffffffff1673ffffffffffffffffffffffffffffffffffffffff16815260200190815260200160002060008154809291906001019190505550816002600083815260200190815260200160002060006101000a81548173ffffffffffffffffffffffffffffffffffffffff021916908373ffffffffffffffffffffffffffffffffffffffff1602179055506004600082815260200190815260200160002060006101000a81549073ffffffffffffffffffffffffffffffffffffffff0219169055808273ffffffffffffffffffffffffffffffffffffffff168473ffffffffffffffffffffffffffffffffffffffff167fddf252ad1be2c89b69c2b068fc378daa952ba7f163c4a11628f55a4df523b3ef60405160405180910390a4505050565b600a60009054906101000a900473ffffffffffffffffffffffffffffffffffffffff1681565b610c2a8383836107fa565b60008273ffffffffffffffffffffffffffffffffffffffff163b1480610d13575063150b7a0260e01b7bffffffffffffffffffffffffffffffffffffffffffffffffffffffff19168273ffffffffffffffffffffffffffffffffffffffff1663150b7a023386856040518463ffffffff1660e01b8152600401610caf9392919061216b565b6020604051808303816000875af1158015610cce573d6000803e3d6000fd5b505050506040513d601f19601f82011682018060405250810190610cf291906121ca565b7bffffffffffffffffffffffffffffffffffffffffffffffffffffffff1916145b610d52576040517f08c379a0000000000000000000000000000000000000000000000000000000008152600401610d4990612243565b60405180910390fd5b505050565b60008073ffffffffffffffffffffffffffffffffffffffff166002600084815260200190815260200160002060009054906101000a900473ffffffffffffffffffffffffffffffffffffffff1691508173ffffffffffffffffffffffffffffffffffffffff1603610dfd576040517f08c379a0000000000000000000000000000000000000000000000000000000008152600401610df4906122af565b60405180910390fd5b919050565b60008073ffffffffffffffffffffffffffffffffffffffff168273ffffffffffffffffffffffffffffffffffffffff1603610e72576040517f08c379a0000000000000000000000000000000000000000000000000000000008152600401610e699061231b565b60405180910390fd5b600360008373ffffffffffffffffffffffffffffffffffffffff1673ffffffffffffffffffffffffffffffffffffffff168152602001908152602001600020549050919050565b60018054610ec690611d41565b80601f0160208091040260200160405190810160405280929190818152602001828054610ef290611d41565b8015610f3f5780601f10610f1457610100808354040283529160200191610f3f565b820191906000526020600020905b815481529060010190602001808311610f2257829003601f168201915b505050505081565b80600560003373ffffffffffffffffffffffffffffffffffffffff1673ffffffffffffffffffffffffffffffffffffffff16815260200190815260200160002060008473ffffffffffffffffffffffffffffffffffffffff1673ffffffffffffffffffffffffffffffffffffffff16815260200190815260200160002060006101000a81548160ff0219169083151502179055508173ffffffffffffffffffffffffffffffffffffffff163373ffffffffffffffffffffffffffffffffffffffff167f17307eab39ab6107e8899845ad3d59bd9653f200f220920489ca2b5937696c318360405161103891906116d9565b60405180910390a35050565b61104f8585856107fa565b60008473ffffffffffffffffffffffffffffffffffffffff163b148061113c575063150b7a0260e01b7bffffffffffffffffffffffffffffffffffffffffffffffffffffffff19168473ffffffffffffffffffffffffffffffffffffffff1663150b7a0233888787876040518663ffffffff1660e01b81526004016110d8959493929190612368565b6020604051808303816000875af11580156110f7573d6000803e3d6000fd5b505050506040513d601f19601f8201168201806040525081019061111b91906121ca565b7bffffffffffffffffffffffffffffffffffffffffffffffffffffffff1916145b61117b576040517f08c379a000000000000000000000000000000000000000000000000000000000815260040161117290612243565b60405180910390fd5b5050505050565b606061118d826113d2565b6111c3576040517f661a032000000000000000000000000000000000000000000000000000000000815260040160405180910390fd5b6006600083815260200190815260200160002080546111e190611d41565b80601f016020809104026020016040519081016040528092919081815260200182805461120d90611d41565b801561125a5780601f1061122f5761010080835404028352916020019161125a565b820191906000526020600020905b81548152906001019060200180831161123d57829003601f168201915b50505050509050919050565b60095481565b600080600060095411156112c1576127106009548461128b91906123e5565b6112959190612456565b600a60009054906101000a900473ffffffffffffffffffffffffffffffffffffffff16915091506112c9565b600080915091505b915091565b600b60009054906101000a900473ffffffffffffffffffffffffffffffffffffffff1673ffffffffffffffffffffffffffffffffffffffff163373ffffffffffffffffffffffffffffffffffffffff1614611355576040517f62a0fdfa00000000000000000000000000000000000000000000000000000000815260040160405180910390fd5b600060075490506113663382611413565b611370818361075c565b600160075461137f9190612487565b6007819055506001600860008282546113989190612487565b925050819055505050565b60056020528160005260406000206020528060005260406000206000915091509054906101000a900460ff1681565b60008073ffffffffffffffffffffffffffffffffffffffff166113f483610d57565b73ffffffffffffffffffffffffffffffffffffffff1614159050919050565b600073ffffffffffffffffffffffffffffffffffffffff168273ffffffffffffffffffffffffffffffffffffffff1603611482576040517f08c379a000000000000000000000000000000000000000000000000000000000815260040161147990612114565b60405180910390fd5b600073ffffffffffffffffffffffffffffffffffffffff166002600083815260200190815260200160002060009054906101000a900473ffffffffffffffffffffffffffffffffffffffff1673ffffffffffffffffffffffffffffffffffffffff1614611524576040517f08c379a000000000000000000000000000000000000000000000000000000000815260040161151b90612507565b60405180910390fd5b600360008373ffffffffffffffffffffffffffffffffffffffff1673ffffffffffffffffffffffffffffffffffffffff16815260200190815260200160002060008154809291906001019190505550816002600083815260200190815260200160002060006101000a81548173ffffffffffffffffffffffffffffffffffffffff021916908373ffffffffffffffffffffffffffffffffffffffff160217905550808273ffffffffffffffffffffffffffffffffffffffff16600073ffffffffffffffffffffffffffffffffffffffff167fddf252ad1be2c89b69c2b068fc378daa952ba7f163c4a11628f55a4df523b3ef60405160405180910390a45050565b6000604051905090565b600080fd5b600080fd5b60007fffffffff0000000000000000000000000000000000000000000000000000000082169050919050565b61166e81611639565b811461167957600080fd5b50565b60008135905061168b81611665565b92915050565b6000602082840312156116a7576116a661162f565b5b60006116b58482850161167c565b91505092915050565b60008115159050919050565b6116d3816116be565b82525050565b60006020820190506116ee60008301846116ca565b92915050565b600073ffffffffffffffffffffffffffffffffffffffff82169050919050565b600061171f826116f4565b9050919050565b61172f81611714565b82525050565b600060208201905061174a6000830184611726565b92915050565b600081519050919050565b600082825260208201905092915050565b60005b8381101561178a57808201518184015260208101905061176f565b60008484015250505050565b6000601f19601f8301169050919050565b60006117b282611750565b6117bc818561175b565b93506117cc81856020860161176c565b6117d581611796565b840191505092915050565b600060208201905081810360008301526117fa81846117a7565b905092915050565b6000819050919050565b61181581611802565b811461182057600080fd5b50565b6000813590506118328161180c565b92915050565b60006020828403121561184e5761184d61162f565b5b600061185c84828501611823565b91505092915050565b61186e81611714565b811461187957600080fd5b50565b60008135905061188b81611865565b92915050565b600080604083850312156118a8576118a761162f565b5b60006118b68582860161187c565b92505060206118c785828601611823565b9150509250929050565b600080fd5b600080fd5b7f4e487b7100000000000000000000000000000000000000000000000000000000600052604160045260246000fd5b61191382611796565b810181811067ffffffffffffffff82111715611932576119316118db565b5b80604052505050565b6000611945611625565b9050611951828261190a565b919050565b600067ffffffffffffffff821115611971576119706118db565b5b61197a82611796565b9050602081019050919050565b82818337600083830152505050565b60006119a96119a484611956565b61193b565b9050828152602081018484840111156119c5576119c46118d6565b5b6119d0848285611987565b509392505050565b600082601f8301126119ed576119ec6118d1565b5b81356119fd848260208601611996565b91505092915050565b60008060408385031215611a1d57611a1c61162f565b5b6000611a2b85828601611823565b925050602083013567ffffffffffffffff811115611a4c57611a4b611634565b5b611a58858286016119d8565b9150509250929050565b611a6b81611802565b82525050565b6000602082019050611a866000830184611a62565b92915050565b600080600060608486031215611aa557611aa461162f565b5b6000611ab38682870161187c565b9350506020611ac48682870161187c565b9250506040611ad586828701611823565b9150509250925092565b600060208284031215611af557611af461162f565b5b6000611b038482850161187c565b91505092915050565b611b15816116be565b8114611b2057600080fd5b50565b600081359050611b3281611b0c565b92915050565b60008060408385031215611b4f57611b4e61162f565b5b6000611b5d8582860161187c565b9250506020611b6e85828601611b23565b9150509250929050565b600080fd5b600080fd5b60008083601f840112611b9857611b976118d1565b5b8235905067ffffffffffffffff811115611bb557611bb4611b78565b5b602083019150836001820283011115611bd157611bd0611b7d565b5b9250929050565b600080600080600060808688031215611bf457611bf361162f565b5b6000611c028882890161187c565b9550506020611c138882890161187c565b9450506040611c2488828901611823565b935050606086013567ffffffffffffffff811115611c4557611c44611634565b5b611c5188828901611b82565b92509250509295509295909350565b6000604082019050611c756000830185611a62565b611c826020830184611726565b9392505050565b600060208284031215611c9f57611c9e61162f565b5b600082013567ffffffffffffffff811115611cbd57611cbc611634565b5b611cc9848285016119d8565b91505092915050565b60008060408385031215611ce957611ce861162f565b5b6000611cf78582860161187c565b9250506020611d088582860161187c565b9150509250929050565b7f4e487b7100000000000000000000000000000000000000000000000000000000600052602260045260246000fd5b60006002820490506001821680611d5957607f821691505b602082108103611d6c57611d6b611d12565b5b50919050565b7f4e4f545f415554484f52495a4544000000000000000000000000000000000000600082015250565b6000611da8600e8361175b565b9150611db382611d72565b602082019050919050565b60006020820190508181036000830152611dd781611d9b565b9050919050565b60008190508160005260206000209050919050565b60006020601f8301049050919050565b600082821b905092915050565b600060088302611e407fffffffffffffffffffffffffffffffffffffffffffffffffffffffffffffffff82611e03565b611e4a8683611e03565b95508019841693508086168417925050509392505050565b6000819050919050565b6000611e87611e82611e7d84611802565b611e62565b611802565b9050919050565b6000819050919050565b611ea183611e6c565b611eb5611ead82611e8e565b848454611e10565b825550505050565b600090565b611eca611ebd565b611ed5818484611e98565b505050565b5b81811015611ef957611eee600082611ec2565b600181019050611edb565b5050565b601f821115611f3e57611f0f81611dde565b611f1884611df3565b81016020851015611f27578190505b611f3b611f3385611df3565b830182611eda565b50505b505050565b600082821c905092915050565b6000611f6160001984600802611f43565b1980831691505092915050565b6000611f7a8383611f50565b9150826002028217905092915050565b611f9382611750565b67ffffffffffffffff811115611fac57611fab6118db565b5b611fb68254611d41565b611fc1828285611efd565b600060209050601f831160018114611ff45760008415611fe2578287015190505b611fec8582611f6e565b865550612054565b601f19841661200286611dde565b60005b8281101561202a57848901518255600182019150602085019450602081019050612005565b868310156120475784890151612043601f891682611f50565b8355505b6001600288020188555050505b505050505050565b7f57524f4e475f46524f4d00000000000000000000000000000000000000000000600082015250565b6000612092600a8361175b565b915061209d8261205c565b602082019050919050565b600060208201905081810360008301526120c181612085565b9050919050565b7f494e56414c49445f524543495049454e54000000000000000000000000000000600082015250565b60006120fe60118361175b565b9150612109826120c8565b602082019050919050565b6000602082019050818103600083015261212d816120f1565b9050919050565b600082825260208201905092915050565b50565b6000612155600083612134565b915061216082612145565b600082019050919050565b60006080820190506121806000830186611726565b61218d6020830185611726565b61219a6040830184611a62565b81810360608301526121ab81612148565b9050949350505050565b6000815190506121c481611665565b92915050565b6000602082840312156121e0576121df61162f565b5b60006121ee848285016121b5565b91505092915050565b7f554e534146455f524543495049454e5400000000000000000000000000000000600082015250565b600061222d60108361175b565b9150612238826121f7565b602082019050919050565b6000602082019050818103600083015261225c81612220565b9050919050565b7f4e4f545f4d494e54454400000000000000000000000000000000000000000000600082015250565b6000612299600a8361175b565b91506122a482612263565b602082019050919050565b600060208201905081810360008301526122c88161228c565b9050919050565b7f5a45524f5f414444524553530000000000000000000000000000000000000000600082015250565b6000612305600c8361175b565b9150612310826122cf565b602082019050919050565b60006020820190508181036000830152612334816122f8565b9050919050565b60006123478385612134565b9350612354838584611987565b61235d83611796565b840190509392505050565b600060808201905061237d6000830188611726565b61238a6020830187611726565b6123976040830186611a62565b81810360608301526123aa81848661233b565b90509695505050505050565b7f4e487b7100000000000000000000000000000000000000000000000000000000600052601160045260246000fd5b60006123f082611802565b91506123fb83611802565b925082820261240981611802565b915082820484148315176124205761241f6123b6565b5b5092915050565b7f4e487b7100000000000000000000000000000000000000000000000000000000600052601260045260246000fd5b600061246182611802565b915061246c83611802565b92508261247c5761247b612427565b5b828204905092915050565b600061249282611802565b915061249d83611802565b92508282019050808211156124b5576124b46123b6565b5b92915050565b7f414c52454144595f4d494e544544000000000000000000000000000000000000600082015250565b60006124f1600e8361175b565b91506124fc826124bb565b602082019050919050565b60006020820190508181036000830152612520816124e4565b905091905056fea26469706673582212207230b6ca04f0750b16e930c239d4d76ff73f0bff9d06bde768a79e0e229dc85e64736f6c63430008120033a264697066735822122006c5873c38553a475280a6540b795440bf82eb8a596c314a1f2275abe8584c1564736f6c63430008120033",
  "devdoc": {
    "kind": "dev",
    "methods": {},
    "version": 1
  },
  "userdoc": {
    "kind": "user",
    "methods": {},
    "version": 1
  },
  "storageLayout": {
    "storage": [
      {
        "astId": 19,
        "contract": "contracts/MXCCollectionFactory.sol:MXCCollectionFactory",
        "label": "admin",
        "offset": 0,
        "slot": "0",
        "type": "t_address"
      },
      {
        "astId": 23,
        "contract": "contracts/MXCCollectionFactory.sol:MXCCollectionFactory",
        "label": "collections",
        "offset": 0,
        "slot": "1",
        "type": "t_array(t_struct(MXCCollectionData)17_storage)dyn_storage"
      },
      {
        "astId": 28,
        "contract": "contracts/MXCCollectionFactory.sol:MXCCollectionFactory",
        "label": "userToCollections",
        "offset": 0,
        "slot": "2",
        "type": "t_mapping(t_address,t_array(t_uint256)dyn_storage)"
      }
    ],
    "types": {
      "t_address": {
        "encoding": "inplace",
        "label": "address",
        "numberOfBytes": "20"
      },
      "t_array(t_struct(MXCCollectionData)17_storage)dyn_storage": {
        "base": "t_struct(MXCCollectionData)17_storage",
        "encoding": "dynamic_array",
        "label": "struct MXCCollectionFactory.MXCCollectionData[]",
        "numberOfBytes": "32"
      },
      "t_array(t_uint256)dyn_storage": {
        "base": "t_uint256",
        "encoding": "dynamic_array",
        "label": "uint256[]",
        "numberOfBytes": "32"
      },
      "t_bool": {
        "encoding": "inplace",
        "label": "bool",
        "numberOfBytes": "1"
      },
      "t_mapping(t_address,t_array(t_uint256)dyn_storage)": {
        "encoding": "mapping",
        "key": "t_address",
        "label": "mapping(address => uint256[])",
        "numberOfBytes": "32",
        "value": "t_array(t_uint256)dyn_storage"
      },
      "t_string_storage": {
        "encoding": "bytes",
        "label": "string",
        "numberOfBytes": "32"
      },
      "t_struct(MXCCollectionData)17_storage": {
        "encoding": "inplace",
        "label": "struct MXCCollectionFactory.MXCCollectionData",
        "members": [
          {
            "astId": 10,
            "contract": "contracts/MXCCollectionFactory.sol:MXCCollectionFactory",
            "label": "ipfs",
            "offset": 0,
            "slot": "0",
            "type": "t_string_storage"
          },
          {
            "astId": 12,
            "contract": "contracts/MXCCollectionFactory.sol:MXCCollectionFactory",
            "label": "owner",
            "offset": 0,
            "slot": "1",
            "type": "t_address"
          },
          {
            "astId": 14,
            "contract": "contracts/MXCCollectionFactory.sol:MXCCollectionFactory",
            "label": "collection",
            "offset": 0,
            "slot": "2",
            "type": "t_address"
          },
          {
            "astId": 16,
            "contract": "contracts/MXCCollectionFactory.sol:MXCCollectionFactory",
            "label": "isCert",
            "offset": 20,
            "slot": "2",
            "type": "t_bool"
          }
        ],
        "numberOfBytes": "96"
      },
      "t_uint256": {
        "encoding": "inplace",
        "label": "uint256",
        "numberOfBytes": "32"
      }
    }
  }
}