{
  "address": "0x9dc0aeeF5685e7aAcA16f782eA5f3B2Dd0132a35",
  "abi": [
    {
      "inputs": [],
      "name": "MXCMarketplace__AssetNotForSale",
      "type": "error"
    },
    {
      "inputs": [],
      "name": "MXCMarketplace__InvalidErc721Implementation",
      "type": "error"
    },
    {
      "inputs": [],
      "name": "MXCMarketplace__InvalidExpiresAt",
      "type": "error"
    },
    {
      "inputs": [],
      "name": "MXCMarketplace__InvalidNftAddress",
      "type": "error"
    },
    {
      "inputs": [],
      "name": "MXCMarketplace__InvalidOrder",
      "type": "error"
    },
    {
      "inputs": [],
      "name": "MXCMarketplace__InvalidSeller",
      "type": "error"
    },
    {
      "inputs": [],
      "name": "MXCMarketplace__NotApproveFor",
      "type": "error"
    },
    {
      "inputs": [],
      "name": "MXCMarketplace__NotOwner",
      "type": "error"
    },
    {
      "inputs": [],
      "name": "MXCMarketplace__OrderExpired",
      "type": "error"
    },
    {
      "inputs": [],
      "name": "MXCMarketplace__PriceMisMatch",
      "type": "error"
    },
    {
      "inputs": [],
      "name": "MXCMarketplace__PriceNotAllow",
      "type": "error"
    },
    {
      "inputs": [],
      "name": "MXCMarketplace__SellerNotOwner",
      "type": "error"
    },
    {
      "inputs": [],
      "name": "MXCMarketplace__SenderIsSeller",
      "type": "error"
    },
    {
      "inputs": [],
      "name": "MXCMarketplace__UnauthorizedUser",
      "type": "error"
    },
    {
      "anonymous": false,
      "inputs": [
        {
          "indexed": false,
          "internalType": "bytes32",
          "name": "id",
          "type": "bytes32"
        },
        {
          "indexed": true,
          "internalType": "uint256",
          "name": "assetId",
          "type": "uint256"
        },
        {
          "indexed": true,
          "internalType": "address",
          "name": "seller",
          "type": "address"
        },
        {
          "indexed": false,
          "internalType": "address",
          "name": "nftAddress",
          "type": "address"
        }
      ],
      "name": "OrderCancelled",
      "type": "event"
    },
    {
      "anonymous": false,
      "inputs": [
        {
          "indexed": false,
          "internalType": "bytes32",
          "name": "id",
          "type": "bytes32"
        },
        {
          "indexed": true,
          "internalType": "uint256",
          "name": "assetId",
          "type": "uint256"
        },
        {
          "indexed": true,
          "internalType": "address",
          "name": "seller",
          "type": "address"
        },
        {
          "indexed": false,
          "internalType": "address",
          "name": "nftAddress",
          "type": "address"
        },
        {
          "indexed": false,
          "internalType": "uint256",
          "name": "priceInWei",
          "type": "uint256"
        },
        {
          "indexed": false,
          "internalType": "uint256",
          "name": "expiresAt",
          "type": "uint256"
        }
      ],
      "name": "OrderCreated",
      "type": "event"
    },
    {
      "anonymous": false,
      "inputs": [
        {
          "indexed": false,
          "internalType": "bytes32",
          "name": "id",
          "type": "bytes32"
        },
        {
          "indexed": true,
          "internalType": "uint256",
          "name": "assetId",
          "type": "uint256"
        },
        {
          "indexed": true,
          "internalType": "address",
          "name": "seller",
          "type": "address"
        },
        {
          "indexed": false,
          "internalType": "address",
          "name": "nftAddress",
          "type": "address"
        },
        {
          "indexed": false,
          "internalType": "uint256",
          "name": "totalPrice",
          "type": "uint256"
        },
        {
          "indexed": true,
          "internalType": "address",
          "name": "buyer",
          "type": "address"
        }
      ],
      "name": "OrderSuccessful",
      "type": "event"
    },
    {
      "anonymous": false,
      "inputs": [
        {
          "indexed": true,
          "internalType": "address",
          "name": "previousOwner",
          "type": "address"
        },
        {
          "indexed": true,
          "internalType": "address",
          "name": "newOwner",
          "type": "address"
        }
      ],
      "name": "OwnershipTransferred",
      "type": "event"
    },
    {
      "inputs": [],
      "name": "ERC721_Interface",
      "outputs": [
        {
          "internalType": "bytes4",
          "name": "",
          "type": "bytes4"
        }
      ],
      "stateMutability": "view",
      "type": "function"
    },
    {
      "inputs": [
        {
          "internalType": "address",
          "name": "",
          "type": "address"
        },
        {
          "internalType": "uint256",
          "name": "",
          "type": "uint256"
        }
      ],
      "name": "assertPrice",
      "outputs": [
        {
          "internalType": "uint256",
          "name": "price",
          "type": "uint256"
        },
        {
          "internalType": "uint256",
          "name": "transactions",
          "type": "uint256"
        }
      ],
      "stateMutability": "view",
      "type": "function"
    },
    {
      "inputs": [
        {
          "internalType": "address",
          "name": "nftAddress",
          "type": "address"
        },
        {
          "internalType": "uint256",
          "name": "assetId",
          "type": "uint256"
        }
      ],
      "name": "cancelOrder",
      "outputs": [
        {
          "components": [
            {
              "internalType": "bytes32",
              "name": "id",
              "type": "bytes32"
            },
            {
              "internalType": "address",
              "name": "seller",
              "type": "address"
            },
            {
              "internalType": "address",
              "name": "nftAddress",
              "type": "address"
            },
            {
              "internalType": "uint256",
              "name": "price",
              "type": "uint256"
            },
            {
              "internalType": "uint256",
              "name": "expiresAt",
              "type": "uint256"
            }
          ],
          "internalType": "struct MXCMarketplace.Order",
          "name": "",
          "type": "tuple"
        }
      ],
      "stateMutability": "nonpayable",
      "type": "function"
    },
    {
      "inputs": [
        {
          "internalType": "address",
          "name": "nftAddress",
          "type": "address"
        },
        {
          "internalType": "uint256",
          "name": "assetId",
          "type": "uint256"
        },
        {
          "internalType": "uint256",
          "name": "priceInWei",
          "type": "uint256"
        },
        {
          "internalType": "uint256",
          "name": "expiresAt",
          "type": "uint256"
        }
      ],
      "name": "createOrder",
      "outputs": [],
      "stateMutability": "nonpayable",
      "type": "function"
    },
    {
      "inputs": [
        {
          "internalType": "address",
          "name": "nftAddress",
          "type": "address"
        },
        {
          "internalType": "uint256",
          "name": "assetId",
          "type": "uint256"
        }
      ],
      "name": "executeOrder",
      "outputs": [],
      "stateMutability": "payable",
      "type": "function"
    },
    {
      "inputs": [
        {
          "internalType": "address",
          "name": "",
          "type": "address"
        },
        {
          "internalType": "address",
          "name": "",
          "type": "address"
        },
        {
          "internalType": "uint256",
          "name": "",
          "type": "uint256"
        },
        {
          "internalType": "bytes",
          "name": "",
          "type": "bytes"
        }
      ],
      "name": "onERC721Received",
      "outputs": [
        {
          "internalType": "bytes4",
          "name": "",
          "type": "bytes4"
        }
      ],
      "stateMutability": "pure",
      "type": "function"
    },
    {
      "inputs": [
        {
          "internalType": "address",
          "name": "",
          "type": "address"
        },
        {
          "internalType": "uint256",
          "name": "",
          "type": "uint256"
        }
      ],
      "name": "orderByAssetId",
      "outputs": [
        {
          "internalType": "bytes32",
          "name": "id",
          "type": "bytes32"
        },
        {
          "internalType": "address",
          "name": "seller",
          "type": "address"
        },
        {
          "internalType": "address",
          "name": "nftAddress",
          "type": "address"
        },
        {
          "internalType": "uint256",
          "name": "price",
          "type": "uint256"
        },
        {
          "internalType": "uint256",
          "name": "expiresAt",
          "type": "uint256"
        }
      ],
      "stateMutability": "view",
      "type": "function"
    },
    {
      "inputs": [],
      "name": "owner",
      "outputs": [
        {
          "internalType": "address",
          "name": "",
          "type": "address"
        }
      ],
      "stateMutability": "view",
      "type": "function"
    },
    {
      "inputs": [],
      "name": "renounceOwnership",
      "outputs": [],
      "stateMutability": "nonpayable",
      "type": "function"
    },
    {
      "inputs": [
        {
          "internalType": "address",
          "name": "newOwner",
          "type": "address"
        }
      ],
      "name": "transferOwnership",
      "outputs": [],
      "stateMutability": "nonpayable",
      "type": "function"
    }
  ],
  "transactionHash": "0x7b32665b9cf975a86807786cb646598319712787f8716ff6b59774f5b32bd056",
  "args": [],
  "numDeployments": 1,
  "solcInputHash": "904f3ab9b61450a9510b448568cf8e6a",
  "bytecode": "0x608060405234801561001057600080fd5b5061002d61002261003260201b60201c565b61003a60201b60201c565b6100fe565b600033905090565b60008060009054906101000a900473ffffffffffffffffffffffffffffffffffffffff169050816000806101000a81548173ffffffffffffffffffffffffffffffffffffffff021916908373ffffffffffffffffffffffffffffffffffffffff1602179055508173ffffffffffffffffffffffffffffffffffffffff168173ffffffffffffffffffffffffffffffffffffffff167f8be0079c531659141344cd1fd0a4f28419497f9722a3daafe3b4186f6b6457e060405160405180910390a35050565b611f4a8061010d6000396000f3fe6080604052600436106100915760003560e01c8063715018a611610059578063715018a6146101a25780638da5cb5b146101b9578063dc3528d6146101e4578063e61f385114610200578063f2fde38b1461024157610091565b8063150b7a02146100965780632b4c32be146100d357806331c0fccd146100fe5780636a2061371461013c5780636f652e1a14610179575b600080fd5b3480156100a257600080fd5b506100bd60048036038101906100b8919061175a565b61026a565b6040516100ca919061181d565b60405180910390f35b3480156100df57600080fd5b506100e861027f565b6040516100f5919061181d565b60405180910390f35b34801561010a57600080fd5b5061012560048036038101906101209190611838565b61028a565b604051610133929190611887565b60405180910390f35b34801561014857600080fd5b50610163600480360381019061015e9190611838565b6102bb565b604051610170919061194f565b60405180910390f35b34801561018557600080fd5b506101a0600480360381019061019b919061196a565b610615565b005b3480156101ae57600080fd5b506101b7610acd565b005b3480156101c557600080fd5b506101ce610ae1565b6040516101db91906119e0565b60405180910390f35b6101fe60048036038101906101f99190611838565b610b0a565b005b34801561020c57600080fd5b5061022760048036038101906102229190611838565b611271565b604051610238959493929190611a0a565b60405180910390f35b34801561024d57600080fd5b5061026860048036038101906102639190611a5d565b6112f4565b005b600063150b7a0260e01b905095945050505050565b6380ac58cd60e01b81565b6002602052816000526040600020602052806000526040600020600091509150508060000154908060010154905082565b6102c36115f9565b60006102cd611377565b90506000600160008673ffffffffffffffffffffffffffffffffffffffff1673ffffffffffffffffffffffffffffffffffffffff16815260200190815260200160002060008581526020019081526020016000206040518060a0016040529081600082015481526020016001820160009054906101000a900473ffffffffffffffffffffffffffffffffffffffff1673ffffffffffffffffffffffffffffffffffffffff1673ffffffffffffffffffffffffffffffffffffffff1681526020016002820160009054906101000a900473ffffffffffffffffffffffffffffffffffffffff1673ffffffffffffffffffffffffffffffffffffffff1673ffffffffffffffffffffffffffffffffffffffff1681526020016003820154815260200160048201548152505090506000801b816000015103610438576040517fae5e94b100000000000000000000000000000000000000000000000000000000815260040160405180910390fd5b8173ffffffffffffffffffffffffffffffffffffffff16816020015173ffffffffffffffffffffffffffffffffffffffff16141580156104ab575061047b610ae1565b73ffffffffffffffffffffffffffffffffffffffff168273ffffffffffffffffffffffffffffffffffffffff1614155b156104e2576040517fb9d8517c00000000000000000000000000000000000000000000000000000000815260040160405180910390fd5b600081600001519050600082602001519050600083604001519050600160008973ffffffffffffffffffffffffffffffffffffffff1673ffffffffffffffffffffffffffffffffffffffff16815260200190815260200160002060008881526020019081526020016000206000808201600090556001820160006101000a81549073ffffffffffffffffffffffffffffffffffffffff02191690556002820160006101000a81549073ffffffffffffffffffffffffffffffffffffffff02191690556003820160009055600482016000905550508173ffffffffffffffffffffffffffffffffffffffff16877f0325426328de5b91ae4ad8462ad4076de4bcaf4551e81556185cacde5a425c6b85846040516105ff929190611a8a565b60405180910390a3839550505050505092915050565b61061e8461137f565b600084905060008173ffffffffffffffffffffffffffffffffffffffff16636352211e866040518263ffffffff1660e01b815260040161065e9190611ab3565b602060405180830381865afa15801561067b573d6000803e3d6000fd5b505050506040513d601f19601f8201168201806040525081019061069f9190611ae3565b90508073ffffffffffffffffffffffffffffffffffffffff163373ffffffffffffffffffffffffffffffffffffffff1614610706576040517f54bc26c500000000000000000000000000000000000000000000000000000000815260040160405180910390fd5b8173ffffffffffffffffffffffffffffffffffffffff1663e985e9c533306040518363ffffffff1660e01b8152600401610741929190611b10565b602060405180830381865afa15801561075e573d6000803e3d6000fd5b505050506040513d601f19601f820116820180604052508101906107829190611b71565b15801561083457503073ffffffffffffffffffffffffffffffffffffffff168273ffffffffffffffffffffffffffffffffffffffff1663081812fc876040518263ffffffff1660e01b81526004016107da9190611ab3565b602060405180830381865afa1580156107f7573d6000803e3d6000fd5b505050506040513d601f19601f8201168201806040525081019061081b9190611ae3565b73ffffffffffffffffffffffffffffffffffffffff1614155b1561086b576040517f51f9063e00000000000000000000000000000000000000000000000000000000815260040160405180910390fd5b600084116108a5576040517f9ec5b38200000000000000000000000000000000000000000000000000000000815260040160405180910390fd5b603c426108b29190611bcd565b83116108ea576040517fa413f30c00000000000000000000000000000000000000000000000000000000815260040160405180910390fd5b60004282878988604051602001610905959493929190611c6a565b6040516020818303038152906040528051906020012090506040518060a001604052808281526020018373ffffffffffffffffffffffffffffffffffffffff1681526020018873ffffffffffffffffffffffffffffffffffffffff16815260200186815260200185815250600160008973ffffffffffffffffffffffffffffffffffffffff1673ffffffffffffffffffffffffffffffffffffffff16815260200190815260200160002060008881526020019081526020016000206000820151816000015560208201518160010160006101000a81548173ffffffffffffffffffffffffffffffffffffffff021916908373ffffffffffffffffffffffffffffffffffffffff16021790555060408201518160020160006101000a81548173ffffffffffffffffffffffffffffffffffffffff021916908373ffffffffffffffffffffffffffffffffffffffff16021790555060608201518160030155608082015181600401559050508173ffffffffffffffffffffffffffffffffffffffff16867f84c66c3f7ba4b390e20e8e8233e2a516f3ce34a72749e4f12bd010dfba238039838a8989604051610abc9493929190611cc9565b60405180910390a350505050505050565b610ad5611494565b610adf6000611512565b565b60008060009054906101000a900473ffffffffffffffffffffffffffffffffffffffff16905090565b610b138261137f565b60008290506000610b22611377565b90506000600160008673ffffffffffffffffffffffffffffffffffffffff1673ffffffffffffffffffffffffffffffffffffffff16815260200190815260200160002060008581526020019081526020016000206040518060a0016040529081600082015481526020016001820160009054906101000a900473ffffffffffffffffffffffffffffffffffffffff1673ffffffffffffffffffffffffffffffffffffffff1673ffffffffffffffffffffffffffffffffffffffff1681526020016002820160009054906101000a900473ffffffffffffffffffffffffffffffffffffffff1673ffffffffffffffffffffffffffffffffffffffff1673ffffffffffffffffffffffffffffffffffffffff1681526020016003820154815260200160048201548152505090506000801b816000015103610c8d576040517ff8da5c9500000000000000000000000000000000000000000000000000000000815260040160405180910390fd5b600073ffffffffffffffffffffffffffffffffffffffff16816020015173ffffffffffffffffffffffffffffffffffffffff1603610cf7576040517f905512c700000000000000000000000000000000000000000000000000000000815260040160405180910390fd5b8173ffffffffffffffffffffffffffffffffffffffff16816020015173ffffffffffffffffffffffffffffffffffffffff1603610d60576040517f694ac4af00000000000000000000000000000000000000000000000000000000815260040160405180910390fd5b80608001514210610d9d576040517f1f15488f00000000000000000000000000000000000000000000000000000000815260040160405180910390fd5b8273ffffffffffffffffffffffffffffffffffffffff16636352211e856040518263ffffffff1660e01b8152600401610dd69190611ab3565b602060405180830381865afa158015610df3573d6000803e3d6000fd5b505050506040513d601f19601f82011682018060405250810190610e179190611ae3565b73ffffffffffffffffffffffffffffffffffffffff16816020015173ffffffffffffffffffffffffffffffffffffffff1614610e7f576040517fffde48c100000000000000000000000000000000000000000000000000000000815260040160405180910390fd5b80606001513414610ebc576040517f898741fe00000000000000000000000000000000000000000000000000000000815260040160405180910390fd5b600160008673ffffffffffffffffffffffffffffffffffffffff1673ffffffffffffffffffffffffffffffffffffffff16815260200190815260200160002060008581526020019081526020016000206000808201600090556001820160006101000a81549073ffffffffffffffffffffffffffffffffffffffff02191690556002820160006101000a81549073ffffffffffffffffffffffffffffffffffffffff02191690556003820160009055600482016000905550506000808473ffffffffffffffffffffffffffffffffffffffff1663cef6d36884606001516040518263ffffffff1660e01b8152600401610fb59190611ab3565b6040805180830381865afa158015610fd1573d6000803e3d6000fd5b505050506040513d601f19601f82011682018060405250810190610ff59190611d23565b915091508073ffffffffffffffffffffffffffffffffffffffff166108fc839081150290604051600060405180830381858888f1935050505015801561103f573d6000803e3d6000fd5b50826020015173ffffffffffffffffffffffffffffffffffffffff166108fc83856060015161106e9190611d63565b9081150290604051600060405180830381858888f19350505050158015611099573d6000803e3d6000fd5b508473ffffffffffffffffffffffffffffffffffffffff166342842e0e846020015186896040518463ffffffff1660e01b81526004016110db93929190611d97565b600060405180830381600087803b1580156110f557600080fd5b505af1158015611109573d6000803e3d6000fd5b505050506000600260008973ffffffffffffffffffffffffffffffffffffffff1673ffffffffffffffffffffffffffffffffffffffff16815260200190815260200160002060008881526020019081526020016000206001015490506040518060400160405280856060015181526020016001836111879190611bcd565b815250600260008a73ffffffffffffffffffffffffffffffffffffffff1673ffffffffffffffffffffffffffffffffffffffff168152602001908152602001600020600089815260200190815260200160002060008201518160000155602082015181600101559050508473ffffffffffffffffffffffffffffffffffffffff16846020015173ffffffffffffffffffffffffffffffffffffffff16887f695ec315e8a642a74d450a4505eeea53df699b47a7378c7d752e97d5b16eb9bb87600001518c896060015160405161125f93929190611dce565b60405180910390a45050505050505050565b6001602052816000526040600020602052806000526040600020600091509150508060000154908060010160009054906101000a900473ffffffffffffffffffffffffffffffffffffffff16908060020160009054906101000a900473ffffffffffffffffffffffffffffffffffffffff16908060030154908060040154905085565b6112fc611494565b600073ffffffffffffffffffffffffffffffffffffffff168173ffffffffffffffffffffffffffffffffffffffff160361136b576040517f08c379a000000000000000000000000000000000000000000000000000000000815260040161136290611e88565b60405180910390fd5b61137481611512565b50565b600033905090565b61139e8173ffffffffffffffffffffffffffffffffffffffff166115d6565b6113d4576040517fd96acaaa00000000000000000000000000000000000000000000000000000000815260040160405180910390fd5b60008190508073ffffffffffffffffffffffffffffffffffffffff166301ffc9a76380ac58cd60e01b6040518263ffffffff1660e01b8152600401611419919061181d565b602060405180830381865afa158015611436573d6000803e3d6000fd5b505050506040513d601f19601f8201168201806040525081019061145a9190611b71565b611490576040517faf7d07c700000000000000000000000000000000000000000000000000000000815260040160405180910390fd5b5050565b61149c611377565b73ffffffffffffffffffffffffffffffffffffffff166114ba610ae1565b73ffffffffffffffffffffffffffffffffffffffff1614611510576040517f08c379a000000000000000000000000000000000000000000000000000000000815260040161150790611ef4565b60405180910390fd5b565b60008060009054906101000a900473ffffffffffffffffffffffffffffffffffffffff169050816000806101000a81548173ffffffffffffffffffffffffffffffffffffffff021916908373ffffffffffffffffffffffffffffffffffffffff1602179055508173ffffffffffffffffffffffffffffffffffffffff168173ffffffffffffffffffffffffffffffffffffffff167f8be0079c531659141344cd1fd0a4f28419497f9722a3daafe3b4186f6b6457e060405160405180910390a35050565b6000808273ffffffffffffffffffffffffffffffffffffffff163b119050919050565b6040518060a0016040528060008019168152602001600073ffffffffffffffffffffffffffffffffffffffff168152602001600073ffffffffffffffffffffffffffffffffffffffff16815260200160008152602001600081525090565b600080fd5b600080fd5b600073ffffffffffffffffffffffffffffffffffffffff82169050919050565b600061168c82611661565b9050919050565b61169c81611681565b81146116a757600080fd5b50565b6000813590506116b981611693565b92915050565b6000819050919050565b6116d2816116bf565b81146116dd57600080fd5b50565b6000813590506116ef816116c9565b92915050565b600080fd5b600080fd5b600080fd5b60008083601f84011261171a576117196116f5565b5b8235905067ffffffffffffffff811115611737576117366116fa565b5b602083019150836001820283011115611753576117526116ff565b5b9250929050565b60008060008060006080868803121561177657611775611657565b5b6000611784888289016116aa565b9550506020611795888289016116aa565b94505060406117a6888289016116e0565b935050606086013567ffffffffffffffff8111156117c7576117c661165c565b5b6117d388828901611704565b92509250509295509295909350565b60007fffffffff0000000000000000000000000000000000000000000000000000000082169050919050565b611817816117e2565b82525050565b6000602082019050611832600083018461180e565b92915050565b6000806040838503121561184f5761184e611657565b5b600061185d858286016116aa565b925050602061186e858286016116e0565b9150509250929050565b611881816116bf565b82525050565b600060408201905061189c6000830185611878565b6118a96020830184611878565b9392505050565b6000819050919050565b6118c3816118b0565b82525050565b6118d281611681565b82525050565b6118e1816116bf565b82525050565b60a0820160008201516118fd60008501826118ba565b50602082015161191060208501826118c9565b50604082015161192360408501826118c9565b50606082015161193660608501826118d8565b50608082015161194960808501826118d8565b50505050565b600060a08201905061196460008301846118e7565b92915050565b6000806000806080858703121561198457611983611657565b5b6000611992878288016116aa565b94505060206119a3878288016116e0565b93505060406119b4878288016116e0565b92505060606119c5878288016116e0565b91505092959194509250565b6119da81611681565b82525050565b60006020820190506119f560008301846119d1565b92915050565b611a04816118b0565b82525050565b600060a082019050611a1f60008301886119fb565b611a2c60208301876119d1565b611a3960408301866119d1565b611a466060830185611878565b611a536080830184611878565b9695505050505050565b600060208284031215611a7357611a72611657565b5b6000611a81848285016116aa565b91505092915050565b6000604082019050611a9f60008301856119fb565b611aac60208301846119d1565b9392505050565b6000602082019050611ac86000830184611878565b92915050565b600081519050611add81611693565b92915050565b600060208284031215611af957611af8611657565b5b6000611b0784828501611ace565b91505092915050565b6000604082019050611b2560008301856119d1565b611b3260208301846119d1565b9392505050565b60008115159050919050565b611b4e81611b39565b8114611b5957600080fd5b50565b600081519050611b6b81611b45565b92915050565b600060208284031215611b8757611b86611657565b5b6000611b9584828501611b5c565b91505092915050565b7f4e487b7100000000000000000000000000000000000000000000000000000000600052601160045260246000fd5b6000611bd8826116bf565b9150611be3836116bf565b9250828201905080821115611bfb57611bfa611b9e565b5b92915050565b6000819050919050565b611c1c611c17826116bf565b611c01565b82525050565b60008160601b9050919050565b6000611c3a82611c22565b9050919050565b6000611c4c82611c2f565b9050919050565b611c64611c5f82611681565b611c41565b82525050565b6000611c768288611c0b565b602082019150611c868287611c53565b601482019150611c968286611c0b565b602082019150611ca68285611c53565b601482019150611cb68284611c0b565b6020820191508190509695505050505050565b6000608082019050611cde60008301876119fb565b611ceb60208301866119d1565b611cf86040830185611878565b611d056060830184611878565b95945050505050565b600081519050611d1d816116c9565b92915050565b60008060408385031215611d3a57611d39611657565b5b6000611d4885828601611d0e565b9250506020611d5985828601611ace565b9150509250929050565b6000611d6e826116bf565b9150611d79836116bf565b9250828203905081811115611d9157611d90611b9e565b5b92915050565b6000606082019050611dac60008301866119d1565b611db960208301856119d1565b611dc66040830184611878565b949350505050565b6000606082019050611de360008301866119fb565b611df060208301856119d1565b611dfd6040830184611878565b949350505050565b600082825260208201905092915050565b7f4f776e61626c653a206e6577206f776e657220697320746865207a65726f206160008201527f6464726573730000000000000000000000000000000000000000000000000000602082015250565b6000611e72602683611e05565b9150611e7d82611e16565b604082019050919050565b60006020820190508181036000830152611ea181611e65565b9050919050565b7f4f776e61626c653a2063616c6c6572206973206e6f7420746865206f776e6572600082015250565b6000611ede602083611e05565b9150611ee982611ea8565b602082019050919050565b60006020820190508181036000830152611f0d81611ed1565b905091905056fea2646970667358221220e9cda620cf5b737615f3f3916979ac520fbddbb8c36d66e61c65d0e25cb8d6de64736f6c63430008120033",
  "devdoc": {
    "kind": "dev",
    "methods": {
      "owner()": {
        "details": "Returns the address of the current owner."
      },
      "renounceOwnership()": {
        "details": "Leaves the contract without owner. It will not be possible to call `onlyOwner` functions anymore. Can only be called by the current owner. NOTE: Renouncing ownership will leave the contract without an owner, thereby removing any functionality that is only available to the owner."
      },
      "transferOwnership(address)": {
        "details": "Transfers ownership of the contract to a new account (`newOwner`). Can only be called by the current owner."
      }
    },
    "version": 1
  },
  "userdoc": {
    "kind": "user",
    "methods": {},
    "version": 1
  },
  "storageLayout": {
    "storage": [
      {
        "astId": 7,
        "contract": "contracts/MXCMarketPlace.sol:MXCMarketplace",
        "label": "_owner",
        "offset": 0,
        "slot": "0",
        "type": "t_address"
      },
      {
        "astId": 675,
        "contract": "contracts/MXCMarketPlace.sol:MXCMarketplace",
        "label": "orderByAssetId",
        "offset": 0,
        "slot": "1",
        "type": "t_mapping(t_address,t_mapping(t_uint256,t_struct(Order)663_storage))"
      },
      {
        "astId": 682,
        "contract": "contracts/MXCMarketPlace.sol:MXCMarketplace",
        "label": "assertPrice",
        "offset": 0,
        "slot": "2",
        "type": "t_mapping(t_address,t_mapping(t_uint256,t_struct(LatestInfo)668_storage))"
      }
    ],
    "types": {
      "t_address": {
        "encoding": "inplace",
        "label": "address",
        "numberOfBytes": "20"
      },
      "t_bytes32": {
        "encoding": "inplace",
        "label": "bytes32",
        "numberOfBytes": "32"
      },
      "t_mapping(t_address,t_mapping(t_uint256,t_struct(LatestInfo)668_storage))": {
        "encoding": "mapping",
        "key": "t_address",
        "label": "mapping(address => mapping(uint256 => struct MXCMarketplace.LatestInfo))",
        "numberOfBytes": "32",
        "value": "t_mapping(t_uint256,t_struct(LatestInfo)668_storage)"
      },
      "t_mapping(t_address,t_mapping(t_uint256,t_struct(Order)663_storage))": {
        "encoding": "mapping",
        "key": "t_address",
        "label": "mapping(address => mapping(uint256 => struct MXCMarketplace.Order))",
        "numberOfBytes": "32",
        "value": "t_mapping(t_uint256,t_struct(Order)663_storage)"
      },
      "t_mapping(t_uint256,t_struct(LatestInfo)668_storage)": {
        "encoding": "mapping",
        "key": "t_uint256",
        "label": "mapping(uint256 => struct MXCMarketplace.LatestInfo)",
        "numberOfBytes": "32",
        "value": "t_struct(LatestInfo)668_storage"
      },
      "t_mapping(t_uint256,t_struct(Order)663_storage)": {
        "encoding": "mapping",
        "key": "t_uint256",
        "label": "mapping(uint256 => struct MXCMarketplace.Order)",
        "numberOfBytes": "32",
        "value": "t_struct(Order)663_storage"
      },
      "t_struct(LatestInfo)668_storage": {
        "encoding": "inplace",
        "label": "struct MXCMarketplace.LatestInfo",
        "members": [
          {
            "astId": 665,
            "contract": "contracts/MXCMarketPlace.sol:MXCMarketplace",
            "label": "price",
            "offset": 0,
            "slot": "0",
            "type": "t_uint256"
          },
          {
            "astId": 667,
            "contract": "contracts/MXCMarketPlace.sol:MXCMarketplace",
            "label": "transactions",
            "offset": 0,
            "slot": "1",
            "type": "t_uint256"
          }
        ],
        "numberOfBytes": "64"
      },
      "t_struct(Order)663_storage": {
        "encoding": "inplace",
        "label": "struct MXCMarketplace.Order",
        "members": [
          {
            "astId": 654,
            "contract": "contracts/MXCMarketPlace.sol:MXCMarketplace",
            "label": "id",
            "offset": 0,
            "slot": "0",
            "type": "t_bytes32"
          },
          {
            "astId": 656,
            "contract": "contracts/MXCMarketPlace.sol:MXCMarketplace",
            "label": "seller",
            "offset": 0,
            "slot": "1",
            "type": "t_address"
          },
          {
            "astId": 658,
            "contract": "contracts/MXCMarketPlace.sol:MXCMarketplace",
            "label": "nftAddress",
            "offset": 0,
            "slot": "2",
            "type": "t_address"
          },
          {
            "astId": 660,
            "contract": "contracts/MXCMarketPlace.sol:MXCMarketplace",
            "label": "price",
            "offset": 0,
            "slot": "3",
            "type": "t_uint256"
          },
          {
            "astId": 662,
            "contract": "contracts/MXCMarketPlace.sol:MXCMarketplace",
            "label": "expiresAt",
            "offset": 0,
            "slot": "4",
            "type": "t_uint256"
          }
        ],
        "numberOfBytes": "160"
      },
      "t_uint256": {
        "encoding": "inplace",
        "label": "uint256",
        "numberOfBytes": "32"
      }
    }
  }
}