{
  "address": "0x50EA94513c502a5609c27Fb668a839C809316525",
  "abi": [
    {
      "anonymous": false,
      "inputs": [
        {
          "indexed": true,
          "internalType": "address",
          "name": "collectionAddress",
          "type": "address"
        },
        {
          "indexed": true,
          "internalType": "address",
          "name": "owner",
          "type": "address"
        }
      ],
      "name": "newCollectionEvent",
      "type": "event"
    },
    {
      "inputs": [
        {
          "internalType": "string",
          "name": "_name",
          "type": "string"
        },
        {
          "internalType": "string",
          "name": "_symbol",
          "type": "string"
        },
        {
          "internalType": "uint256",
          "name": "_royaltiesCutPerMillion",
          "type": "uint256"
        },
        {
          "internalType": "address",
          "name": "_royaltyRecipient",
          "type": "address"
        }
      ],
      "name": "createCollection",
      "outputs": [
        {
          "internalType": "address[2]",
          "name": "",
          "type": "address[2]"
        }
      ],
      "stateMutability": "nonpayable",
      "type": "function"
    }
  ],
  "transactionHash": "0x4976f05b7236c22885274da699db97c6c53d178504d7e3c3abf533f91d80ade5",
  "args": [],
  "numDeployments": 1,
  "solcInputHash": "c30fe5f2ac3b442caff8cba3c57bb99f",
  "bytecode": "0x608060405234801561001057600080fd5b506154a7806100206000396000f3fe60806040523480156200001157600080fd5b50600436106200002e5760003560e01c80638c74af481462000033575b600080fd5b6200005160048036038101906200004b91906200048e565b62000069565b604051620000609190620005f9565b60405180910390f35b620000736200023a565b600060405162000083906200025c565b604051809103906000f080158015620000a0573d6000803e3d6000fd5b509050600081639ab8367e60e01b3386888b8b604051602401620000c9959493929190620006c1565b604051602081830303815290604052907bffffffffffffffffffffffffffffffffffffffffffffffffffffffff19166020820180517bffffffffffffffffffffffffffffffffffffffffffffffffffffffff838183161783525050505060405162000134906200026a565b6200014192919062000789565b604051809103906000f0801580156200015e573d6000803e3d6000fd5b50905060008190503373ffffffffffffffffffffffffffffffffffffffff168173ffffffffffffffffffffffffffffffffffffffff167ff59ec64249a367b8002b16800479bbc232553e6b3a132735ac8f9ca67d82cc9a60405160405180910390a360405180604001604052808273ffffffffffffffffffffffffffffffffffffffff1673ffffffffffffffffffffffffffffffffffffffff1681526020013373ffffffffffffffffffffffffffffffffffffffff1673ffffffffffffffffffffffffffffffffffffffff168152509350505050949350505050565b6040518060400160405280600290602082028036833780820191505090505090565b61406380620007be83390190565b610c51806200482183390190565b6000604051905090565b600080fd5b600080fd5b600080fd5b600080fd5b6000601f19601f8301169050919050565b7f4e487b7100000000000000000000000000000000000000000000000000000000600052604160045260246000fd5b620002e18262000296565b810181811067ffffffffffffffff82111715620003035762000302620002a7565b5b80604052505050565b60006200031862000278565b9050620003268282620002d6565b919050565b600067ffffffffffffffff821115620003495762000348620002a7565b5b620003548262000296565b9050602081019050919050565b82818337600083830152505050565b60006200038762000381846200032b565b6200030c565b905082815260208101848484011115620003a657620003a562000291565b5b620003b384828562000361565b509392505050565b600082601f830112620003d357620003d26200028c565b5b8135620003e584826020860162000370565b91505092915050565b6000819050919050565b6200040381620003ee565b81146200040f57600080fd5b50565b6000813590506200042381620003f8565b92915050565b600073ffffffffffffffffffffffffffffffffffffffff82169050919050565b6000620004568262000429565b9050919050565b620004688162000449565b81146200047457600080fd5b50565b60008135905062000488816200045d565b92915050565b60008060008060808587031215620004ab57620004aa62000282565b5b600085013567ffffffffffffffff811115620004cc57620004cb62000287565b5b620004da87828801620003bb565b945050602085013567ffffffffffffffff811115620004fe57620004fd62000287565b5b6200050c87828801620003bb565b93505060406200051f8782880162000412565b9250506060620005328782880162000477565b91505092959194509250565b600060029050919050565b600081905092915050565b6000819050919050565b620005698162000449565b82525050565b60006200057d83836200055e565b60208301905092915050565b6000602082019050919050565b620005a1816200053e565b620005ad818462000549565b9250620005ba8262000554565b8060005b83811015620005f1578151620005d587826200056f565b9650620005e28362000589565b925050600181019050620005be565b505050505050565b600060408201905062000610600083018462000596565b92915050565b620006218162000449565b82525050565b6200063281620003ee565b82525050565b600081519050919050565b600082825260208201905092915050565b60005b838110156200067457808201518184015260208101905062000657565b60008484015250505050565b60006200068d8262000638565b62000699818562000643565b9350620006ab81856020860162000654565b620006b68162000296565b840191505092915050565b600060a082019050620006d8600083018862000616565b620006e7602083018762000616565b620006f6604083018662000627565b81810360608301526200070a818562000680565b9050818103608083015262000720818462000680565b90509695505050505050565b600081519050919050565b600082825260208201905092915050565b600062000755826200072c565b62000761818562000737565b93506200077381856020860162000654565b6200077e8162000296565b840191505092915050565b6000604082019050620007a0600083018562000616565b8181036020830152620007b4818462000748565b9050939250505056fe60a06040523073ffffffffffffffffffffffffffffffffffffffff1660809073ffffffffffffffffffffffffffffffffffffffff1681525034801561004357600080fd5b50608051613fe861007b60003960008181610eab01528181610f39015281816111d70152818161126501526113150152613fe86000f3fe60806040526004361061019c5760003560e01c80634f1ef286116100ec578063b88d4fde1161008a578063cef6d36811610064578063cef6d368146105b7578063d147c97a146105f5578063d85d3d271461061e578063e985e9c5146106475761019c565b8063b88d4fde14610526578063c87b56dd1461054f578063ce2243b41461058c5761019c565b806370a08231116100c657806370a082311461046c57806395d89b41146104a95780639ab8367e146104d4578063a22cb465146104fd5761019c565b80634f1ef286146103e857806352d1902d146104045780636352211e1461042f5761019c565b806318160ddd116101595780633659cfe6116101335780633659cfe61461034257806342842e0e1461036b57806342966c6814610394578063486f6c3e146103bd5761019c565b806318160ddd146102c357806323b872dd146102ee578063343def02146103175761019c565b806301ffc9a7146101a157806302d05d3f146101de57806306fdde0314610209578063081812fc14610234578063095ea7b314610271578063162094c41461029a575b600080fd5b3480156101ad57600080fd5b506101c860048036038101906101c39190612829565b610684565b6040516101d59190612871565b60405180910390f35b3480156101ea57600080fd5b506101f3610716565b60405161020091906128cd565b60405180910390f35b34801561021557600080fd5b5061021e61073c565b60405161022b9190612978565b60405180910390f35b34801561024057600080fd5b5061025b600480360381019061025691906129d0565b6107ca565b60405161026891906128cd565b60405180910390f35b34801561027d57600080fd5b5061029860048036038101906102939190612a29565b6107fd565b005b3480156102a657600080fd5b506102c160048036038101906102bc9190612b9e565b6109e6565b005b3480156102cf57600080fd5b506102d8610a7e565b6040516102e59190612c09565b60405180910390f35b3480156102fa57600080fd5b5061031560048036038101906103109190612c24565b610a84565b005b34801561032357600080fd5b5061032c610e83565b60405161033991906128cd565b60405180910390f35b34801561034e57600080fd5b5061036960048036038101906103649190612c77565b610ea9565b005b34801561037757600080fd5b50610392600480360381019061038d9190612c24565b611031565b005b3480156103a057600080fd5b506103bb60048036038101906103b691906129d0565b611169565b005b3480156103c957600080fd5b506103d26111cf565b6040516103df9190612c09565b60405180910390f35b61040260048036038101906103fd9190612d45565b6111d5565b005b34801561041057600080fd5b50610419611311565b6040516104269190612dba565b60405180910390f35b34801561043b57600080fd5b50610456600480360381019061045191906129d0565b6113ca565b60405161046391906128cd565b60405180910390f35b34801561047857600080fd5b50610493600480360381019061048e9190612c77565b611475565b6040516104a09190612c09565b60405180910390f35b3480156104b557600080fd5b506104be61152c565b6040516104cb9190612978565b60405180910390f35b3480156104e057600080fd5b506104fb60048036038101906104f69190612dd5565b6115ba565b005b34801561050957600080fd5b50610524600480360381019061051f9190612eb4565b611790565b005b34801561053257600080fd5b5061054d60048036038101906105489190612f54565b61188d565b005b34801561055b57600080fd5b50610576600480360381019061057191906129d0565b6119cb565b6040516105839190612978565b60405180910390f35b34801561059857600080fd5b506105a1611aaf565b6040516105ae9190612c09565b60405180910390f35b3480156105c357600080fd5b506105de60048036038101906105d991906129d0565b611ab5565b6040516105ec929190612fdc565b60405180910390f35b34801561060157600080fd5b5061061c60048036038101906106179190613005565b611b17565b005b34801561062a57600080fd5b506106456004803603810190610640919061307d565b611c6f565b005b34801561065357600080fd5b5061066e600480360381019061066991906130c6565b611d5e565b60405161067b9190612871565b60405180910390f35b60006301ffc9a760e01b827bffffffffffffffffffffffffffffffffffffffffffffffffffffffff191614806106df57506380ac58cd60e01b827bffffffffffffffffffffffffffffffffffffffffffffffffffffffff1916145b8061070f5750635b5e139f60e01b827bffffffffffffffffffffffffffffffffffffffffffffffffffffffff1916145b9050919050565b606f60009054906101000a900473ffffffffffffffffffffffffffffffffffffffff1681565b6065805461074990613135565b80601f016020809104026020016040519081016040528092919081815260200182805461077590613135565b80156107c25780601f10610797576101008083540402835291602001916107c2565b820191906000526020600020905b8154815290600101906020018083116107a557829003601f168201915b505050505081565b60696020528060005260406000206000915054906101000a900473ffffffffffffffffffffffffffffffffffffffff1681565b60006067600083815260200190815260200160002060009054906101000a900473ffffffffffffffffffffffffffffffffffffffff1690508073ffffffffffffffffffffffffffffffffffffffff163373ffffffffffffffffffffffffffffffffffffffff1614806108f55750606a60008273ffffffffffffffffffffffffffffffffffffffff1673ffffffffffffffffffffffffffffffffffffffff16815260200190815260200160002060003373ffffffffffffffffffffffffffffffffffffffff1673ffffffffffffffffffffffffffffffffffffffff16815260200190815260200160002060009054906101000a900460ff165b610934576040517f08c379a000000000000000000000000000000000000000000000000000000000815260040161092b906131b2565b60405180910390fd5b826069600084815260200190815260200160002060006101000a81548173ffffffffffffffffffffffffffffffffffffffff021916908373ffffffffffffffffffffffffffffffffffffffff160217905550818373ffffffffffffffffffffffffffffffffffffffff168273ffffffffffffffffffffffffffffffffffffffff167f8c5be1e5ebec7d5bd14f71427d1e84f3dd0314c0f7b2291e5b200ac8c7c3b92560405160405180910390a4505050565b60006109f1836113ca565b90508073ffffffffffffffffffffffffffffffffffffffff163373ffffffffffffffffffffffffffffffffffffffff1614610a58576040517f11e7e2df00000000000000000000000000000000000000000000000000000000815260040160405180910390fd5b81607160008581526020019081526020016000209081610a78919061337e565b50505050565b606c5481565b6067600082815260200190815260200160002060009054906101000a900473ffffffffffffffffffffffffffffffffffffffff1673ffffffffffffffffffffffffffffffffffffffff168373ffffffffffffffffffffffffffffffffffffffff1614610b25576040517f08c379a0000000000000000000000000000000000000000000000000000000008152600401610b1c9061349c565b60405180910390fd5b600073ffffffffffffffffffffffffffffffffffffffff168273ffffffffffffffffffffffffffffffffffffffff1603610b94576040517f08c379a0000000000000000000000000000000000000000000000000000000008152600401610b8b90613508565b60405180910390fd5b8273ffffffffffffffffffffffffffffffffffffffff163373ffffffffffffffffffffffffffffffffffffffff161480610c545750606a60008473ffffffffffffffffffffffffffffffffffffffff1673ffffffffffffffffffffffffffffffffffffffff16815260200190815260200160002060003373ffffffffffffffffffffffffffffffffffffffff1673ffffffffffffffffffffffffffffffffffffffff16815260200190815260200160002060009054906101000a900460ff165b80610cbd57506069600082815260200190815260200160002060009054906101000a900473ffffffffffffffffffffffffffffffffffffffff1673ffffffffffffffffffffffffffffffffffffffff163373ffffffffffffffffffffffffffffffffffffffff16145b610cfc576040517f08c379a0000000000000000000000000000000000000000000000000000000008152600401610cf3906131b2565b60405180910390fd5b606860008473ffffffffffffffffffffffffffffffffffffffff1673ffffffffffffffffffffffffffffffffffffffff1681526020019081526020016000206000815480929190600190039190505550606860008373ffffffffffffffffffffffffffffffffffffffff1673ffffffffffffffffffffffffffffffffffffffff16815260200190815260200160002060008154809291906001019190505550816067600083815260200190815260200160002060006101000a81548173ffffffffffffffffffffffffffffffffffffffff021916908373ffffffffffffffffffffffffffffffffffffffff1602179055506069600082815260200190815260200160002060006101000a81549073ffffffffffffffffffffffffffffffffffffffff0219169055808273ffffffffffffffffffffffffffffffffffffffff168473ffffffffffffffffffffffffffffffffffffffff167fddf252ad1be2c89b69c2b068fc378daa952ba7f163c4a11628f55a4df523b3ef60405160405180910390a4505050565b606e60009054906101000a900473ffffffffffffffffffffffffffffffffffffffff1681565b7f000000000000000000000000000000000000000000000000000000000000000073ffffffffffffffffffffffffffffffffffffffff163073ffffffffffffffffffffffffffffffffffffffff1603610f37576040517f08c379a0000000000000000000000000000000000000000000000000000000008152600401610f2e9061359a565b60405180910390fd5b7f000000000000000000000000000000000000000000000000000000000000000073ffffffffffffffffffffffffffffffffffffffff16610f76611d8d565b73ffffffffffffffffffffffffffffffffffffffff1614610fcc576040517f08c379a0000000000000000000000000000000000000000000000000000000008152600401610fc39061362c565b60405180910390fd5b610fd581611de4565b61102e81600067ffffffffffffffff811115610ff457610ff3612a73565b5b6040519080825280601f01601f1916602001820160405280156110265781602001600182028036833780820191505090505b506000611de7565b50565b61103c838383610a84565b60008273ffffffffffffffffffffffffffffffffffffffff163b1480611125575063150b7a0260e01b7bffffffffffffffffffffffffffffffffffffffffffffffffffffffff19168273ffffffffffffffffffffffffffffffffffffffff1663150b7a023386856040518463ffffffff1660e01b81526004016110c193929190613683565b6020604051808303816000875af11580156110e0573d6000803e3d6000fd5b505050506040513d601f19601f8201168201806040525081019061110491906136e2565b7bffffffffffffffffffffffffffffffffffffffffffffffffffffffff1916145b611164576040517f08c379a000000000000000000000000000000000000000000000000000000000815260040161115b9061375b565b60405180910390fd5b505050565b6111733382611f55565b6111a9576040517ff11def0100000000000000000000000000000000000000000000000000000000815260040160405180910390fd5b6111b281612095565b6001607060008282546111c591906137aa565b9250508190555050565b60705481565b7f000000000000000000000000000000000000000000000000000000000000000073ffffffffffffffffffffffffffffffffffffffff163073ffffffffffffffffffffffffffffffffffffffff1603611263576040517f08c379a000000000000000000000000000000000000000000000000000000000815260040161125a9061359a565b60405180910390fd5b7f000000000000000000000000000000000000000000000000000000000000000073ffffffffffffffffffffffffffffffffffffffff166112a2611d8d565b73ffffffffffffffffffffffffffffffffffffffff16146112f8576040517f08c379a00000000000000000000000000000000000000000000000000000000081526004016112ef9061362c565b60405180910390fd5b61130182611de4565b61130d82826001611de7565b5050565b60007f000000000000000000000000000000000000000000000000000000000000000073ffffffffffffffffffffffffffffffffffffffff163073ffffffffffffffffffffffffffffffffffffffff16146113a1576040517f08c379a000000000000000000000000000000000000000000000000000000000815260040161139890613850565b60405180910390fd5b7f360894a13ba1a3210667c828492db98dca3e2076cc3735a920a3ca505d382bbc60001b905090565b60008073ffffffffffffffffffffffffffffffffffffffff166067600084815260200190815260200160002060009054906101000a900473ffffffffffffffffffffffffffffffffffffffff1691508173ffffffffffffffffffffffffffffffffffffffff1603611470576040517f08c379a0000000000000000000000000000000000000000000000000000000008152600401611467906138bc565b60405180910390fd5b919050565b60008073ffffffffffffffffffffffffffffffffffffffff168273ffffffffffffffffffffffffffffffffffffffff16036114e5576040517f08c379a00000000000000000000000000000000000000000000000000000000081526004016114dc90613928565b60405180910390fd5b606860008373ffffffffffffffffffffffffffffffffffffffff1673ffffffffffffffffffffffffffffffffffffffff168152602001908152602001600020549050919050565b6066805461153990613135565b80601f016020809104026020016040519081016040528092919081815260200182805461156590613135565b80156115b25780601f10611587576101008083540402835291602001916115b2565b820191906000526020600020905b81548152906001019060200180831161159557829003601f168201915b505050505081565b60008060019054906101000a900460ff161590508080156115eb5750600160008054906101000a900460ff1660ff16105b8061161857506115fa30612258565b1580156116175750600160008054906101000a900460ff1660ff16145b5b611657576040517f08c379a000000000000000000000000000000000000000000000000000000000815260040161164e906139ba565b60405180910390fd5b60016000806101000a81548160ff021916908360ff1602179055508015611694576001600060016101000a81548160ff0219169083151502179055505b83606d8190555084606e60006101000a81548173ffffffffffffffffffffffffffffffffffffffff021916908373ffffffffffffffffffffffffffffffffffffffff16021790555085606f60006101000a81548173ffffffffffffffffffffffffffffffffffffffff021916908373ffffffffffffffffffffffffffffffffffffffff1602179055506117278383611b17565b61172f61227b565b80156117885760008060016101000a81548160ff0219169083151502179055507f7f26b83ff96e1f2b6a682f133852f6798a09c465da95921460cefb3847402498600160405161177f9190613a22565b60405180910390a15b505050505050565b80606a60003373ffffffffffffffffffffffffffffffffffffffff1673ffffffffffffffffffffffffffffffffffffffff16815260200190815260200160002060008473ffffffffffffffffffffffffffffffffffffffff1673ffffffffffffffffffffffffffffffffffffffff16815260200190815260200160002060006101000a81548160ff0219169083151502179055508173ffffffffffffffffffffffffffffffffffffffff163373ffffffffffffffffffffffffffffffffffffffff167f17307eab39ab6107e8899845ad3d59bd9653f200f220920489ca2b5937696c31836040516118819190612871565b60405180910390a35050565b611898858585610a84565b60008473ffffffffffffffffffffffffffffffffffffffff163b1480611985575063150b7a0260e01b7bffffffffffffffffffffffffffffffffffffffffffffffffffffffff19168473ffffffffffffffffffffffffffffffffffffffff1663150b7a0233888787876040518663ffffffff1660e01b8152600401611921959493929190613a6a565b6020604051808303816000875af1158015611940573d6000803e3d6000fd5b505050506040513d601f19601f8201168201806040525081019061196491906136e2565b7bffffffffffffffffffffffffffffffffffffffffffffffffffffffff1916145b6119c4576040517f08c379a00000000000000000000000000000000000000000000000000000000081526004016119bb9061375b565b60405180910390fd5b5050505050565b60606119d6826122cc565b611a0c576040517f661a032000000000000000000000000000000000000000000000000000000000815260040160405180910390fd5b607160008381526020019081526020016000208054611a2a90613135565b80601f0160208091040260200160405190810160405280929190818152602001828054611a5690613135565b8015611aa35780601f10611a7857610100808354040283529160200191611aa3565b820191906000526020600020905b815481529060010190602001808311611a8657829003601f168201915b50505050509050919050565b606d5481565b6000806000606d541115611b0a57612710606d5484611ad49190613ab8565b611ade9190613b29565b606e60009054906101000a900473ffffffffffffffffffffffffffffffffffffffff1691509150611b12565b600080915091505b915091565b60008060019054906101000a900460ff16159050808015611b485750600160008054906101000a900460ff1660ff16105b80611b755750611b5730612258565b158015611b745750600160008054906101000a900460ff1660ff16145b5b611bb4576040517f08c379a0000000000000000000000000000000000000000000000000000000008152600401611bab906139ba565b60405180910390fd5b60016000806101000a81548160ff021916908360ff1602179055508015611bf1576001600060016101000a81548160ff0219169083151502179055505b8260659081611c00919061337e565b508160669081611c10919061337e565b508015611c6a5760008060016101000a81548160ff0219169083151502179055507f7f26b83ff96e1f2b6a682f133852f6798a09c465da95921460cefb38474024986001604051611c619190613a22565b60405180910390a15b505050565b606f60009054906101000a900473ffffffffffffffffffffffffffffffffffffffff1673ffffffffffffffffffffffffffffffffffffffff163373ffffffffffffffffffffffffffffffffffffffff1614611cf6576040517f62a0fdfa00000000000000000000000000000000000000000000000000000000815260040160405180910390fd5b6000606b549050611d07338261230d565b611d1181836109e6565b6001606b54611d209190613b5a565b606b819055506001606c6000828254611d399190613b5a565b92505081905550600160706000828254611d539190613b5a565b925050819055505050565b606a6020528160005260406000206020528060005260406000206000915091509054906101000a900460ff1681565b6000611dbb7f360894a13ba1a3210667c828492db98dca3e2076cc3735a920a3ca505d382bbc60001b61251f565b60000160009054906101000a900473ffffffffffffffffffffffffffffffffffffffff16905090565b50565b611e137f4910fdfa16fed3260ed0e7147f7cc6da11a60208b5b9406d12a635614ffd914360001b612529565b60000160009054906101000a900460ff1615611e3757611e3283612533565b611f50565b8273ffffffffffffffffffffffffffffffffffffffff166352d1902d6040518163ffffffff1660e01b8152600401602060405180830381865afa925050508015611e9f57506040513d601f19601f82011682018060405250810190611e9c9190613bba565b60015b611ede576040517f08c379a0000000000000000000000000000000000000000000000000000000008152600401611ed590613c59565b60405180910390fd5b7f360894a13ba1a3210667c828492db98dca3e2076cc3735a920a3ca505d382bbc60001b8114611f43576040517f08c379a0000000000000000000000000000000000000000000000000000000008152600401611f3a90613ceb565b60405180910390fd5b50611f4f8383836125ec565b5b505050565b600080611f61836113ca565b90508073ffffffffffffffffffffffffffffffffffffffff168473ffffffffffffffffffffffffffffffffffffffff1614806120235750606a60008273ffffffffffffffffffffffffffffffffffffffff1673ffffffffffffffffffffffffffffffffffffffff16815260200190815260200160002060008573ffffffffffffffffffffffffffffffffffffffff1673ffffffffffffffffffffffffffffffffffffffff16815260200190815260200160002060009054906101000a900460ff165b8061208c57508373ffffffffffffffffffffffffffffffffffffffff166069600085815260200190815260200160002060009054906101000a900473ffffffffffffffffffffffffffffffffffffffff1673ffffffffffffffffffffffffffffffffffffffff16145b91505092915050565b60006067600083815260200190815260200160002060009054906101000a900473ffffffffffffffffffffffffffffffffffffffff169050600073ffffffffffffffffffffffffffffffffffffffff168173ffffffffffffffffffffffffffffffffffffffff160361213c576040517f08c379a0000000000000000000000000000000000000000000000000000000008152600401612133906138bc565b60405180910390fd5b606860008273ffffffffffffffffffffffffffffffffffffffff1673ffffffffffffffffffffffffffffffffffffffff16815260200190815260200160002060008154809291906001900391905055506067600083815260200190815260200160002060006101000a81549073ffffffffffffffffffffffffffffffffffffffff02191690556069600083815260200190815260200160002060006101000a81549073ffffffffffffffffffffffffffffffffffffffff021916905581600073ffffffffffffffffffffffffffffffffffffffff168273ffffffffffffffffffffffffffffffffffffffff167fddf252ad1be2c89b69c2b068fc378daa952ba7f163c4a11628f55a4df523b3ef60405160405180910390a45050565b6000808273ffffffffffffffffffffffffffffffffffffffff163b119050919050565b600060019054906101000a900460ff166122ca576040517f08c379a00000000000000000000000000000000000000000000000000000000081526004016122c190613d7d565b60405180910390fd5b565b60008073ffffffffffffffffffffffffffffffffffffffff166122ee836113ca565b73ffffffffffffffffffffffffffffffffffffffff1614159050919050565b600073ffffffffffffffffffffffffffffffffffffffff168273ffffffffffffffffffffffffffffffffffffffff160361237c576040517f08c379a000000000000000000000000000000000000000000000000000000000815260040161237390613508565b60405180910390fd5b600073ffffffffffffffffffffffffffffffffffffffff166067600083815260200190815260200160002060009054906101000a900473ffffffffffffffffffffffffffffffffffffffff1673ffffffffffffffffffffffffffffffffffffffff161461241e576040517f08c379a000000000000000000000000000000000000000000000000000000000815260040161241590613de9565b60405180910390fd5b606860008373ffffffffffffffffffffffffffffffffffffffff1673ffffffffffffffffffffffffffffffffffffffff16815260200190815260200160002060008154809291906001019190505550816067600083815260200190815260200160002060006101000a81548173ffffffffffffffffffffffffffffffffffffffff021916908373ffffffffffffffffffffffffffffffffffffffff160217905550808273ffffffffffffffffffffffffffffffffffffffff16600073ffffffffffffffffffffffffffffffffffffffff167fddf252ad1be2c89b69c2b068fc378daa952ba7f163c4a11628f55a4df523b3ef60405160405180910390a45050565b6000819050919050565b6000819050919050565b61253c81612258565b61257b576040517f08c379a000000000000000000000000000000000000000000000000000000000815260040161257290613e7b565b60405180910390fd5b806125a87f360894a13ba1a3210667c828492db98dca3e2076cc3735a920a3ca505d382bbc60001b61251f565b60000160006101000a81548173ffffffffffffffffffffffffffffffffffffffff021916908373ffffffffffffffffffffffffffffffffffffffff16021790555050565b6125f583612618565b6000825111806126025750805b15612613576126118383612667565b505b505050565b61262181612533565b8073ffffffffffffffffffffffffffffffffffffffff167fbc7cd75a20ee27fd9adebab32041f755214dbc6bffa90cc0225b39da2e5c2d3b60405160405180910390a250565b606061267283612258565b6126b1576040517f08c379a00000000000000000000000000000000000000000000000000000000081526004016126a890613f0d565b60405180910390fd5b6000808473ffffffffffffffffffffffffffffffffffffffff16846040516126d99190613f74565b600060405180830381855af49150503d8060008114612714576040519150601f19603f3d011682016040523d82523d6000602084013e612719565b606091505b50915091506127418282604051806060016040528060278152602001613f8c6027913961274b565b9250505092915050565b6060831561275b57829050612766565b612765838361276d565b5b9392505050565b6000825111156127805781518083602001fd5b806040517f08c379a00000000000000000000000000000000000000000000000000000000081526004016127b49190612978565b60405180910390fd5b6000604051905090565b600080fd5b600080fd5b60007fffffffff0000000000000000000000000000000000000000000000000000000082169050919050565b612806816127d1565b811461281157600080fd5b50565b600081359050612823816127fd565b92915050565b60006020828403121561283f5761283e6127c7565b5b600061284d84828501612814565b91505092915050565b60008115159050919050565b61286b81612856565b82525050565b60006020820190506128866000830184612862565b92915050565b600073ffffffffffffffffffffffffffffffffffffffff82169050919050565b60006128b78261288c565b9050919050565b6128c7816128ac565b82525050565b60006020820190506128e260008301846128be565b92915050565b600081519050919050565b600082825260208201905092915050565b60005b83811015612922578082015181840152602081019050612907565b60008484015250505050565b6000601f19601f8301169050919050565b600061294a826128e8565b61295481856128f3565b9350612964818560208601612904565b61296d8161292e565b840191505092915050565b60006020820190508181036000830152612992818461293f565b905092915050565b6000819050919050565b6129ad8161299a565b81146129b857600080fd5b50565b6000813590506129ca816129a4565b92915050565b6000602082840312156129e6576129e56127c7565b5b60006129f4848285016129bb565b91505092915050565b612a06816128ac565b8114612a1157600080fd5b50565b600081359050612a23816129fd565b92915050565b60008060408385031215612a4057612a3f6127c7565b5b6000612a4e85828601612a14565b9250506020612a5f858286016129bb565b9150509250929050565b600080fd5b600080fd5b7f4e487b7100000000000000000000000000000000000000000000000000000000600052604160045260246000fd5b612aab8261292e565b810181811067ffffffffffffffff82111715612aca57612ac9612a73565b5b80604052505050565b6000612add6127bd565b9050612ae98282612aa2565b919050565b600067ffffffffffffffff821115612b0957612b08612a73565b5b612b128261292e565b9050602081019050919050565b82818337600083830152505050565b6000612b41612b3c84612aee565b612ad3565b905082815260208101848484011115612b5d57612b5c612a6e565b5b612b68848285612b1f565b509392505050565b600082601f830112612b8557612b84612a69565b5b8135612b95848260208601612b2e565b91505092915050565b60008060408385031215612bb557612bb46127c7565b5b6000612bc3858286016129bb565b925050602083013567ffffffffffffffff811115612be457612be36127cc565b5b612bf085828601612b70565b9150509250929050565b612c038161299a565b82525050565b6000602082019050612c1e6000830184612bfa565b92915050565b600080600060608486031215612c3d57612c3c6127c7565b5b6000612c4b86828701612a14565b9350506020612c5c86828701612a14565b9250506040612c6d868287016129bb565b9150509250925092565b600060208284031215612c8d57612c8c6127c7565b5b6000612c9b84828501612a14565b91505092915050565b600067ffffffffffffffff821115612cbf57612cbe612a73565b5b612cc88261292e565b9050602081019050919050565b6000612ce8612ce384612ca4565b612ad3565b905082815260208101848484011115612d0457612d03612a6e565b5b612d0f848285612b1f565b509392505050565b600082601f830112612d2c57612d2b612a69565b5b8135612d3c848260208601612cd5565b91505092915050565b60008060408385031215612d5c57612d5b6127c7565b5b6000612d6a85828601612a14565b925050602083013567ffffffffffffffff811115612d8b57612d8a6127cc565b5b612d9785828601612d17565b9150509250929050565b6000819050919050565b612db481612da1565b82525050565b6000602082019050612dcf6000830184612dab565b92915050565b600080600080600060a08688031215612df157612df06127c7565b5b6000612dff88828901612a14565b9550506020612e1088828901612a14565b9450506040612e21888289016129bb565b935050606086013567ffffffffffffffff811115612e4257612e416127cc565b5b612e4e88828901612b70565b925050608086013567ffffffffffffffff811115612e6f57612e6e6127cc565b5b612e7b88828901612b70565b9150509295509295909350565b612e9181612856565b8114612e9c57600080fd5b50565b600081359050612eae81612e88565b92915050565b60008060408385031215612ecb57612eca6127c7565b5b6000612ed985828601612a14565b9250506020612eea85828601612e9f565b9150509250929050565b600080fd5b600080fd5b60008083601f840112612f1457612f13612a69565b5b8235905067ffffffffffffffff811115612f3157612f30612ef4565b5b602083019150836001820283011115612f4d57612f4c612ef9565b5b9250929050565b600080600080600060808688031215612f7057612f6f6127c7565b5b6000612f7e88828901612a14565b9550506020612f8f88828901612a14565b9450506040612fa0888289016129bb565b935050606086013567ffffffffffffffff811115612fc157612fc06127cc565b5b612fcd88828901612efe565b92509250509295509295909350565b6000604082019050612ff16000830185612bfa565b612ffe60208301846128be565b9392505050565b6000806040838503121561301c5761301b6127c7565b5b600083013567ffffffffffffffff81111561303a576130396127cc565b5b61304685828601612b70565b925050602083013567ffffffffffffffff811115613067576130666127cc565b5b61307385828601612b70565b9150509250929050565b600060208284031215613093576130926127c7565b5b600082013567ffffffffffffffff8111156130b1576130b06127cc565b5b6130bd84828501612b70565b91505092915050565b600080604083850312156130dd576130dc6127c7565b5b60006130eb85828601612a14565b92505060206130fc85828601612a14565b9150509250929050565b7f4e487b7100000000000000000000000000000000000000000000000000000000600052602260045260246000fd5b6000600282049050600182168061314d57607f821691505b6020821081036131605761315f613106565b5b50919050565b7f4e4f545f415554484f52495a4544000000000000000000000000000000000000600082015250565b600061319c600e836128f3565b91506131a782613166565b602082019050919050565b600060208201905081810360008301526131cb8161318f565b9050919050565b60008190508160005260206000209050919050565b60006020601f8301049050919050565b600082821b905092915050565b6000600883026132347fffffffffffffffffffffffffffffffffffffffffffffffffffffffffffffffff826131f7565b61323e86836131f7565b95508019841693508086168417925050509392505050565b6000819050919050565b600061327b6132766132718461299a565b613256565b61299a565b9050919050565b6000819050919050565b61329583613260565b6132a96132a182613282565b848454613204565b825550505050565b600090565b6132be6132b1565b6132c981848461328c565b505050565b5b818110156132ed576132e26000826132b6565b6001810190506132cf565b5050565b601f82111561333257613303816131d2565b61330c846131e7565b8101602085101561331b578190505b61332f613327856131e7565b8301826132ce565b50505b505050565b600082821c905092915050565b600061335560001984600802613337565b1980831691505092915050565b600061336e8383613344565b9150826002028217905092915050565b613387826128e8565b67ffffffffffffffff8111156133a05761339f612a73565b5b6133aa8254613135565b6133b58282856132f1565b600060209050601f8311600181146133e857600084156133d6578287015190505b6133e08582613362565b865550613448565b601f1984166133f6866131d2565b60005b8281101561341e578489015182556001820191506020850194506020810190506133f9565b8683101561343b5784890151613437601f891682613344565b8355505b6001600288020188555050505b505050505050565b7f57524f4e475f46524f4d00000000000000000000000000000000000000000000600082015250565b6000613486600a836128f3565b915061349182613450565b602082019050919050565b600060208201905081810360008301526134b581613479565b9050919050565b7f494e56414c49445f524543495049454e54000000000000000000000000000000600082015250565b60006134f26011836128f3565b91506134fd826134bc565b602082019050919050565b60006020820190508181036000830152613521816134e5565b9050919050565b7f46756e6374696f6e206d7573742062652063616c6c6564207468726f7567682060008201527f64656c656761746563616c6c0000000000000000000000000000000000000000602082015250565b6000613584602c836128f3565b915061358f82613528565b604082019050919050565b600060208201905081810360008301526135b381613577565b9050919050565b7f46756e6374696f6e206d7573742062652063616c6c6564207468726f7567682060008201527f6163746976652070726f78790000000000000000000000000000000000000000602082015250565b6000613616602c836128f3565b9150613621826135ba565b604082019050919050565b6000602082019050818103600083015261364581613609565b9050919050565b600082825260208201905092915050565b50565b600061366d60008361364c565b91506136788261365d565b600082019050919050565b600060808201905061369860008301866128be565b6136a560208301856128be565b6136b26040830184612bfa565b81810360608301526136c381613660565b9050949350505050565b6000815190506136dc816127fd565b92915050565b6000602082840312156136f8576136f76127c7565b5b6000613706848285016136cd565b91505092915050565b7f554e534146455f524543495049454e5400000000000000000000000000000000600082015250565b60006137456010836128f3565b91506137508261370f565b602082019050919050565b6000602082019050818103600083015261377481613738565b9050919050565b7f4e487b7100000000000000000000000000000000000000000000000000000000600052601160045260246000fd5b60006137b58261299a565b91506137c08361299a565b92508282039050818111156137d8576137d761377b565b5b92915050565b7f555550535570677261646561626c653a206d757374206e6f742062652063616c60008201527f6c6564207468726f7567682064656c656761746563616c6c0000000000000000602082015250565b600061383a6038836128f3565b9150613845826137de565b604082019050919050565b600060208201905081810360008301526138698161382d565b9050919050565b7f4e4f545f4d494e54454400000000000000000000000000000000000000000000600082015250565b60006138a6600a836128f3565b91506138b182613870565b602082019050919050565b600060208201905081810360008301526138d581613899565b9050919050565b7f5a45524f5f414444524553530000000000000000000000000000000000000000600082015250565b6000613912600c836128f3565b915061391d826138dc565b602082019050919050565b6000602082019050818103600083015261394181613905565b9050919050565b7f496e697469616c697a61626c653a20636f6e747261637420697320616c72656160008201527f647920696e697469616c697a6564000000000000000000000000000000000000602082015250565b60006139a4602e836128f3565b91506139af82613948565b604082019050919050565b600060208201905081810360008301526139d381613997565b9050919050565b6000819050919050565b600060ff82169050919050565b6000613a0c613a07613a02846139da565b613256565b6139e4565b9050919050565b613a1c816139f1565b82525050565b6000602082019050613a376000830184613a13565b92915050565b6000613a49838561364c565b9350613a56838584612b1f565b613a5f8361292e565b840190509392505050565b6000608082019050613a7f60008301886128be565b613a8c60208301876128be565b613a996040830186612bfa565b8181036060830152613aac818486613a3d565b90509695505050505050565b6000613ac38261299a565b9150613ace8361299a565b9250828202613adc8161299a565b91508282048414831517613af357613af261377b565b5b5092915050565b7f4e487b7100000000000000000000000000000000000000000000000000000000600052601260045260246000fd5b6000613b348261299a565b9150613b3f8361299a565b925082613b4f57613b4e613afa565b5b828204905092915050565b6000613b658261299a565b9150613b708361299a565b9250828201905080821115613b8857613b8761377b565b5b92915050565b613b9781612da1565b8114613ba257600080fd5b50565b600081519050613bb481613b8e565b92915050565b600060208284031215613bd057613bcf6127c7565b5b6000613bde84828501613ba5565b91505092915050565b7f45524331393637557067726164653a206e657720696d706c656d656e7461746960008201527f6f6e206973206e6f742055555053000000000000000000000000000000000000602082015250565b6000613c43602e836128f3565b9150613c4e82613be7565b604082019050919050565b60006020820190508181036000830152613c7281613c36565b9050919050565b7f45524331393637557067726164653a20756e737570706f727465642070726f7860008201527f6961626c65555549440000000000000000000000000000000000000000000000602082015250565b6000613cd56029836128f3565b9150613ce082613c79565b604082019050919050565b60006020820190508181036000830152613d0481613cc8565b9050919050565b7f496e697469616c697a61626c653a20636f6e7472616374206973206e6f74206960008201527f6e697469616c697a696e67000000000000000000000000000000000000000000602082015250565b6000613d67602b836128f3565b9150613d7282613d0b565b604082019050919050565b60006020820190508181036000830152613d9681613d5a565b9050919050565b7f414c52454144595f4d494e544544000000000000000000000000000000000000600082015250565b6000613dd3600e836128f3565b9150613dde82613d9d565b602082019050919050565b60006020820190508181036000830152613e0281613dc6565b9050919050565b7f455243313936373a206e657720696d706c656d656e746174696f6e206973206e60008201527f6f74206120636f6e747261637400000000000000000000000000000000000000602082015250565b6000613e65602d836128f3565b9150613e7082613e09565b604082019050919050565b60006020820190508181036000830152613e9481613e58565b9050919050565b7f416464726573733a2064656c65676174652063616c6c20746f206e6f6e2d636f60008201527f6e74726163740000000000000000000000000000000000000000000000000000602082015250565b6000613ef76026836128f3565b9150613f0282613e9b565b604082019050919050565b60006020820190508181036000830152613f2681613eea565b9050919050565b600081519050919050565b600081905092915050565b6000613f4e82613f2d565b613f588185613f38565b9350613f68818560208601612904565b80840191505092915050565b6000613f808284613f43565b91508190509291505056fe416464726573733a206c6f772d6c6576656c2064656c65676174652063616c6c206661696c6564a26469706673582212206200809d7aafb2b8ac78ebdd7aad727ce54ea1416b9b9a211b5b20d28a30f46d64736f6c63430008120033608060405260405162000c5138038062000c51833981810160405281019062000029919062000580565b6200003d828260006200004560201b60201c565b5050620007d7565b62000056836200008860201b60201c565b600082511180620000645750805b156200008357620000818383620000df60201b620000371760201c565b505b505050565b62000099816200011560201b60201c565b8073ffffffffffffffffffffffffffffffffffffffff167fbc7cd75a20ee27fd9adebab32041f755214dbc6bffa90cc0225b39da2e5c2d3b60405160405180910390a250565b60606200010d838360405180606001604052806027815260200162000c2a60279139620001eb60201b60201c565b905092915050565b6200012b816200027d60201b620000641760201c565b6200016d576040517f08c379a000000000000000000000000000000000000000000000000000000000815260040162000164906200066d565b60405180910390fd5b80620001a77f360894a13ba1a3210667c828492db98dca3e2076cc3735a920a3ca505d382bbc60001b620002a060201b620000871760201c565b60000160006101000a81548173ffffffffffffffffffffffffffffffffffffffff021916908373ffffffffffffffffffffffffffffffffffffffff16021790555050565b60606000808573ffffffffffffffffffffffffffffffffffffffff1685604051620002179190620006dc565b600060405180830381855af49150503d806000811462000254576040519150601f19603f3d011682016040523d82523d6000602084013e62000259565b606091505b50915091506200027286838387620002aa60201b60201c565b925050509392505050565b6000808273ffffffffffffffffffffffffffffffffffffffff163b119050919050565b6000819050919050565b606083156200031a5760008351036200031157620002ce856200027d60201b60201c565b62000310576040517f08c379a0000000000000000000000000000000000000000000000000000000008152600401620003079062000745565b60405180910390fd5b5b8290506200032d565b6200032c83836200033560201b60201c565b5b949350505050565b600082511115620003495781518083602001fd5b806040517f08c379a00000000000000000000000000000000000000000000000000000000081526004016200037f9190620007b3565b60405180910390fd5b6000604051905090565b600080fd5b600080fd5b600073ffffffffffffffffffffffffffffffffffffffff82169050919050565b6000620003c9826200039c565b9050919050565b620003db81620003bc565b8114620003e757600080fd5b50565b600081519050620003fb81620003d0565b92915050565b600080fd5b600080fd5b6000601f19601f8301169050919050565b7f4e487b7100000000000000000000000000000000000000000000000000000000600052604160045260246000fd5b62000456826200040b565b810181811067ffffffffffffffff821117156200047857620004776200041c565b5b80604052505050565b60006200048d62000388565b90506200049b82826200044b565b919050565b600067ffffffffffffffff821115620004be57620004bd6200041c565b5b620004c9826200040b565b9050602081019050919050565b60005b83811015620004f6578082015181840152602081019050620004d9565b60008484015250505050565b6000620005196200051384620004a0565b62000481565b90508281526020810184848401111562000538576200053762000406565b5b62000545848285620004d6565b509392505050565b600082601f83011262000565576200056462000401565b5b81516200057784826020860162000502565b91505092915050565b600080604083850312156200059a576200059962000392565b5b6000620005aa85828601620003ea565b925050602083015167ffffffffffffffff811115620005ce57620005cd62000397565b5b620005dc858286016200054d565b9150509250929050565b600082825260208201905092915050565b7f455243313936373a206e657720696d706c656d656e746174696f6e206973206e60008201527f6f74206120636f6e747261637400000000000000000000000000000000000000602082015250565b600062000655602d83620005e6565b91506200066282620005f7565b604082019050919050565b60006020820190508181036000830152620006888162000646565b9050919050565b600081519050919050565b600081905092915050565b6000620006b2826200068f565b620006be81856200069a565b9350620006d0818560208601620004d6565b80840191505092915050565b6000620006ea8284620006a5565b915081905092915050565b7f416464726573733a2063616c6c20746f206e6f6e2d636f6e7472616374000000600082015250565b60006200072d601d83620005e6565b91506200073a82620006f5565b602082019050919050565b6000602082019050818103600083015262000760816200071e565b9050919050565b600081519050919050565b60006200077f8262000767565b6200078b8185620005e6565b93506200079d818560208601620004d6565b620007a8816200040b565b840191505092915050565b60006020820190508181036000830152620007cf818462000772565b905092915050565b61044380620007e76000396000f3fe6080604052366100135761001161001d565b005b61001b61001d565b005b610025610091565b610035610030610093565b6100a2565b565b606061005c83836040518060600160405280602781526020016103e7602791396100c8565b905092915050565b6000808273ffffffffffffffffffffffffffffffffffffffff163b119050919050565b6000819050919050565b565b600061009d61014e565b905090565b3660008037600080366000845af43d6000803e80600081146100c3573d6000f35b3d6000fd5b60606000808573ffffffffffffffffffffffffffffffffffffffff16856040516100f291906102db565b600060405180830381855af49150503d806000811461012d576040519150601f19603f3d011682016040523d82523d6000602084013e610132565b606091505b5091509150610143868383876101a5565b925050509392505050565b600061017c7f360894a13ba1a3210667c828492db98dca3e2076cc3735a920a3ca505d382bbc60001b610087565b60000160009054906101000a900473ffffffffffffffffffffffffffffffffffffffff16905090565b606083156102075760008351036101ff576101bf85610064565b6101fe576040517f08c379a00000000000000000000000000000000000000000000000000000000081526004016101f59061034f565b60405180910390fd5b5b829050610212565b610211838361021a565b5b949350505050565b60008251111561022d5781518083602001fd5b806040517f08c379a000000000000000000000000000000000000000000000000000000000815260040161026191906103c4565b60405180910390fd5b600081519050919050565b600081905092915050565b60005b8381101561029e578082015181840152602081019050610283565b60008484015250505050565b60006102b58261026a565b6102bf8185610275565b93506102cf818560208601610280565b80840191505092915050565b60006102e782846102aa565b915081905092915050565b600082825260208201905092915050565b7f416464726573733a2063616c6c20746f206e6f6e2d636f6e7472616374000000600082015250565b6000610339601d836102f2565b915061034482610303565b602082019050919050565b600060208201905081810360008301526103688161032c565b9050919050565b600081519050919050565b6000601f19601f8301169050919050565b60006103968261036f565b6103a081856102f2565b93506103b0818560208601610280565b6103b98161037a565b840191505092915050565b600060208201905081810360008301526103de818461038b565b90509291505056fe416464726573733a206c6f772d6c6576656c2064656c65676174652063616c6c206661696c6564a26469706673582212202321a362273fbe14eb135551ea4a6b9d941fd4e2086c344c380c35622a53412364736f6c63430008120033416464726573733a206c6f772d6c6576656c2064656c65676174652063616c6c206661696c6564a26469706673582212209ea639b94e0968c002f5baf0e6732a4af6850df4e4d2a66a0c16e0159996febc64736f6c63430008120033",
  "devdoc": {
    "kind": "dev",
    "methods": {},
    "version": 1
  },
  "userdoc": {
    "kind": "user",
    "methods": {},
    "version": 1
  },
  "storageLayout": {
    "storage": [],
    "types": null
  }
}