{
  "address": "0x91E57A2F76a9Fd4113ACDdaE63b60db344697332",
  "abi": [
    {
      "inputs": [],
      "name": "MXCCollectionFactory__NotFound",
      "type": "error"
    },
    {
      "inputs": [],
      "name": "MXCCollectionFactory__NotOwner",
      "type": "error"
    },
    {
      "anonymous": false,
      "inputs": [
        {
          "indexed": true,
          "internalType": "address",
          "name": "collectionAddress",
          "type": "address"
        },
        {
          "indexed": true,
          "internalType": "address",
          "name": "owner",
          "type": "address"
        }
      ],
      "name": "delCollectionEvent",
      "type": "event"
    },
    {
      "anonymous": false,
      "inputs": [
        {
          "indexed": true,
          "internalType": "address",
          "name": "collectionAddress",
          "type": "address"
        },
        {
          "indexed": true,
          "internalType": "address",
          "name": "owner",
          "type": "address"
        }
      ],
      "name": "editCollectionEvent",
      "type": "event"
    },
    {
      "anonymous": false,
      "inputs": [
        {
          "indexed": true,
          "internalType": "address",
          "name": "collectionAddress",
          "type": "address"
        },
        {
          "indexed": true,
          "internalType": "address",
          "name": "owner",
          "type": "address"
        }
      ],
      "name": "newCollectionEvent",
      "type": "event"
    },
    {
      "inputs": [
        {
          "internalType": "uint256",
          "name": "",
          "type": "uint256"
        }
      ],
      "name": "collections",
      "outputs": [
        {
          "internalType": "string",
          "name": "ipfs",
          "type": "string"
        },
        {
          "internalType": "address",
          "name": "owner",
          "type": "address"
        },
        {
          "internalType": "address",
          "name": "collection",
          "type": "address"
        }
      ],
      "stateMutability": "view",
      "type": "function"
    },
    {
      "inputs": [
        {
          "internalType": "address",
          "name": "_marketplaceAddress",
          "type": "address"
        },
        {
          "internalType": "string",
          "name": "_name",
          "type": "string"
        },
        {
          "internalType": "string",
          "name": "_symbol",
          "type": "string"
        },
        {
          "internalType": "uint256",
          "name": "_royaltiesCutPerMillion",
          "type": "uint256"
        },
        {
          "internalType": "address",
          "name": "_royaltyRecipient",
          "type": "address"
        },
        {
          "internalType": "string",
          "name": "_ipfs",
          "type": "string"
        }
      ],
      "name": "createCollection",
      "outputs": [
        {
          "internalType": "address",
          "name": "",
          "type": "address"
        }
      ],
      "stateMutability": "nonpayable",
      "type": "function"
    },
    {
      "inputs": [
        {
          "internalType": "address",
          "name": "_collection",
          "type": "address"
        }
      ],
      "name": "delCollection",
      "outputs": [
        {
          "internalType": "address",
          "name": "",
          "type": "address"
        }
      ],
      "stateMutability": "nonpayable",
      "type": "function"
    },
    {
      "inputs": [
        {
          "internalType": "address",
          "name": "_collection",
          "type": "address"
        },
        {
          "internalType": "string",
          "name": "_ipfs",
          "type": "string"
        }
      ],
      "name": "editCollection",
      "outputs": [],
      "stateMutability": "nonpayable",
      "type": "function"
    },
    {
      "inputs": [
        {
          "internalType": "address",
          "name": "_collection",
          "type": "address"
        }
      ],
      "name": "fetchCollection",
      "outputs": [
        {
          "components": [
            {
              "internalType": "string",
              "name": "ipfs",
              "type": "string"
            },
            {
              "internalType": "address",
              "name": "owner",
              "type": "address"
            },
            {
              "internalType": "address",
              "name": "collection",
              "type": "address"
            }
          ],
          "internalType": "struct MXCCollectionFactory.MXCCollectionData",
          "name": "",
          "type": "tuple"
        }
      ],
      "stateMutability": "view",
      "type": "function"
    },
    {
      "inputs": [],
      "name": "fetchCollections",
      "outputs": [
        {
          "components": [
            {
              "internalType": "string",
              "name": "ipfs",
              "type": "string"
            },
            {
              "internalType": "address",
              "name": "owner",
              "type": "address"
            },
            {
              "internalType": "address",
              "name": "collection",
              "type": "address"
            }
          ],
          "internalType": "struct MXCCollectionFactory.MXCCollectionData[]",
          "name": "",
          "type": "tuple[]"
        }
      ],
      "stateMutability": "view",
      "type": "function"
    },
    {
      "inputs": [],
      "name": "fetchCollectionsLength",
      "outputs": [
        {
          "internalType": "uint256",
          "name": "",
          "type": "uint256"
        }
      ],
      "stateMutability": "view",
      "type": "function"
    },
    {
      "inputs": [
        {
          "internalType": "address",
          "name": "_user",
          "type": "address"
        }
      ],
      "name": "fetchUserCollections",
      "outputs": [
        {
          "components": [
            {
              "internalType": "string",
              "name": "ipfs",
              "type": "string"
            },
            {
              "internalType": "address",
              "name": "owner",
              "type": "address"
            },
            {
              "internalType": "address",
              "name": "collection",
              "type": "address"
            }
          ],
          "internalType": "struct MXCCollectionFactory.MXCCollectionData[]",
          "name": "",
          "type": "tuple[]"
        }
      ],
      "stateMutability": "view",
      "type": "function"
    }
  ],
  "transactionHash": "0xa452df4f391879c8b9bcff10967e78733cbc7ab0cd64102f6fe60e826090fbb9",
  "args": [],
  "numDeployments": 1,
  "solcInputHash": "f050d2a43dab3b68a56ac09830bdbb75",
  "bytecode": "0x608060405234801561001057600080fd5b50614fb9806100206000396000f3fe60806040523480156200001157600080fd5b5060043610620000945760003560e01c80638d71614511620000635780638d716145146200015b578063d2ead4cb1462000191578063e469d81114620001b3578063fdbda0ec14620001d55762000094565b80632ac9a80214620000995780633ea321a414620000cf57806352b2886a14620000ef578063841189ae1462000125575b600080fd5b620000b76004803603810190620000b1919062001300565b6200020d565b604051620000c6919062001503565b60405180910390f35b620000ed6004803603810190620000e7919062001678565b6200049d565b005b6200010d600480360381019062000107919062001719565b6200068b565b6040516200011c919062001823565b60405180910390f35b6200014360048036038101906200013d919062001300565b620008d4565b60405162000152919062001823565b60405180910390f35b62000179600480360381019062000173919062001300565b62000c9f565b60405162000188919062001896565b60405180910390f35b6200019b62000f09565b604051620001aa919062001503565b60405180910390f35b620001bd620010b0565b604051620001cc9190620018cb565b60405180910390f35b620001f36004803603810190620001ed9190620018e8565b620010bc565b60405162000204939291906200196c565b60405180910390f35b60606000600160008473ffffffffffffffffffffffffffffffffffffffff1673ffffffffffffffffffffffffffffffffffffffff16815260200190815260200160002090506000818054905067ffffffffffffffff81111562000275576200027462001531565b5b604051908082528060200260200182016040528015620002b257816020015b6200029e620011c7565b815260200190600190039081620002945790505b50905060005b828054905081101562000492576000838281548110620002dd57620002dc620019b0565b5b906000526020600020015481548110620002fc57620002fb620019b0565b5b9060005260206000209060030201604051806060016040529081600082018054620003279062001a0e565b80601f0160208091040260200160405190810160405280929190818152602001828054620003559062001a0e565b8015620003a65780601f106200037a57610100808354040283529160200191620003a6565b820191906000526020600020905b8154815290600101906020018083116200038857829003601f168201915b505050505081526020016001820160009054906101000a900473ffffffffffffffffffffffffffffffffffffffff1673ffffffffffffffffffffffffffffffffffffffff1673ffffffffffffffffffffffffffffffffffffffff1681526020016002820160009054906101000a900473ffffffffffffffffffffffffffffffffffffffff1673ffffffffffffffffffffffffffffffffffffffff1673ffffffffffffffffffffffffffffffffffffffff1681525050828281518110620004715762000470620019b0565b5b60200260200101819052508080620004899062001a72565b915050620002b8565b508092505050919050565b60005b60008054905081101562000686578273ffffffffffffffffffffffffffffffffffffffff1660008281548110620004dc57620004db620019b0565b5b906000526020600020906003020160020160009054906101000a900473ffffffffffffffffffffffffffffffffffffffff1673ffffffffffffffffffffffffffffffffffffffff160362000670573373ffffffffffffffffffffffffffffffffffffffff1660008281548110620005585762000557620019b0565b5b906000526020600020906003020160010160009054906101000a900473ffffffffffffffffffffffffffffffffffffffff1673ffffffffffffffffffffffffffffffffffffffff1614620005d8576040517f3cb2ab8b00000000000000000000000000000000000000000000000000000000815260040160405180910390fd5b6000808281548110620005f057620005ef620019b0565b5b906000526020600020906003020190508281600001908162000613919062001c91565b503373ffffffffffffffffffffffffffffffffffffffff168473ffffffffffffffffffffffffffffffffffffffff167fc3192244edff9585106fa1032d387b4f8ace7c7fb7ce8f1e8291900505e2c2fc60405160405180910390a3505b80806200067d9062001a72565b915050620004a0565b505050565b600080338885878a8a604051620006a29062001214565b620006b39695949392919062001d78565b604051809103906000f080158015620006d0573d6000803e3d6000fd5b509050600060405180606001604052808581526020013373ffffffffffffffffffffffffffffffffffffffff1681526020018373ffffffffffffffffffffffffffffffffffffffff16815250908060018154018082558091505060019003906000526020600020906003020160009091909190915060008201518160000190816200075c919062001c91565b5060208201518160010160006101000a81548173ffffffffffffffffffffffffffffffffffffffff021916908373ffffffffffffffffffffffffffffffffffffffff16021790555060408201518160020160006101000a81548173ffffffffffffffffffffffffffffffffffffffff021916908373ffffffffffffffffffffffffffffffffffffffff16021790555050506000600160008054905062000803919062001df3565b9050600160003373ffffffffffffffffffffffffffffffffffffffff1673ffffffffffffffffffffffffffffffffffffffff1681526020019081526020016000208190806001815401808255809150506001900390600052602060002001600090919091909150553373ffffffffffffffffffffffffffffffffffffffff168273ffffffffffffffffffffffffffffffffffffffff167ff59ec64249a367b8002b16800479bbc232553e6b3a132735ac8f9ca67d82cc9a60405160405180910390a381925050509695505050505050565b600080600090505b60008054905081101562000c67576000808281548110620009025762000901620019b0565b5b906000526020600020906003020160020160009054906101000a900473ffffffffffffffffffffffffffffffffffffffff1690508373ffffffffffffffffffffffffffffffffffffffff168173ffffffffffffffffffffffffffffffffffffffff160362000c50573373ffffffffffffffffffffffffffffffffffffffff1660008381548110620009985762000997620019b0565b5b906000526020600020906003020160010160009054906101000a900473ffffffffffffffffffffffffffffffffffffffff1673ffffffffffffffffffffffffffffffffffffffff161462000a18576040517f3cb2ab8b00000000000000000000000000000000000000000000000000000000815260040160405180910390fd5b6000600160008054905062000a2e919062001df3565b8154811062000a425762000a41620019b0565b5b90600052602060002090600302016000838154811062000a675762000a66620019b0565b5b90600052602060002090600302016000820181600001908162000a8b919062001e46565b506001820160009054906101000a900473ffffffffffffffffffffffffffffffffffffffff168160010160006101000a81548173ffffffffffffffffffffffffffffffffffffffff021916908373ffffffffffffffffffffffffffffffffffffffff1602179055506002820160009054906101000a900473ffffffffffffffffffffffffffffffffffffffff168160020160006101000a81548173ffffffffffffffffffffffffffffffffffffffff021916908373ffffffffffffffffffffffffffffffffffffffff160217905550905050600080548062000b725762000b7162001f47565b5b60019003818190600052602060002090600302016000808201600062000b99919062001222565b6001820160006101000a81549073ffffffffffffffffffffffffffffffffffffffff02191690556002820160006101000a81549073ffffffffffffffffffffffffffffffffffffffff0219169055505090553373ffffffffffffffffffffffffffffffffffffffff168173ffffffffffffffffffffffffffffffffffffffff167fd4d21ee9d917784b20633b4343362644455a540ddd4ba537b68cca374cf3630760405160405180910390a3809250505062000c9a565b50808062000c5e9062001a72565b915050620008dc565b506040517f54889a3400000000000000000000000000000000000000000000000000000000815260040160405180910390fd5b919050565b62000ca9620011c7565b60005b60008054905081101562000ed157600080828154811062000cd25762000cd1620019b0565b5b906000526020600020906003020160020160009054906101000a900473ffffffffffffffffffffffffffffffffffffffff1690508373ffffffffffffffffffffffffffffffffffffffff168173ffffffffffffffffffffffffffffffffffffffff160362000eba576000828154811062000d515762000d50620019b0565b5b906000526020600020906003020160405180606001604052908160008201805462000d7c9062001a0e565b80601f016020809104026020016040519081016040528092919081815260200182805462000daa9062001a0e565b801562000dfb5780601f1062000dcf5761010080835404028352916020019162000dfb565b820191906000526020600020905b81548152906001019060200180831162000ddd57829003601f168201915b505050505081526020016001820160009054906101000a900473ffffffffffffffffffffffffffffffffffffffff1673ffffffffffffffffffffffffffffffffffffffff1673ffffffffffffffffffffffffffffffffffffffff1681526020016002820160009054906101000a900473ffffffffffffffffffffffffffffffffffffffff1673ffffffffffffffffffffffffffffffffffffffff1673ffffffffffffffffffffffffffffffffffffffff16815250509250505062000f04565b50808062000ec89062001a72565b91505062000cac565b506040517f54889a3400000000000000000000000000000000000000000000000000000000815260040160405180910390fd5b919050565b60606000805480602002602001604051908101604052809291908181526020016000905b82821015620010a7578382906000526020600020906003020160405180606001604052908160008201805462000f639062001a0e565b80601f016020809104026020016040519081016040528092919081815260200182805462000f919062001a0e565b801562000fe25780601f1062000fb65761010080835404028352916020019162000fe2565b820191906000526020600020905b81548152906001019060200180831162000fc457829003601f168201915b505050505081526020016001820160009054906101000a900473ffffffffffffffffffffffffffffffffffffffff1673ffffffffffffffffffffffffffffffffffffffff1673ffffffffffffffffffffffffffffffffffffffff1681526020016002820160009054906101000a900473ffffffffffffffffffffffffffffffffffffffff1673ffffffffffffffffffffffffffffffffffffffff1673ffffffffffffffffffffffffffffffffffffffff16815250508152602001906001019062000f2d565b50505050905090565b60008080549050905090565b60008181548110620010cd57600080fd5b9060005260206000209060030201600091509050806000018054620010f29062001a0e565b80601f0160208091040260200160405190810160405280929190818152602001828054620011209062001a0e565b8015620011715780601f10620011455761010080835404028352916020019162001171565b820191906000526020600020905b8154815290600101906020018083116200115357829003601f168201915b5050505050908060010160009054906101000a900473ffffffffffffffffffffffffffffffffffffffff16908060020160009054906101000a900473ffffffffffffffffffffffffffffffffffffffff16905083565b604051806060016040528060608152602001600073ffffffffffffffffffffffffffffffffffffffff168152602001600073ffffffffffffffffffffffffffffffffffffffff1681525090565b61300d8062001f7783390190565b508054620012309062001a0e565b6000825580601f1062001244575062001265565b601f01602090049060005260206000209081019062001264919062001268565b5b50565b5b808211156200128357600081600090555060010162001269565b5090565b6000604051905090565b600080fd5b600080fd5b600073ffffffffffffffffffffffffffffffffffffffff82169050919050565b6000620012c8826200129b565b9050919050565b620012da81620012bb565b8114620012e657600080fd5b50565b600081359050620012fa81620012cf565b92915050565b60006020828403121562001319576200131862001291565b5b60006200132984828501620012e9565b91505092915050565b600081519050919050565b600082825260208201905092915050565b6000819050602082019050919050565b600081519050919050565b600082825260208201905092915050565b60005b838110156200139a5780820151818401526020810190506200137d565b60008484015250505050565b6000601f19601f8301169050919050565b6000620013c4826200135e565b620013d0818562001369565b9350620013e28185602086016200137a565b620013ed81620013a6565b840191505092915050565b6200140381620012bb565b82525050565b60006060830160008301518482036000860152620014288282620013b7565b91505060208301516200143f6020860182620013f8565b506040830151620014546040860182620013f8565b508091505092915050565b60006200146d838362001409565b905092915050565b6000602082019050919050565b60006200148f8262001332565b6200149b81856200133d565b935083602082028501620014af856200134e565b8060005b85811015620014f15784840389528151620014cf85826200145f565b9450620014dc8362001475565b925060208a01995050600181019050620014b3565b50829750879550505050505092915050565b600060208201905081810360008301526200151f818462001482565b905092915050565b600080fd5b600080fd5b7f4e487b7100000000000000000000000000000000000000000000000000000000600052604160045260246000fd5b6200156b82620013a6565b810181811067ffffffffffffffff821117156200158d576200158c62001531565b5b80604052505050565b6000620015a262001287565b9050620015b0828262001560565b919050565b600067ffffffffffffffff821115620015d357620015d262001531565b5b620015de82620013a6565b9050602081019050919050565b82818337600083830152505050565b6000620016116200160b84620015b5565b62001596565b90508281526020810184848401111562001630576200162f6200152c565b5b6200163d848285620015eb565b509392505050565b600082601f8301126200165d576200165c62001527565b5b81356200166f848260208601620015fa565b91505092915050565b6000806040838503121562001692576200169162001291565b5b6000620016a285828601620012e9565b925050602083013567ffffffffffffffff811115620016c657620016c562001296565b5b620016d48582860162001645565b9150509250929050565b6000819050919050565b620016f381620016de565b8114620016ff57600080fd5b50565b6000813590506200171381620016e8565b92915050565b60008060008060008060c0878903121562001739576200173862001291565b5b60006200174989828a01620012e9565b965050602087013567ffffffffffffffff8111156200176d576200176c62001296565b5b6200177b89828a0162001645565b955050604087013567ffffffffffffffff8111156200179f576200179e62001296565b5b620017ad89828a0162001645565b9450506060620017c089828a0162001702565b9350506080620017d389828a01620012e9565b92505060a087013567ffffffffffffffff811115620017f757620017f662001296565b5b6200180589828a0162001645565b9150509295509295509295565b6200181d81620012bb565b82525050565b60006020820190506200183a600083018462001812565b92915050565b600060608301600083015184820360008601526200185f8282620013b7565b9150506020830151620018766020860182620013f8565b5060408301516200188b6040860182620013f8565b508091505092915050565b60006020820190508181036000830152620018b2818462001840565b905092915050565b620018c581620016de565b82525050565b6000602082019050620018e26000830184620018ba565b92915050565b60006020828403121562001901576200190062001291565b5b6000620019118482850162001702565b91505092915050565b600082825260208201905092915050565b600062001938826200135e565b6200194481856200191a565b9350620019568185602086016200137a565b6200196181620013a6565b840191505092915050565b600060608201905081810360008301526200198881866200192b565b905062001999602083018562001812565b620019a8604083018462001812565b949350505050565b7f4e487b7100000000000000000000000000000000000000000000000000000000600052603260045260246000fd5b7f4e487b7100000000000000000000000000000000000000000000000000000000600052602260045260246000fd5b6000600282049050600182168062001a2757607f821691505b60208210810362001a3d5762001a3c620019df565b5b50919050565b7f4e487b7100000000000000000000000000000000000000000000000000000000600052601160045260246000fd5b600062001a7f82620016de565b91507fffffffffffffffffffffffffffffffffffffffffffffffffffffffffffffffff820362001ab45762001ab362001a43565b5b600182019050919050565b60008190508160005260206000209050919050565b60006020601f8301049050919050565b600082821b905092915050565b60006008830262001b237fffffffffffffffffffffffffffffffffffffffffffffffffffffffffffffffff8262001ae4565b62001b2f868362001ae4565b95508019841693508086168417925050509392505050565b6000819050919050565b600062001b7262001b6c62001b6684620016de565b62001b47565b620016de565b9050919050565b6000819050919050565b62001b8e8362001b51565b62001ba662001b9d8262001b79565b84845462001af1565b825550505050565b600090565b62001bbd62001bae565b62001bca81848462001b83565b505050565b5b8181101562001bf25762001be660008262001bb3565b60018101905062001bd0565b5050565b601f82111562001c415762001c0b8162001abf565b62001c168462001ad4565b8101602085101562001c26578190505b62001c3e62001c358562001ad4565b83018262001bcf565b50505b505050565b600082821c905092915050565b600062001c666000198460080262001c46565b1980831691505092915050565b600062001c81838362001c53565b9150826002028217905092915050565b62001c9c826200135e565b67ffffffffffffffff81111562001cb85762001cb762001531565b5b62001cc4825462001a0e565b62001cd182828562001bf6565b600060209050601f83116001811462001d09576000841562001cf4578287015190505b62001d00858262001c73565b86555062001d70565b601f19841662001d198662001abf565b60005b8281101562001d435784890151825560018201915060208501945060208101905062001d1c565b8683101562001d63578489015162001d5f601f89168262001c53565b8355505b6001600288020188555050505b505050505050565b600060c08201905062001d8f600083018962001812565b62001d9e602083018862001812565b62001dad604083018762001812565b62001dbc6060830186620018ba565b818103608083015262001dd081856200192b565b905081810360a083015262001de681846200192b565b9050979650505050505050565b600062001e0082620016de565b915062001e0d83620016de565b925082820390508181111562001e285762001e2762001a43565b5b92915050565b60008154905062001e3f8162001a0e565b9050919050565b81810362001e5657505062001f45565b62001e618262001e2e565b67ffffffffffffffff81111562001e7d5762001e7c62001531565b5b62001e89825462001a0e565b62001e9682828562001bf6565b6000601f83116001811462001eca576000841562001eb5578287015490505b62001ec1858262001c73565b86555062001f3e565b601f19841662001eda8762001abf565b965062001ee78662001abf565b60005b8281101562001f115784890154825560018201915060018501945060208101905062001eea565b8683101562001f31578489015462001f2d601f89168262001c53565b8355505b6001600288020188555050505b5050505050505b565b7f4e487b7100000000000000000000000000000000000000000000000000000000600052603160045260246000fdfe60806040523480156200001157600080fd5b506040516200300d3803806200300d833981810160405281019062000037919062000368565b818181600090816200004a919062000683565b5080600190816200005c919062000683565b50505084600a60006101000a81548173ffffffffffffffffffffffffffffffffffffffff021916908373ffffffffffffffffffffffffffffffffffffffff1602179055508260088190555083600960006101000a81548173ffffffffffffffffffffffffffffffffffffffff021916908373ffffffffffffffffffffffffffffffffffffffff16021790555085600b60006101000a81548173ffffffffffffffffffffffffffffffffffffffff021916908373ffffffffffffffffffffffffffffffffffffffff1602179055505050505050506200076a565b6000604051905090565b600080fd5b600080fd5b600073ffffffffffffffffffffffffffffffffffffffff82169050919050565b6000620001768262000149565b9050919050565b620001888162000169565b81146200019457600080fd5b50565b600081519050620001a8816200017d565b92915050565b6000819050919050565b620001c381620001ae565b8114620001cf57600080fd5b50565b600081519050620001e381620001b8565b92915050565b600080fd5b600080fd5b6000601f19601f8301169050919050565b7f4e487b7100000000000000000000000000000000000000000000000000000000600052604160045260246000fd5b6200023e82620001f3565b810181811067ffffffffffffffff8211171562000260576200025f62000204565b5b80604052505050565b60006200027562000135565b905062000283828262000233565b919050565b600067ffffffffffffffff821115620002a657620002a562000204565b5b620002b182620001f3565b9050602081019050919050565b60005b83811015620002de578082015181840152602081019050620002c1565b60008484015250505050565b600062000301620002fb8462000288565b62000269565b90508281526020810184848401111562000320576200031f620001ee565b5b6200032d848285620002be565b509392505050565b600082601f8301126200034d576200034c620001e9565b5b81516200035f848260208601620002ea565b91505092915050565b60008060008060008060c087890312156200038857620003876200013f565b5b60006200039889828a0162000197565b9650506020620003ab89828a0162000197565b9550506040620003be89828a0162000197565b9450506060620003d189828a01620001d2565b935050608087015167ffffffffffffffff811115620003f557620003f462000144565b5b6200040389828a0162000335565b92505060a087015167ffffffffffffffff81111562000427576200042662000144565b5b6200043589828a0162000335565b9150509295509295509295565b600081519050919050565b7f4e487b7100000000000000000000000000000000000000000000000000000000600052602260045260246000fd5b600060028204905060018216806200049557607f821691505b602082108103620004ab57620004aa6200044d565b5b50919050565b60008190508160005260206000209050919050565b60006020601f8301049050919050565b600082821b905092915050565b600060088302620005157fffffffffffffffffffffffffffffffffffffffffffffffffffffffffffffffff82620004d6565b620005218683620004d6565b95508019841693508086168417925050509392505050565b6000819050919050565b6000620005646200055e6200055884620001ae565b62000539565b620001ae565b9050919050565b6000819050919050565b620005808362000543565b620005986200058f826200056b565b848454620004e3565b825550505050565b600090565b620005af620005a0565b620005bc81848462000575565b505050565b5b81811015620005e457620005d8600082620005a5565b600181019050620005c2565b5050565b601f8211156200063357620005fd81620004b1565b6200060884620004c6565b8101602085101562000618578190505b620006306200062785620004c6565b830182620005c1565b50505b505050565b600082821c905092915050565b6000620006586000198460080262000638565b1980831691505092915050565b600062000673838362000645565b9150826002028217905092915050565b6200068e8262000442565b67ffffffffffffffff811115620006aa57620006a962000204565b5b620006b682546200047c565b620006c3828285620005e8565b600060209050601f831160018114620006fb5760008415620006e6578287015190505b620006f2858262000665565b86555062000762565b601f1984166200070b86620004b1565b60005b8281101562000735578489015182556001820191506020850194506020810190506200070e565b8683101562000755578489015162000751601f89168262000645565b8355505b6001600288020188555050505b505050505050565b612893806200077a6000396000f3fe608060405234801561001057600080fd5b50600436106101375760003560e01c80636352211e116100b8578063c87b56dd1161007c578063c87b56dd14610338578063ce2243b414610368578063cef6d36814610386578063d1bb5cf1146103b7578063d85d3d27146103d5578063e985e9c5146103f157610137565b80636352211e1461028257806370a08231146102b257806395d89b41146102e2578063a22cb46514610300578063b88d4fde1461031c57610137565b8063162094c4116100ff578063162094c4146101f457806323b872dd14610210578063343def021461022c57806342842e0e1461024a57806342966c681461026657610137565b806301ffc9a71461013c57806302d05d3f1461016c57806306fdde031461018a578063081812fc146101a8578063095ea7b3146101d8575b600080fd5b610156600480360381019061015191906119c7565b610421565b6040516101639190611a0f565b60405180910390f35b6101746104b3565b6040516101819190611a6b565b60405180910390f35b6101926104d9565b60405161019f9190611b16565b60405180910390f35b6101c260048036038101906101bd9190611b6e565b610567565b6040516101cf9190611a6b565b60405180910390f35b6101f260048036038101906101ed9190611bc7565b61059a565b005b61020e60048036038101906102099190611d3c565b610783565b005b61022a60048036038101906102259190611d98565b6107a8565b005b610234610ba7565b6040516102419190611a6b565b60405180910390f35b610264600480360381019061025f9190611d98565b610bcd565b005b610280600480360381019061027b9190611b6e565b610d05565b005b61029c60048036038101906102979190611b6e565b610d51565b6040516102a99190611a6b565b60405180910390f35b6102cc60048036038101906102c79190611deb565b610dfc565b6040516102d99190611e27565b60405180910390f35b6102ea610eb3565b6040516102f79190611b16565b60405180910390f35b61031a60048036038101906103159190611e6e565b610f41565b005b61033660048036038101906103319190611f0e565b61103e565b005b610352600480360381019061034d9190611b6e565b61117c565b60405161035f9190611b16565b60405180910390f35b610370611260565b60405161037d9190611e27565b60405180910390f35b6103a0600480360381019061039b9190611b6e565b611266565b6040516103ae929190611f96565b60405180910390f35b6103bf6112c8565b6040516103cc9190611a6b565b60405180910390f35b6103ef60048036038101906103ea9190611fbf565b6112ee565b005b61040b60048036038101906104069190612008565b6113d6565b6040516104189190611a0f565b60405180910390f35b60006301ffc9a760e01b827bffffffffffffffffffffffffffffffffffffffffffffffffffffffff1916148061047c57506380ac58cd60e01b827bffffffffffffffffffffffffffffffffffffffffffffffffffffffff1916145b806104ac5750635b5e139f60e01b827bffffffffffffffffffffffffffffffffffffffffffffffffffffffff1916145b9050919050565b600b60009054906101000a900473ffffffffffffffffffffffffffffffffffffffff1681565b600080546104e690612077565b80601f016020809104026020016040519081016040528092919081815260200182805461051290612077565b801561055f5780601f106105345761010080835404028352916020019161055f565b820191906000526020600020905b81548152906001019060200180831161054257829003601f168201915b505050505081565b60046020528060005260406000206000915054906101000a900473ffffffffffffffffffffffffffffffffffffffff1681565b60006002600083815260200190815260200160002060009054906101000a900473ffffffffffffffffffffffffffffffffffffffff1690508073ffffffffffffffffffffffffffffffffffffffff163373ffffffffffffffffffffffffffffffffffffffff1614806106925750600560008273ffffffffffffffffffffffffffffffffffffffff1673ffffffffffffffffffffffffffffffffffffffff16815260200190815260200160002060003373ffffffffffffffffffffffffffffffffffffffff1673ffffffffffffffffffffffffffffffffffffffff16815260200190815260200160002060009054906101000a900460ff165b6106d1576040517f08c379a00000000000000000000000000000000000000000000000000000000081526004016106c8906120f4565b60405180910390fd5b826004600084815260200190815260200160002060006101000a81548173ffffffffffffffffffffffffffffffffffffffff021916908373ffffffffffffffffffffffffffffffffffffffff160217905550818373ffffffffffffffffffffffffffffffffffffffff168273ffffffffffffffffffffffffffffffffffffffff167f8c5be1e5ebec7d5bd14f71427d1e84f3dd0314c0f7b2291e5b200ac8c7c3b92560405160405180910390a4505050565b806006600084815260200190815260200160002090816107a391906122c0565b505050565b6002600082815260200190815260200160002060009054906101000a900473ffffffffffffffffffffffffffffffffffffffff1673ffffffffffffffffffffffffffffffffffffffff168373ffffffffffffffffffffffffffffffffffffffff1614610849576040517f08c379a0000000000000000000000000000000000000000000000000000000008152600401610840906123de565b60405180910390fd5b600073ffffffffffffffffffffffffffffffffffffffff168273ffffffffffffffffffffffffffffffffffffffff16036108b8576040517f08c379a00000000000000000000000000000000000000000000000000000000081526004016108af9061244a565b60405180910390fd5b8273ffffffffffffffffffffffffffffffffffffffff163373ffffffffffffffffffffffffffffffffffffffff1614806109785750600560008473ffffffffffffffffffffffffffffffffffffffff1673ffffffffffffffffffffffffffffffffffffffff16815260200190815260200160002060003373ffffffffffffffffffffffffffffffffffffffff1673ffffffffffffffffffffffffffffffffffffffff16815260200190815260200160002060009054906101000a900460ff165b806109e157506004600082815260200190815260200160002060009054906101000a900473ffffffffffffffffffffffffffffffffffffffff1673ffffffffffffffffffffffffffffffffffffffff163373ffffffffffffffffffffffffffffffffffffffff16145b610a20576040517f08c379a0000000000000000000000000000000000000000000000000000000008152600401610a17906120f4565b60405180910390fd5b600360008473ffffffffffffffffffffffffffffffffffffffff1673ffffffffffffffffffffffffffffffffffffffff1681526020019081526020016000206000815480929190600190039190505550600360008373ffffffffffffffffffffffffffffffffffffffff1673ffffffffffffffffffffffffffffffffffffffff16815260200190815260200160002060008154809291906001019190505550816002600083815260200190815260200160002060006101000a81548173ffffffffffffffffffffffffffffffffffffffff021916908373ffffffffffffffffffffffffffffffffffffffff1602179055506004600082815260200190815260200160002060006101000a81549073ffffffffffffffffffffffffffffffffffffffff0219169055808273ffffffffffffffffffffffffffffffffffffffff168473ffffffffffffffffffffffffffffffffffffffff167fddf252ad1be2c89b69c2b068fc378daa952ba7f163c4a11628f55a4df523b3ef60405160405180910390a4505050565b600960009054906101000a900473ffffffffffffffffffffffffffffffffffffffff1681565b610bd88383836107a8565b60008273ffffffffffffffffffffffffffffffffffffffff163b1480610cc1575063150b7a0260e01b7bffffffffffffffffffffffffffffffffffffffffffffffffffffffff19168273ffffffffffffffffffffffffffffffffffffffff1663150b7a023386856040518463ffffffff1660e01b8152600401610c5d939291906124a1565b6020604051808303816000875af1158015610c7c573d6000803e3d6000fd5b505050506040513d601f19601f82011682018060405250810190610ca09190612500565b7bffffffffffffffffffffffffffffffffffffffffffffffffffffffff1916145b610d00576040517f08c379a0000000000000000000000000000000000000000000000000000000008152600401610cf790612579565b60405180910390fd5b505050565b610d0f3382611405565b610d45576040517ff11def0100000000000000000000000000000000000000000000000000000000815260040160405180910390fd5b610d4e81611545565b50565b60008073ffffffffffffffffffffffffffffffffffffffff166002600084815260200190815260200160002060009054906101000a900473ffffffffffffffffffffffffffffffffffffffff1691508173ffffffffffffffffffffffffffffffffffffffff1603610df7576040517f08c379a0000000000000000000000000000000000000000000000000000000008152600401610dee906125e5565b60405180910390fd5b919050565b60008073ffffffffffffffffffffffffffffffffffffffff168273ffffffffffffffffffffffffffffffffffffffff1603610e6c576040517f08c379a0000000000000000000000000000000000000000000000000000000008152600401610e6390612651565b60405180910390fd5b600360008373ffffffffffffffffffffffffffffffffffffffff1673ffffffffffffffffffffffffffffffffffffffff168152602001908152602001600020549050919050565b60018054610ec090612077565b80601f0160208091040260200160405190810160405280929190818152602001828054610eec90612077565b8015610f395780601f10610f0e57610100808354040283529160200191610f39565b820191906000526020600020905b815481529060010190602001808311610f1c57829003601f168201915b505050505081565b80600560003373ffffffffffffffffffffffffffffffffffffffff1673ffffffffffffffffffffffffffffffffffffffff16815260200190815260200160002060008473ffffffffffffffffffffffffffffffffffffffff1673ffffffffffffffffffffffffffffffffffffffff16815260200190815260200160002060006101000a81548160ff0219169083151502179055508173ffffffffffffffffffffffffffffffffffffffff163373ffffffffffffffffffffffffffffffffffffffff167f17307eab39ab6107e8899845ad3d59bd9653f200f220920489ca2b5937696c31836040516110329190611a0f565b60405180910390a35050565b6110498585856107a8565b60008473ffffffffffffffffffffffffffffffffffffffff163b1480611136575063150b7a0260e01b7bffffffffffffffffffffffffffffffffffffffffffffffffffffffff19168473ffffffffffffffffffffffffffffffffffffffff1663150b7a0233888787876040518663ffffffff1660e01b81526004016110d295949392919061269e565b6020604051808303816000875af11580156110f1573d6000803e3d6000fd5b505050506040513d601f19601f820116820180604052508101906111159190612500565b7bffffffffffffffffffffffffffffffffffffffffffffffffffffffff1916145b611175576040517f08c379a000000000000000000000000000000000000000000000000000000000815260040161116c90612579565b60405180910390fd5b5050505050565b606061118782611708565b6111bd576040517f661a032000000000000000000000000000000000000000000000000000000000815260040160405180910390fd5b6006600083815260200190815260200160002080546111db90612077565b80601f016020809104026020016040519081016040528092919081815260200182805461120790612077565b80156112545780601f1061122957610100808354040283529160200191611254565b820191906000526020600020905b81548152906001019060200180831161123757829003601f168201915b50505050509050919050565b60085481565b600080600060085411156112bb5761271060085484611285919061271b565b61128f919061278c565b600960009054906101000a900473ffffffffffffffffffffffffffffffffffffffff16915091506112c3565b600080915091505b915091565b600a60009054906101000a900473ffffffffffffffffffffffffffffffffffffffff1681565b600b60009054906101000a900473ffffffffffffffffffffffffffffffffffffffff1673ffffffffffffffffffffffffffffffffffffffff163373ffffffffffffffffffffffffffffffffffffffff1614611375576040517f62a0fdfa00000000000000000000000000000000000000000000000000000000815260040160405180910390fd5b600060075490506113863382611749565b6113908183610783565b6113bd600a60009054906101000a900473ffffffffffffffffffffffffffffffffffffffff166001610f41565b60016007546113cc91906127bd565b6007819055505050565b60056020528160005260406000206020528060005260406000206000915091509054906101000a900460ff1681565b60008061141183610d51565b90508073ffffffffffffffffffffffffffffffffffffffff168473ffffffffffffffffffffffffffffffffffffffff1614806114d35750600560008273ffffffffffffffffffffffffffffffffffffffff1673ffffffffffffffffffffffffffffffffffffffff16815260200190815260200160002060008573ffffffffffffffffffffffffffffffffffffffff1673ffffffffffffffffffffffffffffffffffffffff16815260200190815260200160002060009054906101000a900460ff165b8061153c57508373ffffffffffffffffffffffffffffffffffffffff166004600085815260200190815260200160002060009054906101000a900473ffffffffffffffffffffffffffffffffffffffff1673ffffffffffffffffffffffffffffffffffffffff16145b91505092915050565b60006002600083815260200190815260200160002060009054906101000a900473ffffffffffffffffffffffffffffffffffffffff169050600073ffffffffffffffffffffffffffffffffffffffff168173ffffffffffffffffffffffffffffffffffffffff16036115ec576040517f08c379a00000000000000000000000000000000000000000000000000000000081526004016115e3906125e5565b60405180910390fd5b600360008273ffffffffffffffffffffffffffffffffffffffff1673ffffffffffffffffffffffffffffffffffffffff16815260200190815260200160002060008154809291906001900391905055506002600083815260200190815260200160002060006101000a81549073ffffffffffffffffffffffffffffffffffffffff02191690556004600083815260200190815260200160002060006101000a81549073ffffffffffffffffffffffffffffffffffffffff021916905581600073ffffffffffffffffffffffffffffffffffffffff168273ffffffffffffffffffffffffffffffffffffffff167fddf252ad1be2c89b69c2b068fc378daa952ba7f163c4a11628f55a4df523b3ef60405160405180910390a45050565b60008073ffffffffffffffffffffffffffffffffffffffff1661172a83610d51565b73ffffffffffffffffffffffffffffffffffffffff1614159050919050565b600073ffffffffffffffffffffffffffffffffffffffff168273ffffffffffffffffffffffffffffffffffffffff16036117b8576040517f08c379a00000000000000000000000000000000000000000000000000000000081526004016117af9061244a565b60405180910390fd5b600073ffffffffffffffffffffffffffffffffffffffff166002600083815260200190815260200160002060009054906101000a900473ffffffffffffffffffffffffffffffffffffffff1673ffffffffffffffffffffffffffffffffffffffff161461185a576040517f08c379a00000000000000000000000000000000000000000000000000000000081526004016118519061283d565b60405180910390fd5b600360008373ffffffffffffffffffffffffffffffffffffffff1673ffffffffffffffffffffffffffffffffffffffff16815260200190815260200160002060008154809291906001019190505550816002600083815260200190815260200160002060006101000a81548173ffffffffffffffffffffffffffffffffffffffff021916908373ffffffffffffffffffffffffffffffffffffffff160217905550808273ffffffffffffffffffffffffffffffffffffffff16600073ffffffffffffffffffffffffffffffffffffffff167fddf252ad1be2c89b69c2b068fc378daa952ba7f163c4a11628f55a4df523b3ef60405160405180910390a45050565b6000604051905090565b600080fd5b600080fd5b60007fffffffff0000000000000000000000000000000000000000000000000000000082169050919050565b6119a48161196f565b81146119af57600080fd5b50565b6000813590506119c18161199b565b92915050565b6000602082840312156119dd576119dc611965565b5b60006119eb848285016119b2565b91505092915050565b60008115159050919050565b611a09816119f4565b82525050565b6000602082019050611a246000830184611a00565b92915050565b600073ffffffffffffffffffffffffffffffffffffffff82169050919050565b6000611a5582611a2a565b9050919050565b611a6581611a4a565b82525050565b6000602082019050611a806000830184611a5c565b92915050565b600081519050919050565b600082825260208201905092915050565b60005b83811015611ac0578082015181840152602081019050611aa5565b60008484015250505050565b6000601f19601f8301169050919050565b6000611ae882611a86565b611af28185611a91565b9350611b02818560208601611aa2565b611b0b81611acc565b840191505092915050565b60006020820190508181036000830152611b308184611add565b905092915050565b6000819050919050565b611b4b81611b38565b8114611b5657600080fd5b50565b600081359050611b6881611b42565b92915050565b600060208284031215611b8457611b83611965565b5b6000611b9284828501611b59565b91505092915050565b611ba481611a4a565b8114611baf57600080fd5b50565b600081359050611bc181611b9b565b92915050565b60008060408385031215611bde57611bdd611965565b5b6000611bec85828601611bb2565b9250506020611bfd85828601611b59565b9150509250929050565b600080fd5b600080fd5b7f4e487b7100000000000000000000000000000000000000000000000000000000600052604160045260246000fd5b611c4982611acc565b810181811067ffffffffffffffff82111715611c6857611c67611c11565b5b80604052505050565b6000611c7b61195b565b9050611c878282611c40565b919050565b600067ffffffffffffffff821115611ca757611ca6611c11565b5b611cb082611acc565b9050602081019050919050565b82818337600083830152505050565b6000611cdf611cda84611c8c565b611c71565b905082815260208101848484011115611cfb57611cfa611c0c565b5b611d06848285611cbd565b509392505050565b600082601f830112611d2357611d22611c07565b5b8135611d33848260208601611ccc565b91505092915050565b60008060408385031215611d5357611d52611965565b5b6000611d6185828601611b59565b925050602083013567ffffffffffffffff811115611d8257611d8161196a565b5b611d8e85828601611d0e565b9150509250929050565b600080600060608486031215611db157611db0611965565b5b6000611dbf86828701611bb2565b9350506020611dd086828701611bb2565b9250506040611de186828701611b59565b9150509250925092565b600060208284031215611e0157611e00611965565b5b6000611e0f84828501611bb2565b91505092915050565b611e2181611b38565b82525050565b6000602082019050611e3c6000830184611e18565b92915050565b611e4b816119f4565b8114611e5657600080fd5b50565b600081359050611e6881611e42565b92915050565b60008060408385031215611e8557611e84611965565b5b6000611e9385828601611bb2565b9250506020611ea485828601611e59565b9150509250929050565b600080fd5b600080fd5b60008083601f840112611ece57611ecd611c07565b5b8235905067ffffffffffffffff811115611eeb57611eea611eae565b5b602083019150836001820283011115611f0757611f06611eb3565b5b9250929050565b600080600080600060808688031215611f2a57611f29611965565b5b6000611f3888828901611bb2565b9550506020611f4988828901611bb2565b9450506040611f5a88828901611b59565b935050606086013567ffffffffffffffff811115611f7b57611f7a61196a565b5b611f8788828901611eb8565b92509250509295509295909350565b6000604082019050611fab6000830185611e18565b611fb86020830184611a5c565b9392505050565b600060208284031215611fd557611fd4611965565b5b600082013567ffffffffffffffff811115611ff357611ff261196a565b5b611fff84828501611d0e565b91505092915050565b6000806040838503121561201f5761201e611965565b5b600061202d85828601611bb2565b925050602061203e85828601611bb2565b9150509250929050565b7f4e487b7100000000000000000000000000000000000000000000000000000000600052602260045260246000fd5b6000600282049050600182168061208f57607f821691505b6020821081036120a2576120a1612048565b5b50919050565b7f4e4f545f415554484f52495a4544000000000000000000000000000000000000600082015250565b60006120de600e83611a91565b91506120e9826120a8565b602082019050919050565b6000602082019050818103600083015261210d816120d1565b9050919050565b60008190508160005260206000209050919050565b60006020601f8301049050919050565b600082821b905092915050565b6000600883026121767fffffffffffffffffffffffffffffffffffffffffffffffffffffffffffffffff82612139565b6121808683612139565b95508019841693508086168417925050509392505050565b6000819050919050565b60006121bd6121b86121b384611b38565b612198565b611b38565b9050919050565b6000819050919050565b6121d7836121a2565b6121eb6121e3826121c4565b848454612146565b825550505050565b600090565b6122006121f3565b61220b8184846121ce565b505050565b5b8181101561222f576122246000826121f8565b600181019050612211565b5050565b601f8211156122745761224581612114565b61224e84612129565b8101602085101561225d578190505b61227161226985612129565b830182612210565b50505b505050565b600082821c905092915050565b600061229760001984600802612279565b1980831691505092915050565b60006122b08383612286565b9150826002028217905092915050565b6122c982611a86565b67ffffffffffffffff8111156122e2576122e1611c11565b5b6122ec8254612077565b6122f7828285612233565b600060209050601f83116001811461232a5760008415612318578287015190505b61232285826122a4565b86555061238a565b601f19841661233886612114565b60005b828110156123605784890151825560018201915060208501945060208101905061233b565b8683101561237d5784890151612379601f891682612286565b8355505b6001600288020188555050505b505050505050565b7f57524f4e475f46524f4d00000000000000000000000000000000000000000000600082015250565b60006123c8600a83611a91565b91506123d382612392565b602082019050919050565b600060208201905081810360008301526123f7816123bb565b9050919050565b7f494e56414c49445f524543495049454e54000000000000000000000000000000600082015250565b6000612434601183611a91565b915061243f826123fe565b602082019050919050565b6000602082019050818103600083015261246381612427565b9050919050565b600082825260208201905092915050565b50565b600061248b60008361246a565b91506124968261247b565b600082019050919050565b60006080820190506124b66000830186611a5c565b6124c36020830185611a5c565b6124d06040830184611e18565b81810360608301526124e18161247e565b9050949350505050565b6000815190506124fa8161199b565b92915050565b60006020828403121561251657612515611965565b5b6000612524848285016124eb565b91505092915050565b7f554e534146455f524543495049454e5400000000000000000000000000000000600082015250565b6000612563601083611a91565b915061256e8261252d565b602082019050919050565b6000602082019050818103600083015261259281612556565b9050919050565b7f4e4f545f4d494e54454400000000000000000000000000000000000000000000600082015250565b60006125cf600a83611a91565b91506125da82612599565b602082019050919050565b600060208201905081810360008301526125fe816125c2565b9050919050565b7f5a45524f5f414444524553530000000000000000000000000000000000000000600082015250565b600061263b600c83611a91565b915061264682612605565b602082019050919050565b6000602082019050818103600083015261266a8161262e565b9050919050565b600061267d838561246a565b935061268a838584611cbd565b61269383611acc565b840190509392505050565b60006080820190506126b36000830188611a5c565b6126c06020830187611a5c565b6126cd6040830186611e18565b81810360608301526126e0818486612671565b90509695505050505050565b7f4e487b7100000000000000000000000000000000000000000000000000000000600052601160045260246000fd5b600061272682611b38565b915061273183611b38565b925082820261273f81611b38565b91508282048414831517612756576127556126ec565b5b5092915050565b7f4e487b7100000000000000000000000000000000000000000000000000000000600052601260045260246000fd5b600061279782611b38565b91506127a283611b38565b9250826127b2576127b161275d565b5b828204905092915050565b60006127c882611b38565b91506127d383611b38565b92508282019050808211156127eb576127ea6126ec565b5b92915050565b7f414c52454144595f4d494e544544000000000000000000000000000000000000600082015250565b6000612827600e83611a91565b9150612832826127f1565b602082019050919050565b600060208201905081810360008301526128568161281a565b905091905056fea2646970667358221220da94845bfcf2ad7f7ce9bd37f57a68b65a7a930606b05b18411fbfc6ede06e9364736f6c63430008120033a2646970667358221220957e4a3ed16818618e7086a275b43a6e62e182c1fa47683a614f1f6b5c58856464736f6c63430008120033",
  "devdoc": {
    "kind": "dev",
    "methods": {},
    "version": 1
  },
  "userdoc": {
    "kind": "user",
    "methods": {},
    "version": 1
  },
  "storageLayout": {
    "storage": [
      {
        "astId": 17,
        "contract": "contracts/MXCCollectionFactory.sol:MXCCollectionFactory",
        "label": "collections",
        "offset": 0,
        "slot": "0",
        "type": "t_array(t_struct(MXCCollectionData)13_storage)dyn_storage"
      },
      {
        "astId": 22,
        "contract": "contracts/MXCCollectionFactory.sol:MXCCollectionFactory",
        "label": "userToCollections",
        "offset": 0,
        "slot": "1",
        "type": "t_mapping(t_address,t_array(t_uint256)dyn_storage)"
      }
    ],
    "types": {
      "t_address": {
        "encoding": "inplace",
        "label": "address",
        "numberOfBytes": "20"
      },
      "t_array(t_struct(MXCCollectionData)13_storage)dyn_storage": {
        "base": "t_struct(MXCCollectionData)13_storage",
        "encoding": "dynamic_array",
        "label": "struct MXCCollectionFactory.MXCCollectionData[]",
        "numberOfBytes": "32"
      },
      "t_array(t_uint256)dyn_storage": {
        "base": "t_uint256",
        "encoding": "dynamic_array",
        "label": "uint256[]",
        "numberOfBytes": "32"
      },
      "t_mapping(t_address,t_array(t_uint256)dyn_storage)": {
        "encoding": "mapping",
        "key": "t_address",
        "label": "mapping(address => uint256[])",
        "numberOfBytes": "32",
        "value": "t_array(t_uint256)dyn_storage"
      },
      "t_string_storage": {
        "encoding": "bytes",
        "label": "string",
        "numberOfBytes": "32"
      },
      "t_struct(MXCCollectionData)13_storage": {
        "encoding": "inplace",
        "label": "struct MXCCollectionFactory.MXCCollectionData",
        "members": [
          {
            "astId": 8,
            "contract": "contracts/MXCCollectionFactory.sol:MXCCollectionFactory",
            "label": "ipfs",
            "offset": 0,
            "slot": "0",
            "type": "t_string_storage"
          },
          {
            "astId": 10,
            "contract": "contracts/MXCCollectionFactory.sol:MXCCollectionFactory",
            "label": "owner",
            "offset": 0,
            "slot": "1",
            "type": "t_address"
          },
          {
            "astId": 12,
            "contract": "contracts/MXCCollectionFactory.sol:MXCCollectionFactory",
            "label": "collection",
            "offset": 0,
            "slot": "2",
            "type": "t_address"
          }
        ],
        "numberOfBytes": "96"
      },
      "t_uint256": {
        "encoding": "inplace",
        "label": "uint256",
        "numberOfBytes": "32"
      }
    }
  }
}